{
  "_format": "hh-sol-artifact-1",
  "contractName": "Pool3",
  "sourceName": "Contracts/Pool3.sol",
  "abi": [
    {
      "inputs": [
        {
          "internalType": "contract ERC20",
          "name": "_bamiTokenAddress",
          "type": "address"
        },
        {
          "internalType": "contract ERC20",
          "name": "_BUSDTokenAddress",
          "type": "address"
        },
        {
          "internalType": "contract ERC20",
          "name": "_hesmanTokenAddress",
          "type": "address"
        }
      ],
      "stateMutability": "nonpayable",
      "type": "constructor"
    },
    {
      "anonymous": false,
      "inputs": [
        {
          "indexed": true,
          "internalType": "address",
          "name": "previousOwner",
          "type": "address"
        },
        {
          "indexed": true,
          "internalType": "address",
          "name": "newOwner",
          "type": "address"
        }
      ],
      "name": "OwnershipTransferred",
      "type": "event"
    },
    {
      "inputs": [],
      "name": "BUSDToBuySlot",
      "outputs": [
        {
          "internalType": "uint256",
          "name": "",
          "type": "uint256"
        }
      ],
      "stateMutability": "view",
      "type": "function"
    },
    {
      "inputs": [],
      "name": "BUSDTokenAddress",
      "outputs": [
        {
          "internalType": "contract ERC20",
          "name": "",
          "type": "address"
        }
      ],
      "stateMutability": "view",
      "type": "function"
    },
    {
      "inputs": [],
      "name": "BamiToBuySlot",
      "outputs": [
        {
          "internalType": "uint256",
          "name": "",
          "type": "uint256"
        }
      ],
      "stateMutability": "view",
      "type": "function"
    },
    {
      "inputs": [
        {
          "internalType": "uint256",
          "name": "",
          "type": "uint256"
        }
      ],
      "name": "ClaimStageList",
      "outputs": [
        {
          "internalType": "uint256",
          "name": "claimIndex",
          "type": "uint256"
        },
        {
          "internalType": "uint256",
          "name": "claimPercent",
          "type": "uint256"
        },
        {
          "internalType": "uint256",
          "name": "claimTimestamp",
          "type": "uint256"
        }
      ],
      "stateMutability": "view",
      "type": "function"
    },
    {
      "inputs": [],
      "name": "EmergencyWithdrawAllToken",
      "outputs": [],
      "stateMutability": "nonpayable",
      "type": "function"
    },
    {
      "inputs": [],
      "name": "bamiTokenAddress",
      "outputs": [
        {
          "internalType": "contract ERC20",
          "name": "",
          "type": "address"
        }
      ],
      "stateMutability": "view",
      "type": "function"
    },
    {
      "inputs": [],
      "name": "buySlot",
      "outputs": [],
      "stateMutability": "nonpayable",
      "type": "function"
    },
    {
      "inputs": [],
      "name": "buySlotTimeEnd",
      "outputs": [
        {
          "internalType": "uint256",
          "name": "",
          "type": "uint256"
        }
      ],
      "stateMutability": "view",
      "type": "function"
    },
    {
      "inputs": [],
      "name": "buySlotTimeStart",
      "outputs": [
        {
          "internalType": "uint256",
          "name": "",
          "type": "uint256"
        }
      ],
      "stateMutability": "view",
      "type": "function"
    },
    {
      "inputs": [
        {
          "internalType": "uint256",
          "name": "_options",
          "type": "uint256"
        },
        {
          "internalType": "contract ERC20",
          "name": "_tokenAddress",
          "type": "address"
        }
      ],
      "name": "changeTokenAddress",
      "outputs": [],
      "stateMutability": "nonpayable",
      "type": "function"
    },
    {
      "inputs": [],
      "name": "claimHesman",
      "outputs": [],
      "stateMutability": "nonpayable",
      "type": "function"
    },
    {
      "inputs": [
        {
          "internalType": "uint256",
          "name": "_stakePrice",
          "type": "uint256"
        },
        {
          "internalType": "uint256",
          "name": "_totalSlots",
          "type": "uint256"
        },
        {
          "internalType": "uint256",
          "name": "_slotHasBeenBought",
          "type": "uint256"
        },
        {
          "internalType": "uint256",
          "name": "_BamiToBuySlot",
          "type": "uint256"
        },
        {
          "internalType": "uint256",
          "name": "_BUSDToBuySlot",
          "type": "uint256"
        },
        {
          "internalType": "uint256",
          "name": "_hesmanClaimPerSlot",
          "type": "uint256"
        }
      ],
      "name": "configPriceAndSlot",
      "outputs": [],
      "stateMutability": "nonpayable",
      "type": "function"
    },
    {
      "inputs": [
        {
          "internalType": "uint256",
          "name": "_stakingTimeStart",
          "type": "uint256"
        },
        {
          "internalType": "uint256",
          "name": "_stakingTimeEnd",
          "type": "uint256"
        },
        {
          "internalType": "uint256",
          "name": "_buySlotTimeStart",
          "type": "uint256"
        },
        {
          "internalType": "uint256",
          "name": "_buySlotTimeEnd",
          "type": "uint256"
        },
        {
          "internalType": "uint256",
          "name": "_unStakeTimeStart",
          "type": "uint256"
        }
      ],
      "name": "configTimer",
      "outputs": [],
      "stateMutability": "nonpayable",
      "type": "function"
    },
    {
      "inputs": [],
      "name": "hesmanClaimPerSlot",
      "outputs": [
        {
          "internalType": "uint256",
          "name": "",
          "type": "uint256"
        }
      ],
      "stateMutability": "view",
      "type": "function"
    },
    {
      "inputs": [],
      "name": "hesmanTokenAddress",
      "outputs": [
        {
          "internalType": "contract ERC20",
          "name": "",
          "type": "address"
        }
      ],
      "stateMutability": "view",
      "type": "function"
    },
    {
      "inputs": [
        {
          "internalType": "address[]",
          "name": "_addressList",
          "type": "address[]"
        }
      ],
      "name": "inputWhitelist",
      "outputs": [],
      "stateMutability": "nonpayable",
      "type": "function"
    },
    {
      "inputs": [],
      "name": "isPause",
      "outputs": [
        {
          "internalType": "bool",
          "name": "",
          "type": "bool"
        }
      ],
      "stateMutability": "view",
      "type": "function"
    },
    {
      "inputs": [
        {
          "internalType": "address",
          "name": "",
          "type": "address"
        }
      ],
      "name": "nextStageIndex",
      "outputs": [
        {
          "internalType": "uint256",
          "name": "",
          "type": "uint256"
        }
      ],
      "stateMutability": "view",
      "type": "function"
    },
    {
      "inputs": [],
      "name": "owner",
      "outputs": [
        {
          "internalType": "address",
          "name": "",
          "type": "address"
        }
      ],
      "stateMutability": "view",
      "type": "function"
    },
    {
      "inputs": [
        {
          "internalType": "uint256",
          "name": "_options",
          "type": "uint256"
        },
        {
          "internalType": "uint256",
          "name": "_amount",
          "type": "uint256"
        }
      ],
      "name": "ownerWithdrawToken",
      "outputs": [],
      "stateMutability": "nonpayable",
      "type": "function"
    },
    {
      "inputs": [],
      "name": "renounceOwnership",
      "outputs": [],
      "stateMutability": "nonpayable",
      "type": "function"
    },
    {
      "inputs": [
        {
          "internalType": "address",
          "name": "_address",
          "type": "address"
        },
        {
          "internalType": "bool",
          "name": "_iswhitelist",
          "type": "bool"
        }
      ],
      "name": "setBlackList",
      "outputs": [],
      "stateMutability": "nonpayable",
      "type": "function"
    },
    {
      "inputs": [
        {
          "internalType": "uint256[]",
          "name": "_claimTimestamp",
          "type": "uint256[]"
        },
        {
          "internalType": "uint256[]",
          "name": "_claimPercent",
          "type": "uint256[]"
        }
      ],
      "name": "setClaimStage",
      "outputs": [],
      "stateMutability": "nonpayable",
      "type": "function"
    },
    {
      "inputs": [
        {
          "internalType": "bool",
          "name": "_pause",
          "type": "bool"
        }
      ],
      "name": "setPause",
      "outputs": [],
      "stateMutability": "nonpayable",
      "type": "function"
    },
    {
      "inputs": [],
      "name": "slotHasBeenBought",
      "outputs": [
        {
          "internalType": "uint256",
          "name": "",
          "type": "uint256"
        }
      ],
      "stateMutability": "view",
      "type": "function"
    },
    {
      "inputs": [],
      "name": "stakeBamiToken",
      "outputs": [],
      "stateMutability": "nonpayable",
      "type": "function"
    },
    {
      "inputs": [],
      "name": "stakePrice",
      "outputs": [
        {
          "internalType": "uint256",
          "name": "",
          "type": "uint256"
        }
      ],
      "stateMutability": "view",
      "type": "function"
    },
    {
      "inputs": [],
      "name": "stakingTimeEnd",
      "outputs": [
        {
          "internalType": "uint256",
          "name": "",
          "type": "uint256"
        }
      ],
      "stateMutability": "view",
      "type": "function"
    },
    {
      "inputs": [],
      "name": "stakingTimeStart",
      "outputs": [
        {
          "internalType": "uint256",
          "name": "",
          "type": "uint256"
        }
      ],
      "stateMutability": "view",
      "type": "function"
    },
    {
      "inputs": [],
      "name": "totalSlots",
      "outputs": [
        {
          "internalType": "uint256",
          "name": "",
          "type": "uint256"
        }
      ],
      "stateMutability": "view",
      "type": "function"
    },
    {
      "inputs": [
        {
          "internalType": "address",
          "name": "newOwner",
          "type": "address"
        }
      ],
      "name": "transferOwnership",
      "outputs": [],
      "stateMutability": "nonpayable",
      "type": "function"
    },
    {
      "inputs": [],
      "name": "unStakeTimeStart",
      "outputs": [
        {
          "internalType": "uint256",
          "name": "",
          "type": "uint256"
        }
      ],
      "stateMutability": "view",
      "type": "function"
    },
    {
      "inputs": [
        {
          "internalType": "address",
          "name": "",
          "type": "address"
        }
      ],
      "name": "userAlreadyStake",
      "outputs": [
        {
          "internalType": "bool",
          "name": "",
          "type": "bool"
        }
      ],
      "stateMutability": "view",
      "type": "function"
    },
    {
      "inputs": [
        {
          "internalType": "address",
          "name": "",
          "type": "address"
        }
      ],
      "name": "userHasBoughtSlot",
      "outputs": [
        {
          "internalType": "bool",
          "name": "",
          "type": "bool"
        }
      ],
      "stateMutability": "view",
      "type": "function"
    },
    {
      "inputs": [
        {
          "internalType": "address",
          "name": "",
          "type": "address"
        }
      ],
      "name": "whitelist",
      "outputs": [
        {
          "internalType": "bool",
          "name": "",
          "type": "bool"
        }
      ],
      "stateMutability": "view",
      "type": "function"
    }
  ],
  "bytecode": "0x60806040523480156200001157600080fd5b5060405162003e3c38038062003e3c83398181016040528101906200003791906200036d565b620000576200004b6200013c60201b60201c565b6200014460201b60201c565b6001808190555082600260006101000a81548173ffffffffffffffffffffffffffffffffffffffff021916908373ffffffffffffffffffffffffffffffffffffffff16021790555081600360006101000a81548173ffffffffffffffffffffffffffffffffffffffff021916908373ffffffffffffffffffffffffffffffffffffffff16021790555080600460006101000a81548173ffffffffffffffffffffffffffffffffffffffff021916908373ffffffffffffffffffffffffffffffffffffffff1602179055506200013360016200020860201b60201c565b5050506200044c565b600033905090565b60008060009054906101000a900473ffffffffffffffffffffffffffffffffffffffff169050816000806101000a81548173ffffffffffffffffffffffffffffffffffffffff021916908373ffffffffffffffffffffffffffffffffffffffff1602179055508173ffffffffffffffffffffffffffffffffffffffff168173ffffffffffffffffffffffffffffffffffffffff167f8be0079c531659141344cd1fd0a4f28419497f9722a3daafe3b4186f6b6457e060405160405180910390a35050565b620002186200023560201b60201c565b80600960006101000a81548160ff02191690831515021790555050565b620002456200013c60201b60201c565b73ffffffffffffffffffffffffffffffffffffffff166200026b620002c660201b60201c565b73ffffffffffffffffffffffffffffffffffffffff1614620002c4576040517f08c379a0000000000000000000000000000000000000000000000000000000008152600401620002bb906200042a565b60405180910390fd5b565b60008060009054906101000a900473ffffffffffffffffffffffffffffffffffffffff16905090565b600080fd5b600073ffffffffffffffffffffffffffffffffffffffff82169050919050565b60006200032182620002f4565b9050919050565b6000620003358262000314565b9050919050565b620003478162000328565b81146200035357600080fd5b50565b60008151905062000367816200033c565b92915050565b600080600060608486031215620003895762000388620002ef565b5b6000620003998682870162000356565b9350506020620003ac8682870162000356565b9250506040620003bf8682870162000356565b9150509250925092565b600082825260208201905092915050565b7f4f776e61626c653a2063616c6c6572206973206e6f7420746865206f776e6572600082015250565b600062000412602083620003c9565b91506200041f82620003da565b602082019050919050565b60006020820190508181036000830152620004458162000403565b9050919050565b6139e0806200045c6000396000f3fe608060405234801561001057600080fd5b50600436106102115760003560e01c80638666b84411610125578063bbf08554116100ad578063e102682b1161007c578063e102682b14610584578063ea903c9e146105a2578063ecc5fc27146105c0578063f2fde38b146105dc578063ff0938a7146105f857610211565b8063bbf08554146104fc578063bedb86fb1461051a578063c42816ae14610536578063ca6527be1461055457610211565b80639cb9a19a116100f45780639cb9a19a14610456578063a023cf6914610472578063a104dc6314610490578063a89b66c7146104c2578063b55a13bc146104e057610211565b80638666b844146103cc5780638da5cb5b146103ea5780639b19251a146104085780639b627a471461043857610211565b80635bde226f116101a857806371c7532e1161017757806371c7532e14610328578063767c9e1a1461035857806381022cf81461038857806382bcb4f6146103925780638544c22c146103b057610211565b80635bde226f146102c85780635deeadd2146102e657806368092bd914610302578063715018a61461031e57610211565b806336541c8e116101e457806336541c8e146102525780634bfb5433146102705780634e2ae27e1461028e5780635b8c058b146102ac57610211565b80631e82433f14610216578063269b6346146102205780632cb3d0851461022a5780633265190614610234575b600080fd5b61021e610616565b005b6102286109d4565b005b610232610dc7565b005b61023c611425565b6040516102499190612552565b60405180910390f35b61025a61142b565b60405161026791906125ec565b60405180910390f35b610278611451565b60405161028591906125ec565b60405180910390f35b610296611477565b6040516102a39190612552565b60405180910390f35b6102c660048036038101906102c19190612647565b61147d565b005b6102d06114f1565b6040516102dd9190612552565b60405180910390f35b61030060048036038101906102fb91906126c2565b6114f7565b005b61031c600480360381019061031791906127c5565b611531565b005b610326611594565b005b610342600480360381019061033d9190612805565b6115a8565b60405161034f9190612552565b60405180910390f35b610372600480360381019061036d9190612805565b6115c0565b60405161037f9190612841565b60405180910390f35b6103906115e0565b005b61039a6119cf565b6040516103a79190612552565b60405180910390f35b6103ca60048036038101906103c591906129b5565b6119d5565b005b6103d4611a72565b6040516103e19190612552565b60405180910390f35b6103f2611a78565b6040516103ff9190612a0d565b60405180910390f35b610422600480360381019061041d9190612805565b611aa1565b60405161042f9190612841565b60405180910390f35b610440611ac1565b60405161044d9190612552565b60405180910390f35b610470600480360381019061046b9190612a66565b611ac7565b005b61047a611c0c565b6040516104879190612552565b60405180910390f35b6104aa60048036038101906104a59190612aa6565b611c12565b6040516104b993929190612ad3565b60405180910390f35b6104ca611c4c565b6040516104d79190612552565b60405180910390f35b6104fa60048036038101906104f59190612b65565b611c52565b005b610504611d35565b6040516105119190612552565b60405180910390f35b610534600480360381019061052f9190612be6565b611d3b565b005b61053e611d60565b60405161054b9190612552565b60405180910390f35b61056e60048036038101906105699190612805565b611d66565b60405161057b9190612841565b60405180910390f35b61058c611d86565b6040516105999190612552565b60405180910390f35b6105aa611d8c565b6040516105b791906125ec565b60405180910390f35b6105da60048036038101906105d59190612c13565b611db2565b005b6105f660048036038101906105f19190612805565b611fb6565b005b610600612039565b60405161060d9190612841565b60405180910390f35b61061e61204c565b600260009054906101000a900473ffffffffffffffffffffffffffffffffffffffff1673ffffffffffffffffffffffffffffffffffffffff1663a9059cbb33600260009054906101000a900473ffffffffffffffffffffffffffffffffffffffff1673ffffffffffffffffffffffffffffffffffffffff166370a08231306040518263ffffffff1660e01b81526004016106b89190612a0d565b602060405180830381865afa1580156106d5573d6000803e3d6000fd5b505050506040513d601f19601f820116820180604052508101906106f99190612c68565b6040518363ffffffff1660e01b8152600401610716929190612c95565b6020604051808303816000875af1158015610735573d6000803e3d6000fd5b505050506040513d601f19601f820116820180604052508101906107599190612cd3565b50600360009054906101000a900473ffffffffffffffffffffffffffffffffffffffff1673ffffffffffffffffffffffffffffffffffffffff1663a9059cbb33600360009054906101000a900473ffffffffffffffffffffffffffffffffffffffff1673ffffffffffffffffffffffffffffffffffffffff166370a08231306040518263ffffffff1660e01b81526004016107f49190612a0d565b602060405180830381865afa158015610811573d6000803e3d6000fd5b505050506040513d601f19601f820116820180604052508101906108359190612c68565b6040518363ffffffff1660e01b8152600401610852929190612c95565b6020604051808303816000875af1158015610871573d6000803e3d6000fd5b505050506040513d601f19601f820116820180604052508101906108959190612cd3565b50600460009054906101000a900473ffffffffffffffffffffffffffffffffffffffff1673ffffffffffffffffffffffffffffffffffffffff1663a9059cbb33600460009054906101000a900473ffffffffffffffffffffffffffffffffffffffff1673ffffffffffffffffffffffffffffffffffffffff166370a08231306040518263ffffffff1660e01b81526004016109309190612a0d565b602060405180830381865afa15801561094d573d6000803e3d6000fd5b505050506040513d601f19601f820116820180604052508101906109719190612c68565b6040518363ffffffff1660e01b815260040161098e929190612c95565b6020604051808303816000875af11580156109ad573d6000803e3d6000fd5b505050506040513d601f19601f820116820180604052508101906109d19190612cd3565b50565b600260015403610a19576040517f08c379a0000000000000000000000000000000000000000000000000000000008152600401610a1090612d5d565b60405180910390fd5b6002600181905550600960009054906101000a900460ff1615610a71576040517f08c379a0000000000000000000000000000000000000000000000000000000008152600401610a6890612dc9565b60405180910390fd5b600860003373ffffffffffffffffffffffffffffffffffffffff1673ffffffffffffffffffffffffffffffffffffffff16815260200190815260200160002060009054906101000a900460ff16610afd576040517f08c379a0000000000000000000000000000000000000000000000000000000008152600401610af490612e35565b60405180910390fd5b600660003373ffffffffffffffffffffffffffffffffffffffff1673ffffffffffffffffffffffffffffffffffffffff16815260200190815260200160002060009054906101000a900460ff16610b89576040517f08c379a0000000000000000000000000000000000000000000000000000000008152600401610b8090612ea1565b60405180910390fd5b6000429050601580549050600760003373ffffffffffffffffffffffffffffffffffffffff1673ffffffffffffffffffffffffffffffffffffffff1681526020019081526020016000205410610c14576040517f08c379a0000000000000000000000000000000000000000000000000000000008152600401610c0b90612f33565b60405180910390fd5b60006015600760003373ffffffffffffffffffffffffffffffffffffffff1673ffffffffffffffffffffffffffffffffffffffff1681526020019081526020016000205481548110610c6957610c68612f53565b5b9060005260206000209060030201604051806060016040529081600082015481526020016001820154815260200160028201548152505090508060400151821015610ce9576040517f08c379a0000000000000000000000000000000000000000000000000000000008152600401610ce090612fce565b60405180910390fd5b600760003373ffffffffffffffffffffffffffffffffffffffff1673ffffffffffffffffffffffffffffffffffffffff1681526020019081526020016000206000815480929190610d399061301d565b91905055506000610d6c6064610d5e600d5485602001516120ca90919063ffffffff16565b6120e090919063ffffffff16565b9050610dbb3382600460009054906101000a900473ffffffffffffffffffffffffffffffffffffffff1673ffffffffffffffffffffffffffffffffffffffff166120f69092919063ffffffff16565b50505060018081905550565b600260015403610e0c576040517f08c379a0000000000000000000000000000000000000000000000000000000008152600401610e0390612d5d565b60405180910390fd5b6002600181905550600960009054906101000a900460ff1615610e64576040517f08c379a0000000000000000000000000000000000000000000000000000000008152600401610e5b90612dc9565b60405180910390fd5b600860003373ffffffffffffffffffffffffffffffffffffffff1673ffffffffffffffffffffffffffffffffffffffff16815260200190815260200160002060009054906101000a900460ff16610ef0576040517f08c379a0000000000000000000000000000000000000000000000000000000008152600401610ee790612e35565b60405180910390fd5b6013544211158015610f0457506012544210155b610f43576040517f08c379a0000000000000000000000000000000000000000000000000000000008152600401610f3a906130b1565b60405180910390fd5b600e54600f5410610f89576040517f08c379a0000000000000000000000000000000000000000000000000000000008152600401610f809061311d565b60405180910390fd5b600560003373ffffffffffffffffffffffffffffffffffffffff1673ffffffffffffffffffffffffffffffffffffffff16815260200190815260200160002060009054906101000a900460ff16611015576040517f08c379a000000000000000000000000000000000000000000000000000000000815260040161100c90613189565b60405180910390fd5b600660003373ffffffffffffffffffffffffffffffffffffffff1673ffffffffffffffffffffffffffffffffffffffff16815260200190815260200160002060009054906101000a900460ff16156110a2576040517f08c379a0000000000000000000000000000000000000000000000000000000008152600401611099906131f5565b60405180910390fd5b600a54600260009054906101000a900473ffffffffffffffffffffffffffffffffffffffff1673ffffffffffffffffffffffffffffffffffffffff166370a08231336040518263ffffffff1660e01b81526004016111009190612a0d565b602060405180830381865afa15801561111d573d6000803e3d6000fd5b505050506040513d601f19601f820116820180604052508101906111419190612c68565b1015611182576040517f08c379a000000000000000000000000000000000000000000000000000000000815260040161117990613261565b60405180910390fd5b600b54600360009054906101000a900473ffffffffffffffffffffffffffffffffffffffff1673ffffffffffffffffffffffffffffffffffffffff166370a08231336040518263ffffffff1660e01b81526004016111e09190612a0d565b602060405180830381865afa1580156111fd573d6000803e3d6000fd5b505050506040513d601f19601f820116820180604052508101906112219190612c68565b1015611262576040517f08c379a0000000000000000000000000000000000000000000000000000000008152600401611259906132cd565b60405180910390fd5b600260009054906101000a900473ffffffffffffffffffffffffffffffffffffffff1673ffffffffffffffffffffffffffffffffffffffff166323b872dd3330600a546040518463ffffffff1660e01b81526004016112c3939291906132ed565b6020604051808303816000875af11580156112e2573d6000803e3d6000fd5b505050506040513d601f19601f820116820180604052508101906113069190612cd3565b50600360009054906101000a900473ffffffffffffffffffffffffffffffffffffffff1673ffffffffffffffffffffffffffffffffffffffff166323b872dd3330600b546040518463ffffffff1660e01b8152600401611368939291906132ed565b6020604051808303816000875af1158015611387573d6000803e3d6000fd5b505050506040513d601f19601f820116820180604052508101906113ab9190612cd3565b506001600660003373ffffffffffffffffffffffffffffffffffffffff1673ffffffffffffffffffffffffffffffffffffffff16815260200190815260200160002060006101000a81548160ff021916908315150217905550600f60008154809291906114179061301d565b919050555060018081905550565b600e5481565b600260009054906101000a900473ffffffffffffffffffffffffffffffffffffffff1681565b600460009054906101000a900473ffffffffffffffffffffffffffffffffffffffff1681565b600a5481565b61148561204c565b8385106114c7576040517f08c379a00000000000000000000000000000000000000000000000000000000081526004016114be90613370565b60405180910390fd5b84601081905550836011819055508260128190555081601381905550806014819055505050505050565b600d5481565b6114ff61204c565b85600c8190555082600a8190555081600b8190555080600d8190555084600e8190555083600f81905550505050505050565b61153961204c565b80600860008473ffffffffffffffffffffffffffffffffffffffff1673ffffffffffffffffffffffffffffffffffffffff16815260200190815260200160002060006101000a81548160ff0219169083151502179055505050565b61159c61204c565b6115a6600061217c565b565b60076020528060005260406000206000915090505481565b60066020528060005260406000206000915054906101000a900460ff1681565b600260015403611625576040517f08c379a000000000000000000000000000000000000000000000000000000000815260040161161c90612d5d565b60405180910390fd5b6002600181905550600960009054906101000a900460ff161561167d576040517f08c379a000000000000000000000000000000000000000000000000000000000815260040161167490612dc9565b60405180910390fd5b600860003373ffffffffffffffffffffffffffffffffffffffff1673ffffffffffffffffffffffffffffffffffffffff16815260200190815260200160002060009054906101000a900460ff16611709576040517f08c379a000000000000000000000000000000000000000000000000000000000815260040161170090612e35565b60405180910390fd5b601154421115801561171d57506010544210155b61175c576040517f08c379a0000000000000000000000000000000000000000000000000000000008152600401611753906133dc565b60405180910390fd5b600560003373ffffffffffffffffffffffffffffffffffffffff1673ffffffffffffffffffffffffffffffffffffffff16815260200190815260200160002060009054906101000a900460ff16156117e9576040517f08c379a00000000000000000000000000000000000000000000000000000000081526004016117e090613448565b60405180910390fd5b600c54600260009054906101000a900473ffffffffffffffffffffffffffffffffffffffff1673ffffffffffffffffffffffffffffffffffffffff166370a08231336040518263ffffffff1660e01b81526004016118479190612a0d565b602060405180830381865afa158015611864573d6000803e3d6000fd5b505050506040513d601f19601f820116820180604052508101906118889190612c68565b10156118c9576040517f08c379a00000000000000000000000000000000000000000000000000000000081526004016118c0906134da565b60405180910390fd5b600260009054906101000a900473ffffffffffffffffffffffffffffffffffffffff1673ffffffffffffffffffffffffffffffffffffffff166323b872dd3330600c546040518463ffffffff1660e01b815260040161192a939291906132ed565b6020604051808303816000875af1158015611949573d6000803e3d6000fd5b505050506040513d601f19601f8201168201806040525081019061196d9190612cd3565b506001600560003373ffffffffffffffffffffffffffffffffffffffff1673ffffffffffffffffffffffffffffffffffffffff16815260200190815260200160002060006101000a81548160ff02191690831515021790555060018081905550565b60135481565b6119dd61204c565b60005b8151811015611a6e57600160086000848481518110611a0257611a01612f53565b5b602002602001015173ffffffffffffffffffffffffffffffffffffffff1673ffffffffffffffffffffffffffffffffffffffff16815260200190815260200160002060006101000a81548160ff0219169083151502179055508080611a669061301d565b9150506119e0565b5050565b600b5481565b60008060009054906101000a900473ffffffffffffffffffffffffffffffffffffffff16905090565b60086020528060005260406000206000915054906101000a900460ff1681565b60115481565b611acf61204c565b60008210158015611ae1575060028211155b611b20576040517f08c379a0000000000000000000000000000000000000000000000000000000008152600401611b179061356c565b60405180910390fd5b60008203611b6e5780600260006101000a81548173ffffffffffffffffffffffffffffffffffffffff021916908373ffffffffffffffffffffffffffffffffffffffff160217905550611c08565b60018203611bbc5780600360006101000a81548173ffffffffffffffffffffffffffffffffffffffff021916908373ffffffffffffffffffffffffffffffffffffffff160217905550611c07565b60028203611c065780600460006101000a81548173ffffffffffffffffffffffffffffffffffffffff021916908373ffffffffffffffffffffffffffffffffffffffff1602179055505b5b5b5050565b600c5481565b60158181548110611c2257600080fd5b90600052602060002090600302016000915090508060000154908060010154908060020154905083565b60105481565b611c5a61204c565b60156000611c6891906124c5565b60005b84849050811015611d2e57611c7e6124e9565b81816000018181525050838383818110611c9b57611c9a612f53565b5b90506020020135816020018181525050858583818110611cbe57611cbd612f53565b5b9050602002013581604001818152505060158190806001815401808255809150506001900390600052602060002090600302016000909190919091506000820151816000015560208201518160010155604082015181600201555050508080611d269061301d565b915050611c6b565b5050505050565b60145481565b611d4361204c565b80600960006101000a81548160ff02191690831515021790555050565b600f5481565b60056020528060005260406000206000915054906101000a900460ff1681565b60125481565b600360009054906101000a900473ffffffffffffffffffffffffffffffffffffffff1681565b611dba61204c565b60008203611e1457611e0f3382600260009054906101000a900473ffffffffffffffffffffffffffffffffffffffff1673ffffffffffffffffffffffffffffffffffffffff166120f69092919063ffffffff16565b611fb2565b60018203611e6e57611e693382600360009054906101000a900473ffffffffffffffffffffffffffffffffffffffff1673ffffffffffffffffffffffffffffffffffffffff166120f69092919063ffffffff16565b611fb1565b60028203611ec857611ec33382600460009054906101000a900473ffffffffffffffffffffffffffffffffffffffff1673ffffffffffffffffffffffffffffffffffffffff166120f69092919063ffffffff16565b611fb0565b611f153382600260009054906101000a900473ffffffffffffffffffffffffffffffffffffffff1673ffffffffffffffffffffffffffffffffffffffff166120f69092919063ffffffff16565b611f623382600360009054906101000a900473ffffffffffffffffffffffffffffffffffffffff1673ffffffffffffffffffffffffffffffffffffffff166120f69092919063ffffffff16565b611faf3382600460009054906101000a900473ffffffffffffffffffffffffffffffffffffffff1673ffffffffffffffffffffffffffffffffffffffff166120f69092919063ffffffff16565b5b5b5b5050565b611fbe61204c565b600073ffffffffffffffffffffffffffffffffffffffff168173ffffffffffffffffffffffffffffffffffffffff160361202d576040517f08c379a0000000000000000000000000000000000000000000000000000000008152600401612024906135fe565b60405180910390fd5b6120368161217c565b50565b600960009054906101000a900460ff1681565b612054612240565b73ffffffffffffffffffffffffffffffffffffffff16612072611a78565b73ffffffffffffffffffffffffffffffffffffffff16146120c8576040517f08c379a00000000000000000000000000000000000000000000000000000000081526004016120bf9061366a565b60405180910390fd5b565b600081836120d8919061368a565b905092915050565b600081836120ee91906136fb565b905092915050565b6121778363a9059cbb60e01b8484604051602401612115929190612c95565b604051602081830303815290604052907bffffffffffffffffffffffffffffffffffffffffffffffffffffffff19166020820180517bffffffffffffffffffffffffffffffffffffffffffffffffffffffff8381831617835250505050612248565b505050565b60008060009054906101000a900473ffffffffffffffffffffffffffffffffffffffff169050816000806101000a81548173ffffffffffffffffffffffffffffffffffffffff021916908373ffffffffffffffffffffffffffffffffffffffff1602179055508173ffffffffffffffffffffffffffffffffffffffff168173ffffffffffffffffffffffffffffffffffffffff167f8be0079c531659141344cd1fd0a4f28419497f9722a3daafe3b4186f6b6457e060405160405180910390a35050565b600033905090565b60006122aa826040518060400160405280602081526020017f5361666545524332303a206c6f772d6c6576656c2063616c6c206661696c65648152508573ffffffffffffffffffffffffffffffffffffffff1661230f9092919063ffffffff16565b905060008151111561230a57808060200190518101906122ca9190612cd3565b612309576040517f08c379a00000000000000000000000000000000000000000000000000000000081526004016123009061379e565b60405180910390fd5b5b505050565b606061231e8484600085612327565b90509392505050565b60608247101561236c576040517f08c379a000000000000000000000000000000000000000000000000000000000815260040161236390613830565b60405180910390fd5b6123758561243b565b6123b4576040517f08c379a00000000000000000000000000000000000000000000000000000000081526004016123ab9061389c565b60405180910390fd5b6000808673ffffffffffffffffffffffffffffffffffffffff1685876040516123dd919061392d565b60006040518083038185875af1925050503d806000811461241a576040519150601f19603f3d011682016040523d82523d6000602084013e61241f565b606091505b509150915061242f82828661245e565b92505050949350505050565b6000808273ffffffffffffffffffffffffffffffffffffffff163b119050919050565b6060831561246e578290506124be565b6000835111156124815782518084602001fd5b816040517f08c379a00000000000000000000000000000000000000000000000000000000081526004016124b59190613988565b60405180910390fd5b9392505050565b50805460008255600302906000526020600020908101906124e6919061250a565b50565b60405180606001604052806000815260200160008152602001600081525090565b5b8082111561253557600080820160009055600182016000905560028201600090555060030161250b565b5090565b6000819050919050565b61254c81612539565b82525050565b60006020820190506125676000830184612543565b92915050565b600073ffffffffffffffffffffffffffffffffffffffff82169050919050565b6000819050919050565b60006125b26125ad6125a88461256d565b61258d565b61256d565b9050919050565b60006125c482612597565b9050919050565b60006125d6826125b9565b9050919050565b6125e6816125cb565b82525050565b600060208201905061260160008301846125dd565b92915050565b6000604051905090565b600080fd5b600080fd5b61262481612539565b811461262f57600080fd5b50565b6000813590506126418161261b565b92915050565b600080600080600060a0868803121561266357612662612611565b5b600061267188828901612632565b955050602061268288828901612632565b945050604061269388828901612632565b93505060606126a488828901612632565b92505060806126b588828901612632565b9150509295509295909350565b60008060008060008060c087890312156126df576126de612611565b5b60006126ed89828a01612632565b96505060206126fe89828a01612632565b955050604061270f89828a01612632565b945050606061272089828a01612632565b935050608061273189828a01612632565b92505060a061274289828a01612632565b9150509295509295509295565b600061275a8261256d565b9050919050565b61276a8161274f565b811461277557600080fd5b50565b60008135905061278781612761565b92915050565b60008115159050919050565b6127a28161278d565b81146127ad57600080fd5b50565b6000813590506127bf81612799565b92915050565b600080604083850312156127dc576127db612611565b5b60006127ea85828601612778565b92505060206127fb858286016127b0565b9150509250929050565b60006020828403121561281b5761281a612611565b5b600061282984828501612778565b91505092915050565b61283b8161278d565b82525050565b60006020820190506128566000830184612832565b92915050565b600080fd5b6000601f19601f8301169050919050565b7f4e487b7100000000000000000000000000000000000000000000000000000000600052604160045260246000fd5b6128aa82612861565b810181811067ffffffffffffffff821117156128c9576128c8612872565b5b80604052505050565b60006128dc612607565b90506128e882826128a1565b919050565b600067ffffffffffffffff82111561290857612907612872565b5b602082029050602081019050919050565b600080fd5b600061293161292c846128ed565b6128d2565b9050808382526020820190506020840283018581111561295457612953612919565b5b835b8181101561297d57806129698882612778565b845260208401935050602081019050612956565b5050509392505050565b600082601f83011261299c5761299b61285c565b5b81356129ac84826020860161291e565b91505092915050565b6000602082840312156129cb576129ca612611565b5b600082013567ffffffffffffffff8111156129e9576129e8612616565b5b6129f584828501612987565b91505092915050565b612a078161274f565b82525050565b6000602082019050612a2260008301846129fe565b92915050565b6000612a338261274f565b9050919050565b612a4381612a28565b8114612a4e57600080fd5b50565b600081359050612a6081612a3a565b92915050565b60008060408385031215612a7d57612a7c612611565b5b6000612a8b85828601612632565b9250506020612a9c85828601612a51565b9150509250929050565b600060208284031215612abc57612abb612611565b5b6000612aca84828501612632565b91505092915050565b6000606082019050612ae86000830186612543565b612af56020830185612543565b612b026040830184612543565b949350505050565b600080fd5b60008083601f840112612b2557612b2461285c565b5b8235905067ffffffffffffffff811115612b4257612b41612b0a565b5b602083019150836020820283011115612b5e57612b5d612919565b5b9250929050565b60008060008060408587031215612b7f57612b7e612611565b5b600085013567ffffffffffffffff811115612b9d57612b9c612616565b5b612ba987828801612b0f565b9450945050602085013567ffffffffffffffff811115612bcc57612bcb612616565b5b612bd887828801612b0f565b925092505092959194509250565b600060208284031215612bfc57612bfb612611565b5b6000612c0a848285016127b0565b91505092915050565b60008060408385031215612c2a57612c29612611565b5b6000612c3885828601612632565b9250506020612c4985828601612632565b9150509250929050565b600081519050612c628161261b565b92915050565b600060208284031215612c7e57612c7d612611565b5b6000612c8c84828501612c53565b91505092915050565b6000604082019050612caa60008301856129fe565b612cb76020830184612543565b9392505050565b600081519050612ccd81612799565b92915050565b600060208284031215612ce957612ce8612611565b5b6000612cf784828501612cbe565b91505092915050565b600082825260208201905092915050565b7f5265656e7472616e637947756172643a207265656e7472616e742063616c6c00600082015250565b6000612d47601f83612d00565b9150612d5282612d11565b602082019050919050565b60006020820190508181036000830152612d7681612d3a565b9050919050565b7f536d61727420636f6e7472616374206973207061757365640000000000000000600082015250565b6000612db3601883612d00565b9150612dbe82612d7d565b602082019050919050565b60006020820190508181036000830152612de281612da6565b9050919050565b7f596f7520617265206f6e20626c61636b6c697374000000000000000000000000600082015250565b6000612e1f601483612d00565b9150612e2a82612de9565b602082019050919050565b60006020820190508181036000830152612e4e81612e12565b9050919050565b7f596f7520686176656e277420626f7567687420736c6f74000000000000000000600082015250565b6000612e8b601783612d00565b9150612e9682612e55565b602082019050919050565b60006020820190508181036000830152612eba81612e7e565b9050919050565b7f596f75206861766520636c61696d656420616c6c206f6620796f757220746f6b60008201527f656e730000000000000000000000000000000000000000000000000000000000602082015250565b6000612f1d602383612d00565b9150612f2882612ec1565b604082019050919050565b60006020820190508181036000830152612f4c81612f10565b9050919050565b7f4e487b7100000000000000000000000000000000000000000000000000000000600052603260045260246000fd5b7f436c61696d2074696d65206973206e6f74207374617274656400000000000000600082015250565b6000612fb8601983612d00565b9150612fc382612f82565b602082019050919050565b60006020820190508181036000830152612fe781612fab565b9050919050565b7f4e487b7100000000000000000000000000000000000000000000000000000000600052601160045260246000fd5b600061302882612539565b91507fffffffffffffffffffffffffffffffffffffffffffffffffffffffffffffffff820361305a57613059612fee565b5b600182019050919050565b7f496e76616c69642062757920736c6f742074696d650000000000000000000000600082015250565b600061309b601583612d00565b91506130a682613065565b602082019050919050565b600060208201905081810360008301526130ca8161308e565b9050919050565b7f4f7574206f6620736c6f74730000000000000000000000000000000000000000600082015250565b6000613107600c83612d00565b9150613112826130d1565b602082019050919050565b60006020820190508181036000830152613136816130fa565b9050919050565b7f596f7520686176656e2774207374616b65640000000000000000000000000000600082015250565b6000613173601283612d00565b915061317e8261313d565b602082019050919050565b600060208201905081810360008301526131a281613166565b9050919050565b7f596f7520616c726561647920626f7567687420736c6f74000000000000000000600082015250565b60006131df601783612d00565b91506131ea826131a9565b602082019050919050565b6000602082019050818103600083015261320e816131d2565b9050919050565b7f596f7520646f6e2774206861766520656e6f7567682042414d49000000000000600082015250565b600061324b601a83612d00565b915061325682613215565b602082019050919050565b6000602082019050818103600083015261327a8161323e565b9050919050565b7f596f7520646f6e2774206861766520656e6f7567682042555344000000000000600082015250565b60006132b7601a83612d00565b91506132c282613281565b602082019050919050565b600060208201905081810360008301526132e6816132aa565b9050919050565b600060608201905061330260008301866129fe565b61330f60208301856129fe565b61331c6040830184612543565b949350505050565b7f496e76616c6964207374616b696e672074696d6520696e707574000000000000600082015250565b600061335a601a83612d00565b915061336582613324565b602082019050919050565b600060208201905081810360008301526133898161334d565b9050919050565b7f496e76616c6964207374616b696e672074696d65000000000000000000000000600082015250565b60006133c6601483612d00565b91506133d182613390565b602082019050919050565b600060208201905081810360008301526133f5816133b9565b9050919050565b7f596f7520616c7265616479207374616b65640000000000000000000000000000600082015250565b6000613432601283612d00565b915061343d826133fc565b602082019050919050565b6000602082019050818103600083015261346181613425565b9050919050565b7f596f7572206163636f756e7420646f65736e2774206861766520656e6f75676860008201527f2042616d6920746f6b656e20746f207374616b65000000000000000000000000602082015250565b60006134c4603483612d00565b91506134cf82613468565b604082019050919050565b600060208201905081810360008301526134f3816134b7565b9050919050565b7f496e707574203020666f722042616d692c203120666f7220425553442c20322060008201527f666f72204865736d616e00000000000000000000000000000000000000000000602082015250565b6000613556602a83612d00565b9150613561826134fa565b604082019050919050565b6000602082019050818103600083015261358581613549565b9050919050565b7f4f776e61626c653a206e6577206f776e657220697320746865207a65726f206160008201527f6464726573730000000000000000000000000000000000000000000000000000602082015250565b60006135e8602683612d00565b91506135f38261358c565b604082019050919050565b60006020820190508181036000830152613617816135db565b9050919050565b7f4f776e61626c653a2063616c6c6572206973206e6f7420746865206f776e6572600082015250565b6000613654602083612d00565b915061365f8261361e565b602082019050919050565b6000602082019050818103600083015261368381613647565b9050919050565b600061369582612539565b91506136a083612539565b92508282026136ae81612539565b915082820484148315176136c5576136c4612fee565b5b5092915050565b7f4e487b7100000000000000000000000000000000000000000000000000000000600052601260045260246000fd5b600061370682612539565b915061371183612539565b925082613721576137206136cc565b5b828204905092915050565b7f5361666545524332303a204552433230206f7065726174696f6e20646964206e60008201527f6f74207375636365656400000000000000000000000000000000000000000000602082015250565b6000613788602a83612d00565b91506137938261372c565b604082019050919050565b600060208201905081810360008301526137b78161377b565b9050919050565b7f416464726573733a20696e73756666696369656e742062616c616e636520666f60008201527f722063616c6c0000000000000000000000000000000000000000000000000000602082015250565b600061381a602683612d00565b9150613825826137be565b604082019050919050565b600060208201905081810360008301526138498161380d565b9050919050565b7f416464726573733a2063616c6c20746f206e6f6e2d636f6e7472616374000000600082015250565b6000613886601d83612d00565b915061389182613850565b602082019050919050565b600060208201905081810360008301526138b581613879565b9050919050565b600081519050919050565b600081905092915050565b60005b838110156138f05780820151818401526020810190506138d5565b60008484015250505050565b6000613907826138bc565b61391181856138c7565b93506139218185602086016138d2565b80840191505092915050565b600061393982846138fc565b915081905092915050565b600081519050919050565b600061395a82613944565b6139648185612d00565b93506139748185602086016138d2565b61397d81612861565b840191505092915050565b600060208201905081810360008301526139a2818461394f565b90509291505056fea2646970667358221220aa511eec0416523ff16f39e40bb4da4ba3e9ce2b04c4a1cfc8df2b037cc1bf4464736f6c63430008110033",
  "linkReferences": {},
  "deployedLinkReferences": {}
}