{
  "_format": "hh-sol-artifact-1",
  "contractName": "Pool1",
  "sourceName": "Contracts/Pool1.sol",
  "abi": [
    {
      "inputs": [
        {
          "internalType": "contract ERC20",
          "name": "_bamiTokenAddress",
          "type": "address"
        },
        {
          "internalType": "contract ERC20",
          "name": "_BUSDTokenAddress",
          "type": "address"
        },
        {
          "internalType": "contract ERC20",
          "name": "_hesmanTokenAddress",
          "type": "address"
        }
      ],
      "stateMutability": "nonpayable",
      "type": "constructor"
    },
    {
      "anonymous": false,
      "inputs": [
        {
          "indexed": true,
          "internalType": "address",
          "name": "previousOwner",
          "type": "address"
        },
        {
          "indexed": true,
          "internalType": "address",
          "name": "newOwner",
          "type": "address"
        }
      ],
      "name": "OwnershipTransferred",
      "type": "event"
    },
    {
      "inputs": [],
      "name": "BUSDToBuySlot",
      "outputs": [
        {
          "internalType": "uint256",
          "name": "",
          "type": "uint256"
        }
      ],
      "stateMutability": "view",
      "type": "function"
    },
    {
      "inputs": [],
      "name": "BUSDTokenAddress",
      "outputs": [
        {
          "internalType": "contract ERC20",
          "name": "",
          "type": "address"
        }
      ],
      "stateMutability": "view",
      "type": "function"
    },
    {
      "inputs": [],
      "name": "BamiStakingLimit",
      "outputs": [
        {
          "internalType": "uint256",
          "name": "",
          "type": "uint256"
        }
      ],
      "stateMutability": "view",
      "type": "function"
    },
    {
      "inputs": [],
      "name": "BamiToBuySlot",
      "outputs": [
        {
          "internalType": "uint256",
          "name": "",
          "type": "uint256"
        }
      ],
      "stateMutability": "view",
      "type": "function"
    },
    {
      "inputs": [
        {
          "internalType": "uint256",
          "name": "",
          "type": "uint256"
        }
      ],
      "name": "ClaimStageList",
      "outputs": [
        {
          "internalType": "uint256",
          "name": "claimIndex",
          "type": "uint256"
        },
        {
          "internalType": "uint256",
          "name": "claimPercent",
          "type": "uint256"
        },
        {
          "internalType": "uint256",
          "name": "claimTimestamp",
          "type": "uint256"
        }
      ],
      "stateMutability": "view",
      "type": "function"
    },
    {
      "inputs": [],
      "name": "EmergencyWithdrawAllToken",
      "outputs": [],
      "stateMutability": "nonpayable",
      "type": "function"
    },
    {
      "inputs": [],
      "name": "bamiTokenAddress",
      "outputs": [
        {
          "internalType": "contract ERC20",
          "name": "",
          "type": "address"
        }
      ],
      "stateMutability": "view",
      "type": "function"
    },
    {
      "inputs": [
        {
          "internalType": "address",
          "name": "",
          "type": "address"
        }
      ],
      "name": "blacklist",
      "outputs": [
        {
          "internalType": "bool",
          "name": "",
          "type": "bool"
        }
      ],
      "stateMutability": "view",
      "type": "function"
    },
    {
      "inputs": [],
      "name": "buySlot",
      "outputs": [],
      "stateMutability": "nonpayable",
      "type": "function"
    },
    {
      "inputs": [],
      "name": "buySlotTimeEnd",
      "outputs": [
        {
          "internalType": "uint256",
          "name": "",
          "type": "uint256"
        }
      ],
      "stateMutability": "view",
      "type": "function"
    },
    {
      "inputs": [],
      "name": "buySlotTimeStart",
      "outputs": [
        {
          "internalType": "uint256",
          "name": "",
          "type": "uint256"
        }
      ],
      "stateMutability": "view",
      "type": "function"
    },
    {
      "inputs": [
        {
          "internalType": "uint256",
          "name": "_options",
          "type": "uint256"
        },
        {
          "internalType": "contract ERC20",
          "name": "_tokenAddress",
          "type": "address"
        }
      ],
      "name": "changeTokenAddress",
      "outputs": [],
      "stateMutability": "nonpayable",
      "type": "function"
    },
    {
      "inputs": [],
      "name": "claimHesman",
      "outputs": [],
      "stateMutability": "nonpayable",
      "type": "function"
    },
    {
      "inputs": [
        {
          "internalType": "uint256",
          "name": "_stakePrice",
          "type": "uint256"
        },
        {
          "internalType": "uint256",
          "name": "_totalSlots",
          "type": "uint256"
        },
        {
          "internalType": "uint256",
          "name": "_slotHasBeenBought",
          "type": "uint256"
        },
        {
          "internalType": "uint256",
          "name": "_BamiToBuySlot",
          "type": "uint256"
        },
        {
          "internalType": "uint256",
          "name": "_BUSDToBuySlot",
          "type": "uint256"
        },
        {
          "internalType": "uint256",
          "name": "_hesmanPerSlot",
          "type": "uint256"
        }
      ],
      "name": "configPriceAndSlot",
      "outputs": [],
      "stateMutability": "nonpayable",
      "type": "function"
    },
    {
      "inputs": [
        {
          "internalType": "uint256",
          "name": "_stakingTimeStart",
          "type": "uint256"
        },
        {
          "internalType": "uint256",
          "name": "_stakingTimeEnd",
          "type": "uint256"
        },
        {
          "internalType": "uint256",
          "name": "_buySlotTimeStart",
          "type": "uint256"
        },
        {
          "internalType": "uint256",
          "name": "_buySlotTimeEnd",
          "type": "uint256"
        },
        {
          "internalType": "uint256",
          "name": "_unStakeTimeStart",
          "type": "uint256"
        }
      ],
      "name": "configTimer",
      "outputs": [],
      "stateMutability": "nonpayable",
      "type": "function"
    },
    {
      "inputs": [],
      "name": "hesmanPerSlot",
      "outputs": [
        {
          "internalType": "uint256",
          "name": "",
          "type": "uint256"
        }
      ],
      "stateMutability": "view",
      "type": "function"
    },
    {
      "inputs": [],
      "name": "hesmanTokenAddress",
      "outputs": [
        {
          "internalType": "contract ERC20",
          "name": "",
          "type": "address"
        }
      ],
      "stateMutability": "view",
      "type": "function"
    },
    {
      "inputs": [],
      "name": "isPause",
      "outputs": [
        {
          "internalType": "bool",
          "name": "",
          "type": "bool"
        }
      ],
      "stateMutability": "view",
      "type": "function"
    },
    {
      "inputs": [
        {
          "internalType": "address",
          "name": "",
          "type": "address"
        }
      ],
      "name": "nextStageIndex",
      "outputs": [
        {
          "internalType": "uint256",
          "name": "",
          "type": "uint256"
        }
      ],
      "stateMutability": "view",
      "type": "function"
    },
    {
      "inputs": [],
      "name": "owner",
      "outputs": [
        {
          "internalType": "address",
          "name": "",
          "type": "address"
        }
      ],
      "stateMutability": "view",
      "type": "function"
    },
    {
      "inputs": [
        {
          "internalType": "uint256",
          "name": "_options",
          "type": "uint256"
        },
        {
          "internalType": "uint256",
          "name": "_amount",
          "type": "uint256"
        }
      ],
      "name": "ownerWithdrawToken",
      "outputs": [],
      "stateMutability": "nonpayable",
      "type": "function"
    },
    {
      "inputs": [],
      "name": "renounceOwnership",
      "outputs": [],
      "stateMutability": "nonpayable",
      "type": "function"
    },
    {
      "inputs": [
        {
          "internalType": "address",
          "name": "_address",
          "type": "address"
        },
        {
          "internalType": "bool",
          "name": "_isBlackList",
          "type": "bool"
        }
      ],
      "name": "setBlackList",
      "outputs": [],
      "stateMutability": "nonpayable",
      "type": "function"
    },
    {
      "inputs": [
        {
          "internalType": "uint256[]",
          "name": "_claimTimestamp",
          "type": "uint256[]"
        },
        {
          "internalType": "uint256[]",
          "name": "_claimPercent",
          "type": "uint256[]"
        }
      ],
      "name": "setClaimStage",
      "outputs": [],
      "stateMutability": "nonpayable",
      "type": "function"
    },
    {
      "inputs": [
        {
          "internalType": "bool",
          "name": "_pause",
          "type": "bool"
        }
      ],
      "name": "setPause",
      "outputs": [],
      "stateMutability": "nonpayable",
      "type": "function"
    },
    {
      "inputs": [],
      "name": "slotHasBeenBought",
      "outputs": [
        {
          "internalType": "uint256",
          "name": "",
          "type": "uint256"
        }
      ],
      "stateMutability": "view",
      "type": "function"
    },
    {
      "inputs": [],
      "name": "stakeBamiToken",
      "outputs": [],
      "stateMutability": "nonpayable",
      "type": "function"
    },
    {
      "inputs": [],
      "name": "stakePrice",
      "outputs": [
        {
          "internalType": "uint256",
          "name": "",
          "type": "uint256"
        }
      ],
      "stateMutability": "view",
      "type": "function"
    },
    {
      "inputs": [],
      "name": "stakingTimeEnd",
      "outputs": [
        {
          "internalType": "uint256",
          "name": "",
          "type": "uint256"
        }
      ],
      "stateMutability": "view",
      "type": "function"
    },
    {
      "inputs": [],
      "name": "stakingTimeStart",
      "outputs": [
        {
          "internalType": "uint256",
          "name": "",
          "type": "uint256"
        }
      ],
      "stateMutability": "view",
      "type": "function"
    },
    {
      "inputs": [],
      "name": "totalSlots",
      "outputs": [
        {
          "internalType": "uint256",
          "name": "",
          "type": "uint256"
        }
      ],
      "stateMutability": "view",
      "type": "function"
    },
    {
      "inputs": [
        {
          "internalType": "address",
          "name": "newOwner",
          "type": "address"
        }
      ],
      "name": "transferOwnership",
      "outputs": [],
      "stateMutability": "nonpayable",
      "type": "function"
    },
    {
      "inputs": [],
      "name": "unStakeTimeStart",
      "outputs": [
        {
          "internalType": "uint256",
          "name": "",
          "type": "uint256"
        }
      ],
      "stateMutability": "view",
      "type": "function"
    },
    {
      "inputs": [
        {
          "internalType": "address",
          "name": "",
          "type": "address"
        }
      ],
      "name": "userAlreadyStake",
      "outputs": [
        {
          "internalType": "bool",
          "name": "",
          "type": "bool"
        }
      ],
      "stateMutability": "view",
      "type": "function"
    },
    {
      "inputs": [
        {
          "internalType": "address",
          "name": "",
          "type": "address"
        }
      ],
      "name": "userHasBoughtSlot",
      "outputs": [
        {
          "internalType": "bool",
          "name": "",
          "type": "bool"
        }
      ],
      "stateMutability": "view",
      "type": "function"
    },
    {
      "inputs": [],
      "name": "withdrawStakedBamiToken",
      "outputs": [],
      "stateMutability": "nonpayable",
      "type": "function"
    }
  ],
  "bytecode": "0x60806040526000600960006101000a81548160ff0219169083151502179055506064600a556000600b5561012c600c55600a600d55611388600e55611388600f556113886010553480156200005357600080fd5b50604051620041b7380380620041b78339818101604052810190620000799190620003af565b620000996200008d6200017e60201b60201c565b6200018660201b60201c565b6001808190555082600260006101000a81548173ffffffffffffffffffffffffffffffffffffffff021916908373ffffffffffffffffffffffffffffffffffffffff16021790555081600360006101000a81548173ffffffffffffffffffffffffffffffffffffffff021916908373ffffffffffffffffffffffffffffffffffffffff16021790555080600460006101000a81548173ffffffffffffffffffffffffffffffffffffffff021916908373ffffffffffffffffffffffffffffffffffffffff1602179055506200017560016200024a60201b60201c565b5050506200048e565b600033905090565b60008060009054906101000a900473ffffffffffffffffffffffffffffffffffffffff169050816000806101000a81548173ffffffffffffffffffffffffffffffffffffffff021916908373ffffffffffffffffffffffffffffffffffffffff1602179055508173ffffffffffffffffffffffffffffffffffffffff168173ffffffffffffffffffffffffffffffffffffffff167f8be0079c531659141344cd1fd0a4f28419497f9722a3daafe3b4186f6b6457e060405160405180910390a35050565b6200025a6200027760201b60201c565b80600960006101000a81548160ff02191690831515021790555050565b620002876200017e60201b60201c565b73ffffffffffffffffffffffffffffffffffffffff16620002ad6200030860201b60201c565b73ffffffffffffffffffffffffffffffffffffffff161462000306576040517f08c379a0000000000000000000000000000000000000000000000000000000008152600401620002fd906200046c565b60405180910390fd5b565b60008060009054906101000a900473ffffffffffffffffffffffffffffffffffffffff16905090565b600080fd5b600073ffffffffffffffffffffffffffffffffffffffff82169050919050565b6000620003638262000336565b9050919050565b6000620003778262000356565b9050919050565b62000389816200036a565b81146200039557600080fd5b50565b600081519050620003a9816200037e565b92915050565b600080600060608486031215620003cb57620003ca62000331565b5b6000620003db8682870162000398565b9350506020620003ee8682870162000398565b9250506040620004018682870162000398565b9150509250925092565b600082825260208201905092915050565b7f4f776e61626c653a2063616c6c6572206973206e6f7420746865206f776e6572600082015250565b6000620004546020836200040b565b915062000461826200041c565b602082019050919050565b60006020820190508181036000830152620004878162000445565b9050919050565b613d19806200049e6000396000f3fe608060405234801561001057600080fd5b506004361061021c5760003560e01c80638666b84411610125578063bedb86fb116100ad578063ea903c9e1161007c578063ea903c9e14610589578063ecc5fc27146105a7578063f2fde38b146105c3578063f9f92be4146105df578063ff0938a71461060f5761021c565b8063bedb86fb14610501578063c42816ae1461051d578063ca6527be1461053b578063e102682b1461056b5761021c565b8063a023cf69116100f4578063a023cf6914610459578063a104dc6314610477578063a89b66c7146104a9578063b55a13bc146104c7578063bbf08554146104e35761021c565b80638666b844146103e35780638da5cb5b146104015780639b627a471461041f5780639cb9a19a1461043d5761021c565b80635b8c058b116101a857806371c7532e1161017757806371c7532e14610351578063767c9e1a146103815780637b8206a3146103b157806381022cf8146103bb57806382bcb4f6146103c55761021c565b80635b8c058b146102f35780635deeadd21461030f57806368092bd91461032b578063715018a6146103475761021c565b80632cb3d085116101ef5780632cb3d08514610271578063326519061461027b57806336541c8e146102995780634bfb5433146102b75780634e2ae27e146102d55761021c565b80630dfcb0fc146102215780631bf85fff1461023f5780631e82433f1461025d578063269b634614610267575b600080fd5b61022961062d565b60405161023691906129d0565b60405180910390f35b610247610633565b60405161025491906129d0565b60405180910390f35b610265610639565b005b61026f6109f7565b005b610279610deb565b005b61028361144a565b60405161029091906129d0565b60405180910390f35b6102a1611450565b6040516102ae9190612a6a565b60405180910390f35b6102bf611476565b6040516102cc9190612a6a565b60405180910390f35b6102dd61149c565b6040516102ea91906129d0565b60405180910390f35b61030d60048036038101906103089190612abb565b6114a2565b005b61032960048036038101906103249190612b36565b6114d4565b005b61034560048036038101906103409190612c39565b61150e565b005b61034f611571565b005b61036b60048036038101906103669190612c79565b611585565b60405161037891906129d0565b60405180910390f35b61039b60048036038101906103969190612c79565b61159d565b6040516103a89190612cb5565b60405180910390f35b6103b96115bd565b005b6103c36118bc565b005b6103cd611cf2565b6040516103da91906129d0565b60405180910390f35b6103eb611cf8565b6040516103f891906129d0565b60405180910390f35b610409611cfe565b6040516104169190612cdf565b60405180910390f35b610427611d27565b60405161043491906129d0565b60405180910390f35b61045760048036038101906104529190612d38565b611d2d565b005b610461611e72565b60405161046e91906129d0565b60405180910390f35b610491600480360381019061048c9190612d78565b611e78565b6040516104a093929190612da5565b60405180910390f35b6104b1611eb2565b6040516104be91906129d0565b60405180910390f35b6104e160048036038101906104dc9190612e41565b611eb8565b005b6104eb611f9b565b6040516104f891906129d0565b60405180910390f35b61051b60048036038101906105169190612ec2565b611fa1565b005b610525611fc6565b60405161053291906129d0565b60405180910390f35b61055560048036038101906105509190612c79565b611fcc565b6040516105629190612cb5565b60405180910390f35b610573611fec565b60405161058091906129d0565b60405180910390f35b610591611ff2565b60405161059e9190612a6a565b60405180910390f35b6105c160048036038101906105bc9190612eef565b612018565b005b6105dd60048036038101906105d89190612c79565b612414565b005b6105f960048036038101906105f49190612c79565b612497565b6040516106069190612cb5565b60405180910390f35b6106176124b7565b6040516106249190612cb5565b60405180910390f35b60105481565b600e5481565b6106416124ca565b600260009054906101000a900473ffffffffffffffffffffffffffffffffffffffff1673ffffffffffffffffffffffffffffffffffffffff1663a9059cbb33600260009054906101000a900473ffffffffffffffffffffffffffffffffffffffff1673ffffffffffffffffffffffffffffffffffffffff166370a08231306040518263ffffffff1660e01b81526004016106db9190612cdf565b602060405180830381865afa1580156106f8573d6000803e3d6000fd5b505050506040513d601f19601f8201168201806040525081019061071c9190612f44565b6040518363ffffffff1660e01b8152600401610739929190612f71565b6020604051808303816000875af1158015610758573d6000803e3d6000fd5b505050506040513d601f19601f8201168201806040525081019061077c9190612faf565b50600360009054906101000a900473ffffffffffffffffffffffffffffffffffffffff1673ffffffffffffffffffffffffffffffffffffffff1663a9059cbb33600360009054906101000a900473ffffffffffffffffffffffffffffffffffffffff1673ffffffffffffffffffffffffffffffffffffffff166370a08231306040518263ffffffff1660e01b81526004016108179190612cdf565b602060405180830381865afa158015610834573d6000803e3d6000fd5b505050506040513d601f19601f820116820180604052508101906108589190612f44565b6040518363ffffffff1660e01b8152600401610875929190612f71565b6020604051808303816000875af1158015610894573d6000803e3d6000fd5b505050506040513d601f19601f820116820180604052508101906108b89190612faf565b50600460009054906101000a900473ffffffffffffffffffffffffffffffffffffffff1673ffffffffffffffffffffffffffffffffffffffff1663a9059cbb33600460009054906101000a900473ffffffffffffffffffffffffffffffffffffffff1673ffffffffffffffffffffffffffffffffffffffff166370a08231306040518263ffffffff1660e01b81526004016109539190612cdf565b602060405180830381865afa158015610970573d6000803e3d6000fd5b505050506040513d601f19601f820116820180604052508101906109949190612f44565b6040518363ffffffff1660e01b81526004016109b1929190612f71565b6020604051808303816000875af11580156109d0573d6000803e3d6000fd5b505050506040513d601f19601f820116820180604052508101906109f49190612faf565b50565b600260015403610a3c576040517f08c379a0000000000000000000000000000000000000000000000000000000008152600401610a3390613039565b60405180910390fd5b6002600181905550600960009054906101000a900460ff1615610a94576040517f08c379a0000000000000000000000000000000000000000000000000000000008152600401610a8b906130a5565b60405180910390fd5b600860003373ffffffffffffffffffffffffffffffffffffffff1673ffffffffffffffffffffffffffffffffffffffff16815260200190815260200160002060009054906101000a900460ff1615610b21576040517f08c379a0000000000000000000000000000000000000000000000000000000008152600401610b1890613111565b60405180910390fd5b600660003373ffffffffffffffffffffffffffffffffffffffff1673ffffffffffffffffffffffffffffffffffffffff16815260200190815260200160002060009054906101000a900460ff16610bad576040517f08c379a0000000000000000000000000000000000000000000000000000000008152600401610ba49061317d565b60405180910390fd5b6000429050601680549050600760003373ffffffffffffffffffffffffffffffffffffffff1673ffffffffffffffffffffffffffffffffffffffff1681526020019081526020016000205410610c38576040517f08c379a0000000000000000000000000000000000000000000000000000000008152600401610c2f9061320f565b60405180910390fd5b60006016600760003373ffffffffffffffffffffffffffffffffffffffff1673ffffffffffffffffffffffffffffffffffffffff1681526020019081526020016000205481548110610c8d57610c8c61322f565b5b9060005260206000209060030201604051806060016040529081600082015481526020016001820154815260200160028201548152505090508060400151821015610d0d576040517f08c379a0000000000000000000000000000000000000000000000000000000008152600401610d04906132aa565b60405180910390fd5b600760003373ffffffffffffffffffffffffffffffffffffffff1673ffffffffffffffffffffffffffffffffffffffff1681526020019081526020016000206000815480929190610d5d906132f9565b91905055506000610d906064610d82601054856020015161254890919063ffffffff16565b61255e90919063ffffffff16565b9050610ddf3382600460009054906101000a900473ffffffffffffffffffffffffffffffffffffffff1673ffffffffffffffffffffffffffffffffffffffff166125749092919063ffffffff16565b50505060018081905550565b600260015403610e30576040517f08c379a0000000000000000000000000000000000000000000000000000000008152600401610e2790613039565b60405180910390fd5b6002600181905550600960009054906101000a900460ff1615610e88576040517f08c379a0000000000000000000000000000000000000000000000000000000008152600401610e7f906130a5565b60405180910390fd5b600860003373ffffffffffffffffffffffffffffffffffffffff1673ffffffffffffffffffffffffffffffffffffffff16815260200190815260200160002060009054906101000a900460ff1615610f15576040517f08c379a0000000000000000000000000000000000000000000000000000000008152600401610f0c90613111565b60405180910390fd5b6014544211158015610f2957506013544210155b610f68576040517f08c379a0000000000000000000000000000000000000000000000000000000008152600401610f5f9061338d565b60405180910390fd5b600a54600b5410610fae576040517f08c379a0000000000000000000000000000000000000000000000000000000008152600401610fa5906133f9565b60405180910390fd5b600560003373ffffffffffffffffffffffffffffffffffffffff1673ffffffffffffffffffffffffffffffffffffffff16815260200190815260200160002060009054906101000a900460ff1661103a576040517f08c379a000000000000000000000000000000000000000000000000000000000815260040161103190613465565b60405180910390fd5b600660003373ffffffffffffffffffffffffffffffffffffffff1673ffffffffffffffffffffffffffffffffffffffff16815260200190815260200160002060009054906101000a900460ff16156110c7576040517f08c379a00000000000000000000000000000000000000000000000000000000081526004016110be906134d1565b60405180910390fd5b600d54600360009054906101000a900473ffffffffffffffffffffffffffffffffffffffff1673ffffffffffffffffffffffffffffffffffffffff166370a08231336040518263ffffffff1660e01b81526004016111259190612cdf565b602060405180830381865afa158015611142573d6000803e3d6000fd5b505050506040513d601f19601f820116820180604052508101906111669190612f44565b10156111a7576040517f08c379a000000000000000000000000000000000000000000000000000000000815260040161119e90613563565b60405180910390fd5b600c54600260009054906101000a900473ffffffffffffffffffffffffffffffffffffffff1673ffffffffffffffffffffffffffffffffffffffff166370a08231336040518263ffffffff1660e01b81526004016112059190612cdf565b602060405180830381865afa158015611222573d6000803e3d6000fd5b505050506040513d601f19601f820116820180604052508101906112469190612f44565b1015611287576040517f08c379a000000000000000000000000000000000000000000000000000000000815260040161127e906135f5565b60405180910390fd5b600260009054906101000a900473ffffffffffffffffffffffffffffffffffffffff1673ffffffffffffffffffffffffffffffffffffffff166323b872dd3330600c546040518463ffffffff1660e01b81526004016112e893929190613615565b6020604051808303816000875af1158015611307573d6000803e3d6000fd5b505050506040513d601f19601f8201168201806040525081019061132b9190612faf565b50600360009054906101000a900473ffffffffffffffffffffffffffffffffffffffff1673ffffffffffffffffffffffffffffffffffffffff166323b872dd3330600d546040518463ffffffff1660e01b815260040161138d93929190613615565b6020604051808303816000875af11580156113ac573d6000803e3d6000fd5b505050506040513d601f19601f820116820180604052508101906113d09190612faf565b506001600660003373ffffffffffffffffffffffffffffffffffffffff1673ffffffffffffffffffffffffffffffffffffffff16815260200190815260200160002060006101000a81548160ff021916908315150217905550600b600081548092919061143c906132f9565b919050555060018081905550565b600a5481565b600260009054906101000a900473ffffffffffffffffffffffffffffffffffffffff1681565b600460009054906101000a900473ffffffffffffffffffffffffffffffffffffffff1681565b600c5481565b6114aa6124ca565b84601181905550836012819055508260138190555081601481905550806015819055505050505050565b6114dc6124ca565b85600f8190555084600a8190555083600b8190555082600c8190555081600d8190555080601081905550505050505050565b6115166124ca565b80600860008473ffffffffffffffffffffffffffffffffffffffff1673ffffffffffffffffffffffffffffffffffffffff16815260200190815260200160002060006101000a81548160ff0219169083151502179055505050565b6115796124ca565b61158360006125fa565b565b60076020528060005260406000206000915090505481565b60066020528060005260406000206000915054906101000a900460ff1681565b600260015403611602576040517f08c379a00000000000000000000000000000000000000000000000000000000081526004016115f990613039565b60405180910390fd5b6002600181905550600960009054906101000a900460ff161561165a576040517f08c379a0000000000000000000000000000000000000000000000000000000008152600401611651906130a5565b60405180910390fd5b600860003373ffffffffffffffffffffffffffffffffffffffff1673ffffffffffffffffffffffffffffffffffffffff16815260200190815260200160002060009054906101000a900460ff16156116e7576040517f08c379a00000000000000000000000000000000000000000000000000000000081526004016116de90613111565b60405180910390fd5b60155442101561172c576040517f08c379a000000000000000000000000000000000000000000000000000000000815260040161172390613698565b60405180910390fd5b600560003373ffffffffffffffffffffffffffffffffffffffff1673ffffffffffffffffffffffffffffffffffffffff16815260200190815260200160002060009054906101000a900460ff166117b8576040517f08c379a00000000000000000000000000000000000000000000000000000000081526004016117af90613465565b60405180910390fd5b600260009054906101000a900473ffffffffffffffffffffffffffffffffffffffff1673ffffffffffffffffffffffffffffffffffffffff1663a9059cbb33600f546040518363ffffffff1660e01b8152600401611817929190612f71565b6020604051808303816000875af1158015611836573d6000803e3d6000fd5b505050506040513d601f19601f8201168201806040525081019061185a9190612faf565b506000600560003373ffffffffffffffffffffffffffffffffffffffff1673ffffffffffffffffffffffffffffffffffffffff16815260200190815260200160002060006101000a81548160ff02191690831515021790555060018081905550565b600260015403611901576040517f08c379a00000000000000000000000000000000000000000000000000000000081526004016118f890613039565b60405180910390fd5b6002600181905550600960009054906101000a900460ff1615611959576040517f08c379a0000000000000000000000000000000000000000000000000000000008152600401611950906130a5565b60405180910390fd5b600860003373ffffffffffffffffffffffffffffffffffffffff1673ffffffffffffffffffffffffffffffffffffffff16815260200190815260200160002060009054906101000a900460ff16156119e6576040517f08c379a00000000000000000000000000000000000000000000000000000000081526004016119dd90613111565b60405180910390fd5b60125442111580156119fa57506011544210155b611a39576040517f08c379a0000000000000000000000000000000000000000000000000000000008152600401611a3090613704565b60405180910390fd5b600560003373ffffffffffffffffffffffffffffffffffffffff1673ffffffffffffffffffffffffffffffffffffffff16815260200190815260200160002060009054906101000a900460ff1615611ac6576040517f08c379a0000000000000000000000000000000000000000000000000000000008152600401611abd90613770565b60405180910390fd5b600a54600b5410611b0c576040517f08c379a0000000000000000000000000000000000000000000000000000000008152600401611b03906133f9565b60405180910390fd5b600e54600260009054906101000a900473ffffffffffffffffffffffffffffffffffffffff1673ffffffffffffffffffffffffffffffffffffffff166370a08231336040518263ffffffff1660e01b8152600401611b6a9190612cdf565b602060405180830381865afa158015611b87573d6000803e3d6000fd5b505050506040513d601f19601f82011682018060405250810190611bab9190612f44565b1015611bec576040517f08c379a0000000000000000000000000000000000000000000000000000000008152600401611be390613802565b60405180910390fd5b600260009054906101000a900473ffffffffffffffffffffffffffffffffffffffff1673ffffffffffffffffffffffffffffffffffffffff166323b872dd3330600f546040518463ffffffff1660e01b8152600401611c4d93929190613615565b6020604051808303816000875af1158015611c6c573d6000803e3d6000fd5b505050506040513d601f19601f82011682018060405250810190611c909190612faf565b506001600560003373ffffffffffffffffffffffffffffffffffffffff1673ffffffffffffffffffffffffffffffffffffffff16815260200190815260200160002060006101000a81548160ff02191690831515021790555060018081905550565b60145481565b600d5481565b60008060009054906101000a900473ffffffffffffffffffffffffffffffffffffffff16905090565b60125481565b611d356124ca565b60008210158015611d47575060028211155b611d86576040517f08c379a0000000000000000000000000000000000000000000000000000000008152600401611d7d90613894565b60405180910390fd5b60008203611dd45780600260006101000a81548173ffffffffffffffffffffffffffffffffffffffff021916908373ffffffffffffffffffffffffffffffffffffffff160217905550611e6e565b60018203611e225780600360006101000a81548173ffffffffffffffffffffffffffffffffffffffff021916908373ffffffffffffffffffffffffffffffffffffffff160217905550611e6d565b60028203611e6c5780600460006101000a81548173ffffffffffffffffffffffffffffffffffffffff021916908373ffffffffffffffffffffffffffffffffffffffff1602179055505b5b5b5050565b600f5481565b60168181548110611e8857600080fd5b90600052602060002090600302016000915090508060000154908060010154908060020154905083565b60115481565b611ec06124ca565b60166000611ece9190612943565b60005b84849050811015611f9457611ee4612967565b81816000018181525050838383818110611f0157611f0061322f565b5b90506020020135816020018181525050858583818110611f2457611f2361322f565b5b9050602002013581604001818152505060168190806001815401808255809150506001900390600052602060002090600302016000909190919091506000820151816000015560208201518160010155604082015181600201555050508080611f8c906132f9565b915050611ed1565b5050505050565b60155481565b611fa96124ca565b80600960006101000a81548160ff02191690831515021790555050565b600b5481565b60056020528060005260406000206000915054906101000a900460ff1681565b60135481565b600360009054906101000a900473ffffffffffffffffffffffffffffffffffffffff1681565b6120206124ca565b600082036120ce57600260009054906101000a900473ffffffffffffffffffffffffffffffffffffffff1673ffffffffffffffffffffffffffffffffffffffff1663a9059cbb33836040518363ffffffff1660e01b8152600401612085929190612f71565b6020604051808303816000875af11580156120a4573d6000803e3d6000fd5b505050506040513d601f19601f820116820180604052508101906120c89190612faf565b50612410565b6001820361217c57600360009054906101000a900473ffffffffffffffffffffffffffffffffffffffff1673ffffffffffffffffffffffffffffffffffffffff1663a9059cbb33836040518363ffffffff1660e01b8152600401612133929190612f71565b6020604051808303816000875af1158015612152573d6000803e3d6000fd5b505050506040513d601f19601f820116820180604052508101906121769190612faf565b5061240f565b6002820361222a57600460009054906101000a900473ffffffffffffffffffffffffffffffffffffffff1673ffffffffffffffffffffffffffffffffffffffff1663a9059cbb33836040518363ffffffff1660e01b81526004016121e1929190612f71565b6020604051808303816000875af1158015612200573d6000803e3d6000fd5b505050506040513d601f19601f820116820180604052508101906122249190612faf565b5061240e565b600260009054906101000a900473ffffffffffffffffffffffffffffffffffffffff1673ffffffffffffffffffffffffffffffffffffffff1663a9059cbb33836040518363ffffffff1660e01b8152600401612287929190612f71565b6020604051808303816000875af11580156122a6573d6000803e3d6000fd5b505050506040513d601f19601f820116820180604052508101906122ca9190612faf565b50600360009054906101000a900473ffffffffffffffffffffffffffffffffffffffff1673ffffffffffffffffffffffffffffffffffffffff1663a9059cbb33836040518363ffffffff1660e01b8152600401612328929190612f71565b6020604051808303816000875af1158015612347573d6000803e3d6000fd5b505050506040513d601f19601f8201168201806040525081019061236b9190612faf565b50600460009054906101000a900473ffffffffffffffffffffffffffffffffffffffff1673ffffffffffffffffffffffffffffffffffffffff1663a9059cbb33836040518363ffffffff1660e01b81526004016123c9929190612f71565b6020604051808303816000875af11580156123e8573d6000803e3d6000fd5b505050506040513d601f19601f8201168201806040525081019061240c9190612faf565b505b5b5b5050565b61241c6124ca565b600073ffffffffffffffffffffffffffffffffffffffff168173ffffffffffffffffffffffffffffffffffffffff160361248b576040517f08c379a000000000000000000000000000000000000000000000000000000000815260040161248290613926565b60405180910390fd5b612494816125fa565b50565b60086020528060005260406000206000915054906101000a900460ff1681565b600960009054906101000a900460ff1681565b6124d26126be565b73ffffffffffffffffffffffffffffffffffffffff166124f0611cfe565b73ffffffffffffffffffffffffffffffffffffffff1614612546576040517f08c379a000000000000000000000000000000000000000000000000000000000815260040161253d90613992565b60405180910390fd5b565b6000818361255691906139b2565b905092915050565b6000818361256c9190613a23565b905092915050565b6125f58363a9059cbb60e01b8484604051602401612593929190612f71565b604051602081830303815290604052907bffffffffffffffffffffffffffffffffffffffffffffffffffffffff19166020820180517bffffffffffffffffffffffffffffffffffffffffffffffffffffffff83818316178352505050506126c6565b505050565b60008060009054906101000a900473ffffffffffffffffffffffffffffffffffffffff169050816000806101000a81548173ffffffffffffffffffffffffffffffffffffffff021916908373ffffffffffffffffffffffffffffffffffffffff1602179055508173ffffffffffffffffffffffffffffffffffffffff168173ffffffffffffffffffffffffffffffffffffffff167f8be0079c531659141344cd1fd0a4f28419497f9722a3daafe3b4186f6b6457e060405160405180910390a35050565b600033905090565b6000612728826040518060400160405280602081526020017f5361666545524332303a206c6f772d6c6576656c2063616c6c206661696c65648152508573ffffffffffffffffffffffffffffffffffffffff1661278d9092919063ffffffff16565b905060008151111561278857808060200190518101906127489190612faf565b612787576040517f08c379a000000000000000000000000000000000000000000000000000000000815260040161277e90613ac6565b60405180910390fd5b5b505050565b606061279c84846000856127a5565b90509392505050565b6060824710156127ea576040517f08c379a00000000000000000000000000000000000000000000000000000000081526004016127e190613b58565b60405180910390fd5b6127f3856128b9565b612832576040517f08c379a000000000000000000000000000000000000000000000000000000000815260040161282990613bc4565b60405180910390fd5b6000808673ffffffffffffffffffffffffffffffffffffffff16858760405161285b9190613c55565b60006040518083038185875af1925050503d8060008114612898576040519150601f19603f3d011682016040523d82523d6000602084013e61289d565b606091505b50915091506128ad8282866128dc565b92505050949350505050565b6000808273ffffffffffffffffffffffffffffffffffffffff163b119050919050565b606083156128ec5782905061293c565b6000835111156128ff5782518084602001fd5b816040517f08c379a00000000000000000000000000000000000000000000000000000000081526004016129339190613cc1565b60405180910390fd5b9392505050565b50805460008255600302906000526020600020908101906129649190612988565b50565b60405180606001604052806000815260200160008152602001600081525090565b5b808211156129b3576000808201600090556001820160009055600282016000905550600301612989565b5090565b6000819050919050565b6129ca816129b7565b82525050565b60006020820190506129e560008301846129c1565b92915050565b600073ffffffffffffffffffffffffffffffffffffffff82169050919050565b6000819050919050565b6000612a30612a2b612a26846129eb565b612a0b565b6129eb565b9050919050565b6000612a4282612a15565b9050919050565b6000612a5482612a37565b9050919050565b612a6481612a49565b82525050565b6000602082019050612a7f6000830184612a5b565b92915050565b600080fd5b600080fd5b612a98816129b7565b8114612aa357600080fd5b50565b600081359050612ab581612a8f565b92915050565b600080600080600060a08688031215612ad757612ad6612a85565b5b6000612ae588828901612aa6565b9550506020612af688828901612aa6565b9450506040612b0788828901612aa6565b9350506060612b1888828901612aa6565b9250506080612b2988828901612aa6565b9150509295509295909350565b60008060008060008060c08789031215612b5357612b52612a85565b5b6000612b6189828a01612aa6565b9650506020612b7289828a01612aa6565b9550506040612b8389828a01612aa6565b9450506060612b9489828a01612aa6565b9350506080612ba589828a01612aa6565b92505060a0612bb689828a01612aa6565b9150509295509295509295565b6000612bce826129eb565b9050919050565b612bde81612bc3565b8114612be957600080fd5b50565b600081359050612bfb81612bd5565b92915050565b60008115159050919050565b612c1681612c01565b8114612c2157600080fd5b50565b600081359050612c3381612c0d565b92915050565b60008060408385031215612c5057612c4f612a85565b5b6000612c5e85828601612bec565b9250506020612c6f85828601612c24565b9150509250929050565b600060208284031215612c8f57612c8e612a85565b5b6000612c9d84828501612bec565b91505092915050565b612caf81612c01565b82525050565b6000602082019050612cca6000830184612ca6565b92915050565b612cd981612bc3565b82525050565b6000602082019050612cf46000830184612cd0565b92915050565b6000612d0582612bc3565b9050919050565b612d1581612cfa565b8114612d2057600080fd5b50565b600081359050612d3281612d0c565b92915050565b60008060408385031215612d4f57612d4e612a85565b5b6000612d5d85828601612aa6565b9250506020612d6e85828601612d23565b9150509250929050565b600060208284031215612d8e57612d8d612a85565b5b6000612d9c84828501612aa6565b91505092915050565b6000606082019050612dba60008301866129c1565b612dc760208301856129c1565b612dd460408301846129c1565b949350505050565b600080fd5b600080fd5b600080fd5b60008083601f840112612e0157612e00612ddc565b5b8235905067ffffffffffffffff811115612e1e57612e1d612de1565b5b602083019150836020820283011115612e3a57612e39612de6565b5b9250929050565b60008060008060408587031215612e5b57612e5a612a85565b5b600085013567ffffffffffffffff811115612e7957612e78612a8a565b5b612e8587828801612deb565b9450945050602085013567ffffffffffffffff811115612ea857612ea7612a8a565b5b612eb487828801612deb565b925092505092959194509250565b600060208284031215612ed857612ed7612a85565b5b6000612ee684828501612c24565b91505092915050565b60008060408385031215612f0657612f05612a85565b5b6000612f1485828601612aa6565b9250506020612f2585828601612aa6565b9150509250929050565b600081519050612f3e81612a8f565b92915050565b600060208284031215612f5a57612f59612a85565b5b6000612f6884828501612f2f565b91505092915050565b6000604082019050612f866000830185612cd0565b612f9360208301846129c1565b9392505050565b600081519050612fa981612c0d565b92915050565b600060208284031215612fc557612fc4612a85565b5b6000612fd384828501612f9a565b91505092915050565b600082825260208201905092915050565b7f5265656e7472616e637947756172643a207265656e7472616e742063616c6c00600082015250565b6000613023601f83612fdc565b915061302e82612fed565b602082019050919050565b6000602082019050818103600083015261305281613016565b9050919050565b7f536d61727420636f6e7472616374206973207061757365640000000000000000600082015250565b600061308f601883612fdc565b915061309a82613059565b602082019050919050565b600060208201905081810360008301526130be81613082565b9050919050565b7f596f7520617265206f6e20626c61636b6c697374000000000000000000000000600082015250565b60006130fb601483612fdc565b9150613106826130c5565b602082019050919050565b6000602082019050818103600083015261312a816130ee565b9050919050565b7f596f7520686176656e277420626f7567687420736c6f74000000000000000000600082015250565b6000613167601783612fdc565b915061317282613131565b602082019050919050565b600060208201905081810360008301526131968161315a565b9050919050565b7f596f75206861766520636c61696d656420616c6c206f6620796f757220746f6b60008201527f656e730000000000000000000000000000000000000000000000000000000000602082015250565b60006131f9602383612fdc565b91506132048261319d565b604082019050919050565b60006020820190508181036000830152613228816131ec565b9050919050565b7f4e487b7100000000000000000000000000000000000000000000000000000000600052603260045260246000fd5b7f436c61696d2074696d65206973206e6f74207374617274656400000000000000600082015250565b6000613294601983612fdc565b915061329f8261325e565b602082019050919050565b600060208201905081810360008301526132c381613287565b9050919050565b7f4e487b7100000000000000000000000000000000000000000000000000000000600052601160045260246000fd5b6000613304826129b7565b91507fffffffffffffffffffffffffffffffffffffffffffffffffffffffffffffffff8203613336576133356132ca565b5b600182019050919050565b7f496e76616c69642062757920736c6f742074696d650000000000000000000000600082015250565b6000613377601583612fdc565b915061338282613341565b602082019050919050565b600060208201905081810360008301526133a68161336a565b9050919050565b7f4f7574206f6620736c6f74730000000000000000000000000000000000000000600082015250565b60006133e3600c83612fdc565b91506133ee826133ad565b602082019050919050565b60006020820190508181036000830152613412816133d6565b9050919050565b7f596f7520686176656e2774207374616b65640000000000000000000000000000600082015250565b600061344f601283612fdc565b915061345a82613419565b602082019050919050565b6000602082019050818103600083015261347e81613442565b9050919050565b7f596f7520616c726561647920626f7567687420736c6f74000000000000000000600082015250565b60006134bb601783612fdc565b91506134c682613485565b602082019050919050565b600060208201905081810360008301526134ea816134ae565b9050919050565b7f596f7572206163636f756e7420646f65736e2774206861766520656e6f75676860008201527f204255534420746f6b656e20746f2062757920736c6f74000000000000000000602082015250565b600061354d603783612fdc565b9150613558826134f1565b604082019050919050565b6000602082019050818103600083015261357c81613540565b9050919050565b7f596f7572206163636f756e7420646f65736e2774206861766520656e6f75676860008201527f2042616d6920746f6b656e20746f2062757920736c6f74000000000000000000602082015250565b60006135df603783612fdc565b91506135ea82613583565b604082019050919050565b6000602082019050818103600083015261360e816135d2565b9050919050565b600060608201905061362a6000830186612cd0565b6136376020830185612cd0565b61364460408301846129c1565b949350505050565b7f43616e277420756e7374616b6520796574000000000000000000000000000000600082015250565b6000613682601183612fdc565b915061368d8261364c565b602082019050919050565b600060208201905081810360008301526136b181613675565b9050919050565b7f496e76616c6964207374616b696e672074696d65000000000000000000000000600082015250565b60006136ee601483612fdc565b91506136f9826136b8565b602082019050919050565b6000602082019050818103600083015261371d816136e1565b9050919050565b7f596f7520616c7265616479207374616b65640000000000000000000000000000600082015250565b600061375a601283612fdc565b915061376582613724565b602082019050919050565b600060208201905081810360008301526137898161374d565b9050919050565b7f596f7572206163636f756e7420646f65736e2774206861766520656e6f75676860008201527f2042616d6920746f6b656e20746f207374616b65000000000000000000000000602082015250565b60006137ec603483612fdc565b91506137f782613790565b604082019050919050565b6000602082019050818103600083015261381b816137df565b9050919050565b7f496e707574203020666f722042616d692c203120666f7220425553442c20322060008201527f666f72204865736d616e00000000000000000000000000000000000000000000602082015250565b600061387e602a83612fdc565b915061388982613822565b604082019050919050565b600060208201905081810360008301526138ad81613871565b9050919050565b7f4f776e61626c653a206e6577206f776e657220697320746865207a65726f206160008201527f6464726573730000000000000000000000000000000000000000000000000000602082015250565b6000613910602683612fdc565b915061391b826138b4565b604082019050919050565b6000602082019050818103600083015261393f81613903565b9050919050565b7f4f776e61626c653a2063616c6c6572206973206e6f7420746865206f776e6572600082015250565b600061397c602083612fdc565b915061398782613946565b602082019050919050565b600060208201905081810360008301526139ab8161396f565b9050919050565b60006139bd826129b7565b91506139c8836129b7565b92508282026139d6816129b7565b915082820484148315176139ed576139ec6132ca565b5b5092915050565b7f4e487b7100000000000000000000000000000000000000000000000000000000600052601260045260246000fd5b6000613a2e826129b7565b9150613a39836129b7565b925082613a4957613a486139f4565b5b828204905092915050565b7f5361666545524332303a204552433230206f7065726174696f6e20646964206e60008201527f6f74207375636365656400000000000000000000000000000000000000000000602082015250565b6000613ab0602a83612fdc565b9150613abb82613a54565b604082019050919050565b60006020820190508181036000830152613adf81613aa3565b9050919050565b7f416464726573733a20696e73756666696369656e742062616c616e636520666f60008201527f722063616c6c0000000000000000000000000000000000000000000000000000602082015250565b6000613b42602683612fdc565b9150613b4d82613ae6565b604082019050919050565b60006020820190508181036000830152613b7181613b35565b9050919050565b7f416464726573733a2063616c6c20746f206e6f6e2d636f6e7472616374000000600082015250565b6000613bae601d83612fdc565b9150613bb982613b78565b602082019050919050565b60006020820190508181036000830152613bdd81613ba1565b9050919050565b600081519050919050565b600081905092915050565b60005b83811015613c18578082015181840152602081019050613bfd565b60008484015250505050565b6000613c2f82613be4565b613c398185613bef565b9350613c49818560208601613bfa565b80840191505092915050565b6000613c618284613c24565b915081905092915050565b600081519050919050565b6000601f19601f8301169050919050565b6000613c9382613c6c565b613c9d8185612fdc565b9350613cad818560208601613bfa565b613cb681613c77565b840191505092915050565b60006020820190508181036000830152613cdb8184613c88565b90509291505056fea2646970667358221220bd0ab0c1867086dc21caffd911f5aa9d94bbe5b547577eb5953ea080f054c46364736f6c63430008110033",
  "linkReferences": {},
  "deployedLinkReferences": {}
}