{
  "_format": "hh-sol-artifact-1",
  "contractName": "Pool1",
  "sourceName": "Contracts/Pool1.sol",
  "abi": [
    {
      "inputs": [
        {
          "internalType": "contract ERC20",
          "name": "_bamiTokenAddress",
          "type": "address"
        },
        {
          "internalType": "contract ERC20",
          "name": "_BUSDTokenAddress",
          "type": "address"
        },
        {
          "internalType": "contract ERC20",
          "name": "_hesmanTokenAddress",
          "type": "address"
        }
      ],
      "stateMutability": "nonpayable",
      "type": "constructor"
    },
    {
      "anonymous": false,
      "inputs": [
        {
          "indexed": true,
          "internalType": "address",
          "name": "previousOwner",
          "type": "address"
        },
        {
          "indexed": true,
          "internalType": "address",
          "name": "newOwner",
          "type": "address"
        }
      ],
      "name": "OwnershipTransferred",
      "type": "event"
    },
    {
      "inputs": [],
      "name": "BUSDToBuySlot",
      "outputs": [
        {
          "internalType": "uint256",
          "name": "",
          "type": "uint256"
        }
      ],
      "stateMutability": "view",
      "type": "function"
    },
    {
      "inputs": [],
      "name": "BUSDTokenAddress",
      "outputs": [
        {
          "internalType": "contract ERC20",
          "name": "",
          "type": "address"
        }
      ],
      "stateMutability": "view",
      "type": "function"
    },
    {
      "inputs": [],
      "name": "BamiStakingLimit",
      "outputs": [
        {
          "internalType": "uint256",
          "name": "",
          "type": "uint256"
        }
      ],
      "stateMutability": "view",
      "type": "function"
    },
    {
      "inputs": [],
      "name": "BamiToBuySlot",
      "outputs": [
        {
          "internalType": "uint256",
          "name": "",
          "type": "uint256"
        }
      ],
      "stateMutability": "view",
      "type": "function"
    },
    {
      "inputs": [
        {
          "internalType": "uint256",
          "name": "",
          "type": "uint256"
        }
      ],
      "name": "ClaimStageList",
      "outputs": [
        {
          "internalType": "uint256",
          "name": "claimIndex",
          "type": "uint256"
        },
        {
          "internalType": "uint256",
          "name": "claimPercent",
          "type": "uint256"
        },
        {
          "internalType": "uint256",
          "name": "claimTimestamp",
          "type": "uint256"
        }
      ],
      "stateMutability": "view",
      "type": "function"
    },
    {
      "inputs": [],
      "name": "EmergencyWithdrawAllToken",
      "outputs": [],
      "stateMutability": "nonpayable",
      "type": "function"
    },
    {
      "inputs": [],
      "name": "bamiTokenAddress",
      "outputs": [
        {
          "internalType": "contract ERC20",
          "name": "",
          "type": "address"
        }
      ],
      "stateMutability": "view",
      "type": "function"
    },
    {
      "inputs": [],
      "name": "buySlot",
      "outputs": [],
      "stateMutability": "nonpayable",
      "type": "function"
    },
    {
      "inputs": [],
      "name": "buySlotTimeEnd",
      "outputs": [
        {
          "internalType": "uint256",
          "name": "",
          "type": "uint256"
        }
      ],
      "stateMutability": "view",
      "type": "function"
    },
    {
      "inputs": [],
      "name": "buySlotTimeStart",
      "outputs": [
        {
          "internalType": "uint256",
          "name": "",
          "type": "uint256"
        }
      ],
      "stateMutability": "view",
      "type": "function"
    },
    {
      "inputs": [
        {
          "internalType": "uint256",
          "name": "_options",
          "type": "uint256"
        },
        {
          "internalType": "contract ERC20",
          "name": "_tokenAddress",
          "type": "address"
        }
      ],
      "name": "changeTokenAddress",
      "outputs": [],
      "stateMutability": "nonpayable",
      "type": "function"
    },
    {
      "inputs": [],
      "name": "claimHesman",
      "outputs": [],
      "stateMutability": "nonpayable",
      "type": "function"
    },
    {
      "inputs": [
        {
          "internalType": "uint256",
          "name": "_stakePrice",
          "type": "uint256"
        },
        {
          "internalType": "uint256",
          "name": "_totalSlots",
          "type": "uint256"
        },
        {
          "internalType": "uint256",
          "name": "_slotHasBeenBought",
          "type": "uint256"
        },
        {
          "internalType": "uint256",
          "name": "_BamiToBuySlot",
          "type": "uint256"
        },
        {
          "internalType": "uint256",
          "name": "_BUSDToBuySlot",
          "type": "uint256"
        },
        {
          "internalType": "uint256",
          "name": "_hesmanPerSlot",
          "type": "uint256"
        }
      ],
      "name": "configPriceAndSlot",
      "outputs": [],
      "stateMutability": "nonpayable",
      "type": "function"
    },
    {
      "inputs": [
        {
          "internalType": "uint256",
          "name": "_stakingTimeStart",
          "type": "uint256"
        },
        {
          "internalType": "uint256",
          "name": "_stakingTimeEnd",
          "type": "uint256"
        },
        {
          "internalType": "uint256",
          "name": "_buySlotTimeStart",
          "type": "uint256"
        },
        {
          "internalType": "uint256",
          "name": "_buySlotTimeEnd",
          "type": "uint256"
        },
        {
          "internalType": "uint256",
          "name": "_unStakeTimeStart",
          "type": "uint256"
        }
      ],
      "name": "configTimer",
      "outputs": [],
      "stateMutability": "nonpayable",
      "type": "function"
    },
    {
      "inputs": [],
      "name": "hesmanPerSlot",
      "outputs": [
        {
          "internalType": "uint256",
          "name": "",
          "type": "uint256"
        }
      ],
      "stateMutability": "view",
      "type": "function"
    },
    {
      "inputs": [],
      "name": "hesmanTokenAddress",
      "outputs": [
        {
          "internalType": "contract ERC20",
          "name": "",
          "type": "address"
        }
      ],
      "stateMutability": "view",
      "type": "function"
    },
    {
      "inputs": [],
      "name": "isPause",
      "outputs": [
        {
          "internalType": "bool",
          "name": "",
          "type": "bool"
        }
      ],
      "stateMutability": "view",
      "type": "function"
    },
    {
      "inputs": [
        {
          "internalType": "address",
          "name": "",
          "type": "address"
        }
      ],
      "name": "nextStageIndex",
      "outputs": [
        {
          "internalType": "uint256",
          "name": "",
          "type": "uint256"
        }
      ],
      "stateMutability": "view",
      "type": "function"
    },
    {
      "inputs": [],
      "name": "owner",
      "outputs": [
        {
          "internalType": "address",
          "name": "",
          "type": "address"
        }
      ],
      "stateMutability": "view",
      "type": "function"
    },
    {
      "inputs": [
        {
          "internalType": "uint256",
          "name": "_options",
          "type": "uint256"
        },
        {
          "internalType": "uint256",
          "name": "_amount",
          "type": "uint256"
        }
      ],
      "name": "ownerWithdrawToken",
      "outputs": [],
      "stateMutability": "nonpayable",
      "type": "function"
    },
    {
      "inputs": [],
      "name": "renounceOwnership",
      "outputs": [],
      "stateMutability": "nonpayable",
      "type": "function"
    },
    {
      "inputs": [
        {
          "internalType": "uint256[]",
          "name": "_claimTimestamp",
          "type": "uint256[]"
        },
        {
          "internalType": "uint256[]",
          "name": "_claimPercent",
          "type": "uint256[]"
        }
      ],
      "name": "setClaimStage",
      "outputs": [],
      "stateMutability": "nonpayable",
      "type": "function"
    },
    {
      "inputs": [
        {
          "internalType": "bool",
          "name": "_pause",
          "type": "bool"
        }
      ],
      "name": "setPause",
      "outputs": [],
      "stateMutability": "nonpayable",
      "type": "function"
    },
    {
      "inputs": [],
      "name": "slotHasBeenBought",
      "outputs": [
        {
          "internalType": "uint256",
          "name": "",
          "type": "uint256"
        }
      ],
      "stateMutability": "view",
      "type": "function"
    },
    {
      "inputs": [],
      "name": "stakeBamiToken",
      "outputs": [],
      "stateMutability": "nonpayable",
      "type": "function"
    },
    {
      "inputs": [],
      "name": "stakePrice",
      "outputs": [
        {
          "internalType": "uint256",
          "name": "",
          "type": "uint256"
        }
      ],
      "stateMutability": "view",
      "type": "function"
    },
    {
      "inputs": [],
      "name": "stakingTimeEnd",
      "outputs": [
        {
          "internalType": "uint256",
          "name": "",
          "type": "uint256"
        }
      ],
      "stateMutability": "view",
      "type": "function"
    },
    {
      "inputs": [],
      "name": "stakingTimeStart",
      "outputs": [
        {
          "internalType": "uint256",
          "name": "",
          "type": "uint256"
        }
      ],
      "stateMutability": "view",
      "type": "function"
    },
    {
      "inputs": [],
      "name": "totalSlots",
      "outputs": [
        {
          "internalType": "uint256",
          "name": "",
          "type": "uint256"
        }
      ],
      "stateMutability": "view",
      "type": "function"
    },
    {
      "inputs": [
        {
          "internalType": "address",
          "name": "newOwner",
          "type": "address"
        }
      ],
      "name": "transferOwnership",
      "outputs": [],
      "stateMutability": "nonpayable",
      "type": "function"
    },
    {
      "inputs": [],
      "name": "unStakeTimeStart",
      "outputs": [
        {
          "internalType": "uint256",
          "name": "",
          "type": "uint256"
        }
      ],
      "stateMutability": "view",
      "type": "function"
    },
    {
      "inputs": [
        {
          "internalType": "address",
          "name": "",
          "type": "address"
        }
      ],
      "name": "userAlreadyStake",
      "outputs": [
        {
          "internalType": "bool",
          "name": "",
          "type": "bool"
        }
      ],
      "stateMutability": "view",
      "type": "function"
    },
    {
      "inputs": [
        {
          "internalType": "address",
          "name": "",
          "type": "address"
        }
      ],
      "name": "userHasBoughtSlot",
      "outputs": [
        {
          "internalType": "bool",
          "name": "",
          "type": "bool"
        }
      ],
      "stateMutability": "view",
      "type": "function"
    },
    {
      "inputs": [],
      "name": "withdrawStakedBamiToken",
      "outputs": [],
      "stateMutability": "nonpayable",
      "type": "function"
    }
  ],
  "bytecode": "0x60806040526000600860006101000a81548160ff02191690831515021790555060646009556000600a5561012c600b55600a600c55611388600d55611388600e55611388600f553480156200005357600080fd5b5060405162003df238038062003df28339818101604052810190620000799190620003af565b620000996200008d6200017e60201b60201c565b6200018660201b60201c565b6001808190555082600260006101000a81548173ffffffffffffffffffffffffffffffffffffffff021916908373ffffffffffffffffffffffffffffffffffffffff16021790555081600360006101000a81548173ffffffffffffffffffffffffffffffffffffffff021916908373ffffffffffffffffffffffffffffffffffffffff16021790555080600460006101000a81548173ffffffffffffffffffffffffffffffffffffffff021916908373ffffffffffffffffffffffffffffffffffffffff1602179055506200017560016200024a60201b60201c565b5050506200048e565b600033905090565b60008060009054906101000a900473ffffffffffffffffffffffffffffffffffffffff169050816000806101000a81548173ffffffffffffffffffffffffffffffffffffffff021916908373ffffffffffffffffffffffffffffffffffffffff1602179055508173ffffffffffffffffffffffffffffffffffffffff168173ffffffffffffffffffffffffffffffffffffffff167f8be0079c531659141344cd1fd0a4f28419497f9722a3daafe3b4186f6b6457e060405160405180910390a35050565b6200025a6200027760201b60201c565b80600860006101000a81548160ff02191690831515021790555050565b620002876200017e60201b60201c565b73ffffffffffffffffffffffffffffffffffffffff16620002ad6200030860201b60201c565b73ffffffffffffffffffffffffffffffffffffffff161462000306576040517f08c379a0000000000000000000000000000000000000000000000000000000008152600401620002fd906200046c565b60405180910390fd5b565b60008060009054906101000a900473ffffffffffffffffffffffffffffffffffffffff16905090565b600080fd5b600073ffffffffffffffffffffffffffffffffffffffff82169050919050565b6000620003638262000336565b9050919050565b6000620003778262000356565b9050919050565b62000389816200036a565b81146200039557600080fd5b50565b600081519050620003a9816200037e565b92915050565b600080600060608486031215620003cb57620003ca62000331565b5b6000620003db8682870162000398565b9350506020620003ee8682870162000398565b9250506040620004018682870162000398565b9150509250925092565b600082825260208201905092915050565b7f4f776e61626c653a2063616c6c6572206973206e6f7420746865206f776e6572600082015250565b6000620004546020836200040b565b915062000461826200041c565b602082019050919050565b60006020820190508181036000830152620004878162000445565b9050919050565b613954806200049e6000396000f3fe608060405234801561001057600080fd5b50600436106102065760003560e01c80638666b8441161011a578063bbf08554116100ad578063e102682b1161007c578063e102682b14610539578063ea903c9e14610557578063ecc5fc2714610575578063f2fde38b14610591578063ff0938a7146105ad57610206565b8063bbf08554146104b1578063bedb86fb146104cf578063c42816ae146104eb578063ca6527be1461050957610206565b8063a023cf69116100e9578063a023cf6914610427578063a104dc6314610445578063a89b66c714610477578063b55a13bc1461049557610206565b80638666b844146103b15780638da5cb5b146103cf5780639b627a47146103ed5780639cb9a19a1461040b57610206565b80634e2ae27e1161019d57806371c7532e1161016c57806371c7532e1461031f578063767c9e1a1461034f5780637b8206a31461037f57806381022cf81461038957806382bcb4f61461039357610206565b80634e2ae27e146102bf5780635b8c058b146102dd5780635deeadd2146102f9578063715018a61461031557610206565b80632cb3d085116101d95780632cb3d0851461025b578063326519061461026557806336541c8e146102835780634bfb5433146102a157610206565b80630dfcb0fc1461020b5780631bf85fff146102295780631e82433f14610247578063269b634614610251575b600080fd5b6102136105cb565b60405161022091906126b7565b60405180910390f35b6102316105d1565b60405161023e91906126b7565b60405180910390f35b61024f6105d7565b005b610259610995565b005b610263610cfc565b005b61026d6112ce565b60405161027a91906126b7565b60405180910390f35b61028b6112d4565b6040516102989190612751565b60405180910390f35b6102a96112fa565b6040516102b69190612751565b60405180910390f35b6102c7611320565b6040516102d491906126b7565b60405180910390f35b6102f760048036038101906102f291906127a2565b611326565b005b610313600480360381019061030e919061281d565b611358565b005b61031d611392565b005b610339600480360381019061033491906128e8565b6113a6565b60405161034691906126b7565b60405180910390f35b610369600480360381019061036491906128e8565b6113be565b6040516103769190612930565b60405180910390f35b6103876113de565b005b610391611650565b005b61039b6119f9565b6040516103a891906126b7565b60405180910390f35b6103b96119ff565b6040516103c691906126b7565b60405180910390f35b6103d7611a05565b6040516103e4919061295a565b60405180910390f35b6103f5611a2e565b60405161040291906126b7565b60405180910390f35b610425600480360381019061042091906129b3565b611a34565b005b61042f611b79565b60405161043c91906126b7565b60405180910390f35b61045f600480360381019061045a91906129f3565b611b7f565b60405161046e93929190612a20565b60405180910390f35b61047f611bb9565b60405161048c91906126b7565b60405180910390f35b6104af60048036038101906104aa9190612abc565b611bbf565b005b6104b9611ca2565b6040516104c691906126b7565b60405180910390f35b6104e960048036038101906104e49190612b69565b611ca8565b005b6104f3611ccd565b60405161050091906126b7565b60405180910390f35b610523600480360381019061051e91906128e8565b611cd3565b6040516105309190612930565b60405180910390f35b610541611cf3565b60405161054e91906126b7565b60405180910390f35b61055f611cf9565b60405161056c9190612751565b60405180910390f35b61058f600480360381019061058a9190612b96565b611d1f565b005b6105ab60048036038101906105a691906128e8565b61211b565b005b6105b561219e565b6040516105c29190612930565b60405180910390f35b600f5481565b600d5481565b6105df6121b1565b600260009054906101000a900473ffffffffffffffffffffffffffffffffffffffff1673ffffffffffffffffffffffffffffffffffffffff1663a9059cbb33600260009054906101000a900473ffffffffffffffffffffffffffffffffffffffff1673ffffffffffffffffffffffffffffffffffffffff166370a08231306040518263ffffffff1660e01b8152600401610679919061295a565b602060405180830381865afa158015610696573d6000803e3d6000fd5b505050506040513d601f19601f820116820180604052508101906106ba9190612beb565b6040518363ffffffff1660e01b81526004016106d7929190612c18565b6020604051808303816000875af11580156106f6573d6000803e3d6000fd5b505050506040513d601f19601f8201168201806040525081019061071a9190612c56565b50600360009054906101000a900473ffffffffffffffffffffffffffffffffffffffff1673ffffffffffffffffffffffffffffffffffffffff1663a9059cbb33600360009054906101000a900473ffffffffffffffffffffffffffffffffffffffff1673ffffffffffffffffffffffffffffffffffffffff166370a08231306040518263ffffffff1660e01b81526004016107b5919061295a565b602060405180830381865afa1580156107d2573d6000803e3d6000fd5b505050506040513d601f19601f820116820180604052508101906107f69190612beb565b6040518363ffffffff1660e01b8152600401610813929190612c18565b6020604051808303816000875af1158015610832573d6000803e3d6000fd5b505050506040513d601f19601f820116820180604052508101906108569190612c56565b50600460009054906101000a900473ffffffffffffffffffffffffffffffffffffffff1673ffffffffffffffffffffffffffffffffffffffff1663a9059cbb33600460009054906101000a900473ffffffffffffffffffffffffffffffffffffffff1673ffffffffffffffffffffffffffffffffffffffff166370a08231306040518263ffffffff1660e01b81526004016108f1919061295a565b602060405180830381865afa15801561090e573d6000803e3d6000fd5b505050506040513d601f19601f820116820180604052508101906109329190612beb565b6040518363ffffffff1660e01b815260040161094f929190612c18565b6020604051808303816000875af115801561096e573d6000803e3d6000fd5b505050506040513d601f19601f820116820180604052508101906109929190612c56565b50565b6002600154036109da576040517f08c379a00000000000000000000000000000000000000000000000000000000081526004016109d190612ce0565b60405180910390fd5b6002600181905550600860009054906101000a900460ff1615610a32576040517f08c379a0000000000000000000000000000000000000000000000000000000008152600401610a2990612d4c565b60405180910390fd5b600660003373ffffffffffffffffffffffffffffffffffffffff1673ffffffffffffffffffffffffffffffffffffffff16815260200190815260200160002060009054906101000a900460ff16610abe576040517f08c379a0000000000000000000000000000000000000000000000000000000008152600401610ab590612db8565b60405180910390fd5b6000429050601580549050600760003373ffffffffffffffffffffffffffffffffffffffff1673ffffffffffffffffffffffffffffffffffffffff1681526020019081526020016000205410610b49576040517f08c379a0000000000000000000000000000000000000000000000000000000008152600401610b4090612e4a565b60405180910390fd5b60006015600760003373ffffffffffffffffffffffffffffffffffffffff1673ffffffffffffffffffffffffffffffffffffffff1681526020019081526020016000205481548110610b9e57610b9d612e6a565b5b9060005260206000209060030201604051806060016040529081600082015481526020016001820154815260200160028201548152505090508060400151821015610c1e576040517f08c379a0000000000000000000000000000000000000000000000000000000008152600401610c1590612ee5565b60405180910390fd5b600760003373ffffffffffffffffffffffffffffffffffffffff1673ffffffffffffffffffffffffffffffffffffffff1681526020019081526020016000206000815480929190610c6e90612f34565b91905055506000610ca16064610c93600f54856020015161222f90919063ffffffff16565b61224590919063ffffffff16565b9050610cf03382600460009054906101000a900473ffffffffffffffffffffffffffffffffffffffff1673ffffffffffffffffffffffffffffffffffffffff1661225b9092919063ffffffff16565b50505060018081905550565b600260015403610d41576040517f08c379a0000000000000000000000000000000000000000000000000000000008152600401610d3890612ce0565b60405180910390fd5b6002600181905550600860009054906101000a900460ff1615610d99576040517f08c379a0000000000000000000000000000000000000000000000000000000008152600401610d9090612d4c565b60405180910390fd5b6013544211158015610dad57506012544210155b610dec576040517f08c379a0000000000000000000000000000000000000000000000000000000008152600401610de390612fc8565b60405180910390fd5b600954600a5410610e32576040517f08c379a0000000000000000000000000000000000000000000000000000000008152600401610e2990613034565b60405180910390fd5b600560003373ffffffffffffffffffffffffffffffffffffffff1673ffffffffffffffffffffffffffffffffffffffff16815260200190815260200160002060009054906101000a900460ff16610ebe576040517f08c379a0000000000000000000000000000000000000000000000000000000008152600401610eb5906130a0565b60405180910390fd5b600660003373ffffffffffffffffffffffffffffffffffffffff1673ffffffffffffffffffffffffffffffffffffffff16815260200190815260200160002060009054906101000a900460ff1615610f4b576040517f08c379a0000000000000000000000000000000000000000000000000000000008152600401610f429061310c565b60405180910390fd5b600c54600360009054906101000a900473ffffffffffffffffffffffffffffffffffffffff1673ffffffffffffffffffffffffffffffffffffffff166370a08231336040518263ffffffff1660e01b8152600401610fa9919061295a565b602060405180830381865afa158015610fc6573d6000803e3d6000fd5b505050506040513d601f19601f82011682018060405250810190610fea9190612beb565b101561102b576040517f08c379a00000000000000000000000000000000000000000000000000000000081526004016110229061319e565b60405180910390fd5b600b54600260009054906101000a900473ffffffffffffffffffffffffffffffffffffffff1673ffffffffffffffffffffffffffffffffffffffff166370a08231336040518263ffffffff1660e01b8152600401611089919061295a565b602060405180830381865afa1580156110a6573d6000803e3d6000fd5b505050506040513d601f19601f820116820180604052508101906110ca9190612beb565b101561110b576040517f08c379a000000000000000000000000000000000000000000000000000000000815260040161110290613230565b60405180910390fd5b600260009054906101000a900473ffffffffffffffffffffffffffffffffffffffff1673ffffffffffffffffffffffffffffffffffffffff166323b872dd3330600b546040518463ffffffff1660e01b815260040161116c93929190613250565b6020604051808303816000875af115801561118b573d6000803e3d6000fd5b505050506040513d601f19601f820116820180604052508101906111af9190612c56565b50600360009054906101000a900473ffffffffffffffffffffffffffffffffffffffff1673ffffffffffffffffffffffffffffffffffffffff166323b872dd3330600c546040518463ffffffff1660e01b815260040161121193929190613250565b6020604051808303816000875af1158015611230573d6000803e3d6000fd5b505050506040513d601f19601f820116820180604052508101906112549190612c56565b506001600660003373ffffffffffffffffffffffffffffffffffffffff1673ffffffffffffffffffffffffffffffffffffffff16815260200190815260200160002060006101000a81548160ff021916908315150217905550600a60008154809291906112c090612f34565b919050555060018081905550565b60095481565b600260009054906101000a900473ffffffffffffffffffffffffffffffffffffffff1681565b600460009054906101000a900473ffffffffffffffffffffffffffffffffffffffff1681565b600b5481565b61132e6121b1565b84601081905550836011819055508260128190555081601381905550806014819055505050505050565b6113606121b1565b85600e819055508460098190555083600a8190555082600b8190555081600c8190555080600f81905550505050505050565b61139a6121b1565b6113a460006122e1565b565b60076020528060005260406000206000915090505481565b60066020528060005260406000206000915054906101000a900460ff1681565b600260015403611423576040517f08c379a000000000000000000000000000000000000000000000000000000000815260040161141a90612ce0565b60405180910390fd5b6002600181905550600860009054906101000a900460ff161561147b576040517f08c379a000000000000000000000000000000000000000000000000000000000815260040161147290612d4c565b60405180910390fd5b6014544210156114c0576040517f08c379a00000000000000000000000000000000000000000000000000000000081526004016114b7906132d3565b60405180910390fd5b600560003373ffffffffffffffffffffffffffffffffffffffff1673ffffffffffffffffffffffffffffffffffffffff16815260200190815260200160002060009054906101000a900460ff1661154c576040517f08c379a0000000000000000000000000000000000000000000000000000000008152600401611543906130a0565b60405180910390fd5b600260009054906101000a900473ffffffffffffffffffffffffffffffffffffffff1673ffffffffffffffffffffffffffffffffffffffff1663a9059cbb33600e546040518363ffffffff1660e01b81526004016115ab929190612c18565b6020604051808303816000875af11580156115ca573d6000803e3d6000fd5b505050506040513d601f19601f820116820180604052508101906115ee9190612c56565b506000600560003373ffffffffffffffffffffffffffffffffffffffff1673ffffffffffffffffffffffffffffffffffffffff16815260200190815260200160002060006101000a81548160ff02191690831515021790555060018081905550565b600260015403611695576040517f08c379a000000000000000000000000000000000000000000000000000000000815260040161168c90612ce0565b60405180910390fd5b6002600181905550600860009054906101000a900460ff16156116ed576040517f08c379a00000000000000000000000000000000000000000000000000000000081526004016116e490612d4c565b60405180910390fd5b601154421115801561170157506010544210155b611740576040517f08c379a00000000000000000000000000000000000000000000000000000000081526004016117379061333f565b60405180910390fd5b600560003373ffffffffffffffffffffffffffffffffffffffff1673ffffffffffffffffffffffffffffffffffffffff16815260200190815260200160002060009054906101000a900460ff16156117cd576040517f08c379a00000000000000000000000000000000000000000000000000000000081526004016117c4906133ab565b60405180910390fd5b600954600a5410611813576040517f08c379a000000000000000000000000000000000000000000000000000000000815260040161180a90613034565b60405180910390fd5b600d54600260009054906101000a900473ffffffffffffffffffffffffffffffffffffffff1673ffffffffffffffffffffffffffffffffffffffff166370a08231336040518263ffffffff1660e01b8152600401611871919061295a565b602060405180830381865afa15801561188e573d6000803e3d6000fd5b505050506040513d601f19601f820116820180604052508101906118b29190612beb565b10156118f3576040517f08c379a00000000000000000000000000000000000000000000000000000000081526004016118ea9061343d565b60405180910390fd5b600260009054906101000a900473ffffffffffffffffffffffffffffffffffffffff1673ffffffffffffffffffffffffffffffffffffffff166323b872dd3330600e546040518463ffffffff1660e01b815260040161195493929190613250565b6020604051808303816000875af1158015611973573d6000803e3d6000fd5b505050506040513d601f19601f820116820180604052508101906119979190612c56565b506001600560003373ffffffffffffffffffffffffffffffffffffffff1673ffffffffffffffffffffffffffffffffffffffff16815260200190815260200160002060006101000a81548160ff02191690831515021790555060018081905550565b60135481565b600c5481565b60008060009054906101000a900473ffffffffffffffffffffffffffffffffffffffff16905090565b60115481565b611a3c6121b1565b60008210158015611a4e575060028211155b611a8d576040517f08c379a0000000000000000000000000000000000000000000000000000000008152600401611a84906134cf565b60405180910390fd5b60008203611adb5780600260006101000a81548173ffffffffffffffffffffffffffffffffffffffff021916908373ffffffffffffffffffffffffffffffffffffffff160217905550611b75565b60018203611b295780600360006101000a81548173ffffffffffffffffffffffffffffffffffffffff021916908373ffffffffffffffffffffffffffffffffffffffff160217905550611b74565b60028203611b735780600460006101000a81548173ffffffffffffffffffffffffffffffffffffffff021916908373ffffffffffffffffffffffffffffffffffffffff1602179055505b5b5b5050565b600e5481565b60158181548110611b8f57600080fd5b90600052602060002090600302016000915090508060000154908060010154908060020154905083565b60105481565b611bc76121b1565b60156000611bd5919061262a565b60005b84849050811015611c9b57611beb61264e565b81816000018181525050838383818110611c0857611c07612e6a565b5b90506020020135816020018181525050858583818110611c2b57611c2a612e6a565b5b9050602002013581604001818152505060158190806001815401808255809150506001900390600052602060002090600302016000909190919091506000820151816000015560208201518160010155604082015181600201555050508080611c9390612f34565b915050611bd8565b5050505050565b60145481565b611cb06121b1565b80600860006101000a81548160ff02191690831515021790555050565b600a5481565b60056020528060005260406000206000915054906101000a900460ff1681565b60125481565b600360009054906101000a900473ffffffffffffffffffffffffffffffffffffffff1681565b611d276121b1565b60008203611dd557600260009054906101000a900473ffffffffffffffffffffffffffffffffffffffff1673ffffffffffffffffffffffffffffffffffffffff1663a9059cbb33836040518363ffffffff1660e01b8152600401611d8c929190612c18565b6020604051808303816000875af1158015611dab573d6000803e3d6000fd5b505050506040513d601f19601f82011682018060405250810190611dcf9190612c56565b50612117565b60018203611e8357600360009054906101000a900473ffffffffffffffffffffffffffffffffffffffff1673ffffffffffffffffffffffffffffffffffffffff1663a9059cbb33836040518363ffffffff1660e01b8152600401611e3a929190612c18565b6020604051808303816000875af1158015611e59573d6000803e3d6000fd5b505050506040513d601f19601f82011682018060405250810190611e7d9190612c56565b50612116565b60028203611f3157600460009054906101000a900473ffffffffffffffffffffffffffffffffffffffff1673ffffffffffffffffffffffffffffffffffffffff1663a9059cbb33836040518363ffffffff1660e01b8152600401611ee8929190612c18565b6020604051808303816000875af1158015611f07573d6000803e3d6000fd5b505050506040513d601f19601f82011682018060405250810190611f2b9190612c56565b50612115565b600260009054906101000a900473ffffffffffffffffffffffffffffffffffffffff1673ffffffffffffffffffffffffffffffffffffffff1663a9059cbb33836040518363ffffffff1660e01b8152600401611f8e929190612c18565b6020604051808303816000875af1158015611fad573d6000803e3d6000fd5b505050506040513d601f19601f82011682018060405250810190611fd19190612c56565b50600360009054906101000a900473ffffffffffffffffffffffffffffffffffffffff1673ffffffffffffffffffffffffffffffffffffffff1663a9059cbb33836040518363ffffffff1660e01b815260040161202f929190612c18565b6020604051808303816000875af115801561204e573d6000803e3d6000fd5b505050506040513d601f19601f820116820180604052508101906120729190612c56565b50600460009054906101000a900473ffffffffffffffffffffffffffffffffffffffff1673ffffffffffffffffffffffffffffffffffffffff1663a9059cbb33836040518363ffffffff1660e01b81526004016120d0929190612c18565b6020604051808303816000875af11580156120ef573d6000803e3d6000fd5b505050506040513d601f19601f820116820180604052508101906121139190612c56565b505b5b5b5050565b6121236121b1565b600073ffffffffffffffffffffffffffffffffffffffff168173ffffffffffffffffffffffffffffffffffffffff1603612192576040517f08c379a000000000000000000000000000000000000000000000000000000000815260040161218990613561565b60405180910390fd5b61219b816122e1565b50565b600860009054906101000a900460ff1681565b6121b96123a5565b73ffffffffffffffffffffffffffffffffffffffff166121d7611a05565b73ffffffffffffffffffffffffffffffffffffffff161461222d576040517f08c379a0000000000000000000000000000000000000000000000000000000008152600401612224906135cd565b60405180910390fd5b565b6000818361223d91906135ed565b905092915050565b60008183612253919061365e565b905092915050565b6122dc8363a9059cbb60e01b848460405160240161227a929190612c18565b604051602081830303815290604052907bffffffffffffffffffffffffffffffffffffffffffffffffffffffff19166020820180517bffffffffffffffffffffffffffffffffffffffffffffffffffffffff83818316178352505050506123ad565b505050565b60008060009054906101000a900473ffffffffffffffffffffffffffffffffffffffff169050816000806101000a81548173ffffffffffffffffffffffffffffffffffffffff021916908373ffffffffffffffffffffffffffffffffffffffff1602179055508173ffffffffffffffffffffffffffffffffffffffff168173ffffffffffffffffffffffffffffffffffffffff167f8be0079c531659141344cd1fd0a4f28419497f9722a3daafe3b4186f6b6457e060405160405180910390a35050565b600033905090565b600061240f826040518060400160405280602081526020017f5361666545524332303a206c6f772d6c6576656c2063616c6c206661696c65648152508573ffffffffffffffffffffffffffffffffffffffff166124749092919063ffffffff16565b905060008151111561246f578080602001905181019061242f9190612c56565b61246e576040517f08c379a000000000000000000000000000000000000000000000000000000000815260040161246590613701565b60405180910390fd5b5b505050565b6060612483848460008561248c565b90509392505050565b6060824710156124d1576040517f08c379a00000000000000000000000000000000000000000000000000000000081526004016124c890613793565b60405180910390fd5b6124da856125a0565b612519576040517f08c379a0000000000000000000000000000000000000000000000000000000008152600401612510906137ff565b60405180910390fd5b6000808673ffffffffffffffffffffffffffffffffffffffff1685876040516125429190613890565b60006040518083038185875af1925050503d806000811461257f576040519150601f19603f3d011682016040523d82523d6000602084013e612584565b606091505b50915091506125948282866125c3565b92505050949350505050565b6000808273ffffffffffffffffffffffffffffffffffffffff163b119050919050565b606083156125d357829050612623565b6000835111156125e65782518084602001fd5b816040517f08c379a000000000000000000000000000000000000000000000000000000000815260040161261a91906138fc565b60405180910390fd5b9392505050565b508054600082556003029060005260206000209081019061264b919061266f565b50565b60405180606001604052806000815260200160008152602001600081525090565b5b8082111561269a576000808201600090556001820160009055600282016000905550600301612670565b5090565b6000819050919050565b6126b18161269e565b82525050565b60006020820190506126cc60008301846126a8565b92915050565b600073ffffffffffffffffffffffffffffffffffffffff82169050919050565b6000819050919050565b600061271761271261270d846126d2565b6126f2565b6126d2565b9050919050565b6000612729826126fc565b9050919050565b600061273b8261271e565b9050919050565b61274b81612730565b82525050565b60006020820190506127666000830184612742565b92915050565b600080fd5b600080fd5b61277f8161269e565b811461278a57600080fd5b50565b60008135905061279c81612776565b92915050565b600080600080600060a086880312156127be576127bd61276c565b5b60006127cc8882890161278d565b95505060206127dd8882890161278d565b94505060406127ee8882890161278d565b93505060606127ff8882890161278d565b92505060806128108882890161278d565b9150509295509295909350565b60008060008060008060c0878903121561283a5761283961276c565b5b600061284889828a0161278d565b965050602061285989828a0161278d565b955050604061286a89828a0161278d565b945050606061287b89828a0161278d565b935050608061288c89828a0161278d565b92505060a061289d89828a0161278d565b9150509295509295509295565b60006128b5826126d2565b9050919050565b6128c5816128aa565b81146128d057600080fd5b50565b6000813590506128e2816128bc565b92915050565b6000602082840312156128fe576128fd61276c565b5b600061290c848285016128d3565b91505092915050565b60008115159050919050565b61292a81612915565b82525050565b60006020820190506129456000830184612921565b92915050565b612954816128aa565b82525050565b600060208201905061296f600083018461294b565b92915050565b6000612980826128aa565b9050919050565b61299081612975565b811461299b57600080fd5b50565b6000813590506129ad81612987565b92915050565b600080604083850312156129ca576129c961276c565b5b60006129d88582860161278d565b92505060206129e98582860161299e565b9150509250929050565b600060208284031215612a0957612a0861276c565b5b6000612a178482850161278d565b91505092915050565b6000606082019050612a3560008301866126a8565b612a4260208301856126a8565b612a4f60408301846126a8565b949350505050565b600080fd5b600080fd5b600080fd5b60008083601f840112612a7c57612a7b612a57565b5b8235905067ffffffffffffffff811115612a9957612a98612a5c565b5b602083019150836020820283011115612ab557612ab4612a61565b5b9250929050565b60008060008060408587031215612ad657612ad561276c565b5b600085013567ffffffffffffffff811115612af457612af3612771565b5b612b0087828801612a66565b9450945050602085013567ffffffffffffffff811115612b2357612b22612771565b5b612b2f87828801612a66565b925092505092959194509250565b612b4681612915565b8114612b5157600080fd5b50565b600081359050612b6381612b3d565b92915050565b600060208284031215612b7f57612b7e61276c565b5b6000612b8d84828501612b54565b91505092915050565b60008060408385031215612bad57612bac61276c565b5b6000612bbb8582860161278d565b9250506020612bcc8582860161278d565b9150509250929050565b600081519050612be581612776565b92915050565b600060208284031215612c0157612c0061276c565b5b6000612c0f84828501612bd6565b91505092915050565b6000604082019050612c2d600083018561294b565b612c3a60208301846126a8565b9392505050565b600081519050612c5081612b3d565b92915050565b600060208284031215612c6c57612c6b61276c565b5b6000612c7a84828501612c41565b91505092915050565b600082825260208201905092915050565b7f5265656e7472616e637947756172643a207265656e7472616e742063616c6c00600082015250565b6000612cca601f83612c83565b9150612cd582612c94565b602082019050919050565b60006020820190508181036000830152612cf981612cbd565b9050919050565b7f536d61727420636f6e7472616374206973207061757365640000000000000000600082015250565b6000612d36601883612c83565b9150612d4182612d00565b602082019050919050565b60006020820190508181036000830152612d6581612d29565b9050919050565b7f596f7520686176656e277420626f7567687420736c6f74000000000000000000600082015250565b6000612da2601783612c83565b9150612dad82612d6c565b602082019050919050565b60006020820190508181036000830152612dd181612d95565b9050919050565b7f596f75206861766520636c61696d656420616c6c206f6620796f757220746f6b60008201527f656e730000000000000000000000000000000000000000000000000000000000602082015250565b6000612e34602383612c83565b9150612e3f82612dd8565b604082019050919050565b60006020820190508181036000830152612e6381612e27565b9050919050565b7f4e487b7100000000000000000000000000000000000000000000000000000000600052603260045260246000fd5b7f436c61696d2074696d65206973206e6f74207374617274656400000000000000600082015250565b6000612ecf601983612c83565b9150612eda82612e99565b602082019050919050565b60006020820190508181036000830152612efe81612ec2565b9050919050565b7f4e487b7100000000000000000000000000000000000000000000000000000000600052601160045260246000fd5b6000612f3f8261269e565b91507fffffffffffffffffffffffffffffffffffffffffffffffffffffffffffffffff8203612f7157612f70612f05565b5b600182019050919050565b7f496e76616c69642062757920736c6f742074696d650000000000000000000000600082015250565b6000612fb2601583612c83565b9150612fbd82612f7c565b602082019050919050565b60006020820190508181036000830152612fe181612fa5565b9050919050565b7f4f7574206f6620736c6f74730000000000000000000000000000000000000000600082015250565b600061301e600c83612c83565b915061302982612fe8565b602082019050919050565b6000602082019050818103600083015261304d81613011565b9050919050565b7f596f7520686176656e2774207374616b65640000000000000000000000000000600082015250565b600061308a601283612c83565b915061309582613054565b602082019050919050565b600060208201905081810360008301526130b98161307d565b9050919050565b7f596f7520616c726561647920626f7567687420736c6f74000000000000000000600082015250565b60006130f6601783612c83565b9150613101826130c0565b602082019050919050565b60006020820190508181036000830152613125816130e9565b9050919050565b7f596f7572206163636f756e7420646f65736e2774206861766520656e6f75676860008201527f204255534420746f6b656e20746f2062757920736c6f74000000000000000000602082015250565b6000613188603783612c83565b91506131938261312c565b604082019050919050565b600060208201905081810360008301526131b78161317b565b9050919050565b7f596f7572206163636f756e7420646f65736e2774206861766520656e6f75676860008201527f2042616d6920746f6b656e20746f2062757920736c6f74000000000000000000602082015250565b600061321a603783612c83565b9150613225826131be565b604082019050919050565b600060208201905081810360008301526132498161320d565b9050919050565b6000606082019050613265600083018661294b565b613272602083018561294b565b61327f60408301846126a8565b949350505050565b7f496e76616c696420756e7374616b652074696d65000000000000000000000000600082015250565b60006132bd601483612c83565b91506132c882613287565b602082019050919050565b600060208201905081810360008301526132ec816132b0565b9050919050565b7f496e76616c6964207374616b696e672074696d65000000000000000000000000600082015250565b6000613329601483612c83565b9150613334826132f3565b602082019050919050565b600060208201905081810360008301526133588161331c565b9050919050565b7f596f7520616c7265616479207374616b65640000000000000000000000000000600082015250565b6000613395601283612c83565b91506133a08261335f565b602082019050919050565b600060208201905081810360008301526133c481613388565b9050919050565b7f596f7572206163636f756e7420646f65736e2774206861766520656e6f75676860008201527f2042616d6920746f6b656e20746f207374616b65000000000000000000000000602082015250565b6000613427603483612c83565b9150613432826133cb565b604082019050919050565b600060208201905081810360008301526134568161341a565b9050919050565b7f496e707574203020666f722042616d692c203120666f7220425553442c20322060008201527f666f72204865736d616e00000000000000000000000000000000000000000000602082015250565b60006134b9602a83612c83565b91506134c48261345d565b604082019050919050565b600060208201905081810360008301526134e8816134ac565b9050919050565b7f4f776e61626c653a206e6577206f776e657220697320746865207a65726f206160008201527f6464726573730000000000000000000000000000000000000000000000000000602082015250565b600061354b602683612c83565b9150613556826134ef565b604082019050919050565b6000602082019050818103600083015261357a8161353e565b9050919050565b7f4f776e61626c653a2063616c6c6572206973206e6f7420746865206f776e6572600082015250565b60006135b7602083612c83565b91506135c282613581565b602082019050919050565b600060208201905081810360008301526135e6816135aa565b9050919050565b60006135f88261269e565b91506136038361269e565b92508282026136118161269e565b9150828204841483151761362857613627612f05565b5b5092915050565b7f4e487b7100000000000000000000000000000000000000000000000000000000600052601260045260246000fd5b60006136698261269e565b91506136748361269e565b9250826136845761368361362f565b5b828204905092915050565b7f5361666545524332303a204552433230206f7065726174696f6e20646964206e60008201527f6f74207375636365656400000000000000000000000000000000000000000000602082015250565b60006136eb602a83612c83565b91506136f68261368f565b604082019050919050565b6000602082019050818103600083015261371a816136de565b9050919050565b7f416464726573733a20696e73756666696369656e742062616c616e636520666f60008201527f722063616c6c0000000000000000000000000000000000000000000000000000602082015250565b600061377d602683612c83565b915061378882613721565b604082019050919050565b600060208201905081810360008301526137ac81613770565b9050919050565b7f416464726573733a2063616c6c20746f206e6f6e2d636f6e7472616374000000600082015250565b60006137e9601d83612c83565b91506137f4826137b3565b602082019050919050565b60006020820190508181036000830152613818816137dc565b9050919050565b600081519050919050565b600081905092915050565b60005b83811015613853578082015181840152602081019050613838565b60008484015250505050565b600061386a8261381f565b613874818561382a565b9350613884818560208601613835565b80840191505092915050565b600061389c828461385f565b915081905092915050565b600081519050919050565b6000601f19601f8301169050919050565b60006138ce826138a7565b6138d88185612c83565b93506138e8818560208601613835565b6138f1816138b2565b840191505092915050565b6000602082019050818103600083015261391681846138c3565b90509291505056fea264697066735822122042cb856e34b8d7509e14ea08b825170e4889dad2e4a0087748e38a9a8640115964736f6c63430008110033",
  "linkReferences": {},
  "deployedLinkReferences": {}
}