{
  "_format": "hh-sol-artifact-1",
  "contractName": "Pool2",
  "sourceName": "Contracts/Pool2.sol",
  "abi": [
    {
      "inputs": [
        {
          "internalType": "contract ERC20",
          "name": "_bamiTokenAddress",
          "type": "address"
        },
        {
          "internalType": "contract ERC20",
          "name": "_BUSDTokenAddress",
          "type": "address"
        },
        {
          "internalType": "contract ERC20",
          "name": "_hesmanTokenAddress",
          "type": "address"
        }
      ],
      "stateMutability": "nonpayable",
      "type": "constructor"
    },
    {
      "anonymous": false,
      "inputs": [
        {
          "indexed": true,
          "internalType": "address",
          "name": "previousOwner",
          "type": "address"
        },
        {
          "indexed": true,
          "internalType": "address",
          "name": "newOwner",
          "type": "address"
        }
      ],
      "name": "OwnershipTransferred",
      "type": "event"
    },
    {
      "inputs": [],
      "name": "BUSDToBuySlot",
      "outputs": [
        {
          "internalType": "uint256",
          "name": "",
          "type": "uint256"
        }
      ],
      "stateMutability": "view",
      "type": "function"
    },
    {
      "inputs": [],
      "name": "BUSDTokenAddress",
      "outputs": [
        {
          "internalType": "contract ERC20",
          "name": "",
          "type": "address"
        }
      ],
      "stateMutability": "view",
      "type": "function"
    },
    {
      "inputs": [],
      "name": "BamiToBuySlot",
      "outputs": [
        {
          "internalType": "uint256",
          "name": "",
          "type": "uint256"
        }
      ],
      "stateMutability": "view",
      "type": "function"
    },
    {
      "inputs": [
        {
          "internalType": "uint256",
          "name": "",
          "type": "uint256"
        }
      ],
      "name": "ClaimStageList",
      "outputs": [
        {
          "internalType": "uint256",
          "name": "claimIndex",
          "type": "uint256"
        },
        {
          "internalType": "uint256",
          "name": "claimPercent",
          "type": "uint256"
        },
        {
          "internalType": "uint256",
          "name": "claimTimestamp",
          "type": "uint256"
        }
      ],
      "stateMutability": "view",
      "type": "function"
    },
    {
      "inputs": [],
      "name": "EmergencyWithdrawAllToken",
      "outputs": [],
      "stateMutability": "nonpayable",
      "type": "function"
    },
    {
      "inputs": [],
      "name": "bamiTokenAddress",
      "outputs": [
        {
          "internalType": "contract ERC20",
          "name": "",
          "type": "address"
        }
      ],
      "stateMutability": "view",
      "type": "function"
    },
    {
      "inputs": [
        {
          "internalType": "address",
          "name": "",
          "type": "address"
        }
      ],
      "name": "blacklist",
      "outputs": [
        {
          "internalType": "bool",
          "name": "",
          "type": "bool"
        }
      ],
      "stateMutability": "view",
      "type": "function"
    },
    {
      "inputs": [],
      "name": "buySlot",
      "outputs": [],
      "stateMutability": "nonpayable",
      "type": "function"
    },
    {
      "inputs": [],
      "name": "buySlotTimeEnd",
      "outputs": [
        {
          "internalType": "uint256",
          "name": "",
          "type": "uint256"
        }
      ],
      "stateMutability": "view",
      "type": "function"
    },
    {
      "inputs": [],
      "name": "buySlotTimeStart",
      "outputs": [
        {
          "internalType": "uint256",
          "name": "",
          "type": "uint256"
        }
      ],
      "stateMutability": "view",
      "type": "function"
    },
    {
      "inputs": [
        {
          "internalType": "uint256",
          "name": "_options",
          "type": "uint256"
        },
        {
          "internalType": "contract ERC20",
          "name": "_tokenAddress",
          "type": "address"
        }
      ],
      "name": "changeTokenAddress",
      "outputs": [],
      "stateMutability": "nonpayable",
      "type": "function"
    },
    {
      "inputs": [],
      "name": "claimHesman",
      "outputs": [],
      "stateMutability": "nonpayable",
      "type": "function"
    },
    {
      "inputs": [
        {
          "internalType": "uint256",
          "name": "_stakePrice",
          "type": "uint256"
        },
        {
          "internalType": "uint256",
          "name": "_totalSlots",
          "type": "uint256"
        },
        {
          "internalType": "uint256",
          "name": "_slotHasBeenBought",
          "type": "uint256"
        },
        {
          "internalType": "uint256",
          "name": "_BamiToBuySlot",
          "type": "uint256"
        },
        {
          "internalType": "uint256",
          "name": "_BUSDToBuySlot",
          "type": "uint256"
        },
        {
          "internalType": "uint256",
          "name": "_hesmanClaimPerSlot",
          "type": "uint256"
        }
      ],
      "name": "configPriceAndSlot",
      "outputs": [],
      "stateMutability": "nonpayable",
      "type": "function"
    },
    {
      "inputs": [
        {
          "internalType": "uint256",
          "name": "_stakingTimeStart",
          "type": "uint256"
        },
        {
          "internalType": "uint256",
          "name": "_stakingTimeEnd",
          "type": "uint256"
        },
        {
          "internalType": "uint256",
          "name": "_buySlotTimeStart",
          "type": "uint256"
        },
        {
          "internalType": "uint256",
          "name": "_buySlotTimeEnd",
          "type": "uint256"
        },
        {
          "internalType": "uint256",
          "name": "_unStakeTimeStart",
          "type": "uint256"
        }
      ],
      "name": "configTimer",
      "outputs": [],
      "stateMutability": "nonpayable",
      "type": "function"
    },
    {
      "inputs": [],
      "name": "hesmanClaimPerSlot",
      "outputs": [
        {
          "internalType": "uint256",
          "name": "",
          "type": "uint256"
        }
      ],
      "stateMutability": "view",
      "type": "function"
    },
    {
      "inputs": [],
      "name": "hesmanTokenAddress",
      "outputs": [
        {
          "internalType": "contract ERC20",
          "name": "",
          "type": "address"
        }
      ],
      "stateMutability": "view",
      "type": "function"
    },
    {
      "inputs": [],
      "name": "isPause",
      "outputs": [
        {
          "internalType": "bool",
          "name": "",
          "type": "bool"
        }
      ],
      "stateMutability": "view",
      "type": "function"
    },
    {
      "inputs": [
        {
          "internalType": "address",
          "name": "",
          "type": "address"
        }
      ],
      "name": "nextStageIndex",
      "outputs": [
        {
          "internalType": "uint256",
          "name": "",
          "type": "uint256"
        }
      ],
      "stateMutability": "view",
      "type": "function"
    },
    {
      "inputs": [],
      "name": "owner",
      "outputs": [
        {
          "internalType": "address",
          "name": "",
          "type": "address"
        }
      ],
      "stateMutability": "view",
      "type": "function"
    },
    {
      "inputs": [
        {
          "internalType": "uint256",
          "name": "_options",
          "type": "uint256"
        },
        {
          "internalType": "uint256",
          "name": "_amount",
          "type": "uint256"
        }
      ],
      "name": "ownerWithdrawToken",
      "outputs": [],
      "stateMutability": "nonpayable",
      "type": "function"
    },
    {
      "inputs": [],
      "name": "renounceOwnership",
      "outputs": [],
      "stateMutability": "nonpayable",
      "type": "function"
    },
    {
      "inputs": [
        {
          "internalType": "address",
          "name": "_address",
          "type": "address"
        },
        {
          "internalType": "bool",
          "name": "_isBlackList",
          "type": "bool"
        }
      ],
      "name": "setBlackList",
      "outputs": [],
      "stateMutability": "nonpayable",
      "type": "function"
    },
    {
      "inputs": [
        {
          "internalType": "uint256[]",
          "name": "_claimTimestamp",
          "type": "uint256[]"
        },
        {
          "internalType": "uint256[]",
          "name": "_claimPercent",
          "type": "uint256[]"
        }
      ],
      "name": "setClaimStage",
      "outputs": [],
      "stateMutability": "nonpayable",
      "type": "function"
    },
    {
      "inputs": [
        {
          "internalType": "bool",
          "name": "_pause",
          "type": "bool"
        }
      ],
      "name": "setPause",
      "outputs": [],
      "stateMutability": "nonpayable",
      "type": "function"
    },
    {
      "inputs": [],
      "name": "slotHasBeenBought",
      "outputs": [
        {
          "internalType": "uint256",
          "name": "",
          "type": "uint256"
        }
      ],
      "stateMutability": "view",
      "type": "function"
    },
    {
      "inputs": [],
      "name": "stakeBamiToken",
      "outputs": [],
      "stateMutability": "nonpayable",
      "type": "function"
    },
    {
      "inputs": [],
      "name": "stakePrice",
      "outputs": [
        {
          "internalType": "uint256",
          "name": "",
          "type": "uint256"
        }
      ],
      "stateMutability": "view",
      "type": "function"
    },
    {
      "inputs": [],
      "name": "stakingTimeEnd",
      "outputs": [
        {
          "internalType": "uint256",
          "name": "",
          "type": "uint256"
        }
      ],
      "stateMutability": "view",
      "type": "function"
    },
    {
      "inputs": [],
      "name": "stakingTimeStart",
      "outputs": [
        {
          "internalType": "uint256",
          "name": "",
          "type": "uint256"
        }
      ],
      "stateMutability": "view",
      "type": "function"
    },
    {
      "inputs": [],
      "name": "totalSlots",
      "outputs": [
        {
          "internalType": "uint256",
          "name": "",
          "type": "uint256"
        }
      ],
      "stateMutability": "view",
      "type": "function"
    },
    {
      "inputs": [
        {
          "internalType": "address",
          "name": "newOwner",
          "type": "address"
        }
      ],
      "name": "transferOwnership",
      "outputs": [],
      "stateMutability": "nonpayable",
      "type": "function"
    },
    {
      "inputs": [],
      "name": "unStakeTimeStart",
      "outputs": [
        {
          "internalType": "uint256",
          "name": "",
          "type": "uint256"
        }
      ],
      "stateMutability": "view",
      "type": "function"
    },
    {
      "inputs": [
        {
          "internalType": "address",
          "name": "",
          "type": "address"
        }
      ],
      "name": "userAlreadyStake",
      "outputs": [
        {
          "internalType": "bool",
          "name": "",
          "type": "bool"
        }
      ],
      "stateMutability": "view",
      "type": "function"
    },
    {
      "inputs": [
        {
          "internalType": "address",
          "name": "",
          "type": "address"
        }
      ],
      "name": "userHasBoughtSlot",
      "outputs": [
        {
          "internalType": "bool",
          "name": "",
          "type": "bool"
        }
      ],
      "stateMutability": "view",
      "type": "function"
    }
  ],
  "bytecode": "0x60806040523480156200001157600080fd5b5060405162003bea38038062003bea83398181016040528101906200003791906200036d565b620000576200004b6200013c60201b60201c565b6200014460201b60201c565b6001808190555082600260006101000a81548173ffffffffffffffffffffffffffffffffffffffff021916908373ffffffffffffffffffffffffffffffffffffffff16021790555081600360006101000a81548173ffffffffffffffffffffffffffffffffffffffff021916908373ffffffffffffffffffffffffffffffffffffffff16021790555080600460006101000a81548173ffffffffffffffffffffffffffffffffffffffff021916908373ffffffffffffffffffffffffffffffffffffffff1602179055506200013360016200020860201b60201c565b5050506200044c565b600033905090565b60008060009054906101000a900473ffffffffffffffffffffffffffffffffffffffff169050816000806101000a81548173ffffffffffffffffffffffffffffffffffffffff021916908373ffffffffffffffffffffffffffffffffffffffff1602179055508173ffffffffffffffffffffffffffffffffffffffff168173ffffffffffffffffffffffffffffffffffffffff167f8be0079c531659141344cd1fd0a4f28419497f9722a3daafe3b4186f6b6457e060405160405180910390a35050565b620002186200023560201b60201c565b80600960006101000a81548160ff02191690831515021790555050565b620002456200013c60201b60201c565b73ffffffffffffffffffffffffffffffffffffffff166200026b620002c660201b60201c565b73ffffffffffffffffffffffffffffffffffffffff1614620002c4576040517f08c379a0000000000000000000000000000000000000000000000000000000008152600401620002bb906200042a565b60405180910390fd5b565b60008060009054906101000a900473ffffffffffffffffffffffffffffffffffffffff16905090565b600080fd5b600073ffffffffffffffffffffffffffffffffffffffff82169050919050565b60006200032182620002f4565b9050919050565b6000620003358262000314565b9050919050565b620003478162000328565b81146200035357600080fd5b50565b60008151905062000367816200033c565b92915050565b600080600060608486031215620003895762000388620002ef565b5b6000620003998682870162000356565b9350506020620003ac8682870162000356565b9250506040620003bf8682870162000356565b9150509250925092565b600082825260208201905092915050565b7f4f776e61626c653a2063616c6c6572206973206e6f7420746865206f776e6572600082015250565b600062000412602083620003c9565b91506200041f82620003da565b602082019050919050565b60006020820190508181036000830152620004458162000403565b9050919050565b61378e806200045c6000396000f3fe608060405234801561001057600080fd5b50600436106102065760003560e01c80638da5cb5b1161011a578063bedb86fb116100ad578063ea903c9e1161007c578063ea903c9e1461054b578063ecc5fc2714610569578063f2fde38b14610585578063f9f92be4146105a1578063ff0938a7146105d157610206565b8063bedb86fb146104c3578063c42816ae146104df578063ca6527be146104fd578063e102682b1461052d57610206565b8063a104dc63116100e9578063a104dc6314610439578063a89b66c71461046b578063b55a13bc14610489578063bbf08554146104a557610206565b80638da5cb5b146103c35780639b627a47146103e15780639cb9a19a146103ff578063a023cf691461041b57610206565b80635bde226f1161019d57806371c7532e1161016c57806371c7532e1461031d578063767c9e1a1461034d57806381022cf81461037d57806382bcb4f6146103875780638666b844146103a557610206565b80635bde226f146102bd5780635deeadd2146102db57806368092bd9146102f7578063715018a61461031357610206565b806336541c8e116101d957806336541c8e146102475780634bfb5433146102655780634e2ae27e146102835780635b8c058b146102a157610206565b80631e82433f1461020b578063269b6346146102155780632cb3d0851461021f5780633265190614610229575b600080fd5b6102136105ef565b005b61021d6109ad565b005b610227610da1565b005b610231611400565b60405161023e9190612491565b60405180910390f35b61024f611406565b60405161025c919061252b565b60405180910390f35b61026d61142c565b60405161027a919061252b565b60405180910390f35b61028b611452565b6040516102989190612491565b60405180910390f35b6102bb60048036038101906102b6919061257c565b611458565b005b6102c56114cc565b6040516102d29190612491565b60405180910390f35b6102f560048036038101906102f091906125f7565b6114d2565b005b610311600480360381019061030c91906126fa565b61150c565b005b61031b61156f565b005b6103376004803603810190610332919061273a565b611583565b6040516103449190612491565b60405180910390f35b6103676004803603810190610362919061273a565b61159b565b6040516103749190612776565b60405180910390f35b6103856115bb565b005b61038f6119ab565b60405161039c9190612491565b60405180910390f35b6103ad6119b1565b6040516103ba9190612491565b60405180910390f35b6103cb6119b7565b6040516103d891906127a0565b60405180910390f35b6103e96119e0565b6040516103f69190612491565b60405180910390f35b610419600480360381019061041491906127f9565b6119e6565b005b610423611b2b565b6040516104309190612491565b60405180910390f35b610453600480360381019061044e9190612839565b611b31565b60405161046293929190612866565b60405180910390f35b610473611b6b565b6040516104809190612491565b60405180910390f35b6104a3600480360381019061049e9190612902565b611b71565b005b6104ad611c54565b6040516104ba9190612491565b60405180910390f35b6104dd60048036038101906104d89190612983565b611c5a565b005b6104e7611c7f565b6040516104f49190612491565b60405180910390f35b6105176004803603810190610512919061273a565b611c85565b6040516105249190612776565b60405180910390f35b610535611ca5565b6040516105429190612491565b60405180910390f35b610553611cab565b604051610560919061252b565b60405180910390f35b610583600480360381019061057e91906129b0565b611cd1565b005b61059f600480360381019061059a919061273a565b611ed5565b005b6105bb60048036038101906105b6919061273a565b611f58565b6040516105c89190612776565b60405180910390f35b6105d9611f78565b6040516105e69190612776565b60405180910390f35b6105f7611f8b565b600260009054906101000a900473ffffffffffffffffffffffffffffffffffffffff1673ffffffffffffffffffffffffffffffffffffffff1663a9059cbb33600260009054906101000a900473ffffffffffffffffffffffffffffffffffffffff1673ffffffffffffffffffffffffffffffffffffffff166370a08231306040518263ffffffff1660e01b815260040161069191906127a0565b602060405180830381865afa1580156106ae573d6000803e3d6000fd5b505050506040513d601f19601f820116820180604052508101906106d29190612a05565b6040518363ffffffff1660e01b81526004016106ef929190612a32565b6020604051808303816000875af115801561070e573d6000803e3d6000fd5b505050506040513d601f19601f820116820180604052508101906107329190612a70565b50600360009054906101000a900473ffffffffffffffffffffffffffffffffffffffff1673ffffffffffffffffffffffffffffffffffffffff1663a9059cbb33600360009054906101000a900473ffffffffffffffffffffffffffffffffffffffff1673ffffffffffffffffffffffffffffffffffffffff166370a08231306040518263ffffffff1660e01b81526004016107cd91906127a0565b602060405180830381865afa1580156107ea573d6000803e3d6000fd5b505050506040513d601f19601f8201168201806040525081019061080e9190612a05565b6040518363ffffffff1660e01b815260040161082b929190612a32565b6020604051808303816000875af115801561084a573d6000803e3d6000fd5b505050506040513d601f19601f8201168201806040525081019061086e9190612a70565b50600460009054906101000a900473ffffffffffffffffffffffffffffffffffffffff1673ffffffffffffffffffffffffffffffffffffffff1663a9059cbb33600460009054906101000a900473ffffffffffffffffffffffffffffffffffffffff1673ffffffffffffffffffffffffffffffffffffffff166370a08231306040518263ffffffff1660e01b815260040161090991906127a0565b602060405180830381865afa158015610926573d6000803e3d6000fd5b505050506040513d601f19601f8201168201806040525081019061094a9190612a05565b6040518363ffffffff1660e01b8152600401610967929190612a32565b6020604051808303816000875af1158015610986573d6000803e3d6000fd5b505050506040513d601f19601f820116820180604052508101906109aa9190612a70565b50565b6002600154036109f2576040517f08c379a00000000000000000000000000000000000000000000000000000000081526004016109e990612afa565b60405180910390fd5b6002600181905550600960009054906101000a900460ff1615610a4a576040517f08c379a0000000000000000000000000000000000000000000000000000000008152600401610a4190612b66565b60405180910390fd5b600860003373ffffffffffffffffffffffffffffffffffffffff1673ffffffffffffffffffffffffffffffffffffffff16815260200190815260200160002060009054906101000a900460ff1615610ad7576040517f08c379a0000000000000000000000000000000000000000000000000000000008152600401610ace90612bd2565b60405180910390fd5b600660003373ffffffffffffffffffffffffffffffffffffffff1673ffffffffffffffffffffffffffffffffffffffff16815260200190815260200160002060009054906101000a900460ff16610b63576040517f08c379a0000000000000000000000000000000000000000000000000000000008152600401610b5a90612c3e565b60405180910390fd5b6000429050601580549050600760003373ffffffffffffffffffffffffffffffffffffffff1673ffffffffffffffffffffffffffffffffffffffff1681526020019081526020016000205410610bee576040517f08c379a0000000000000000000000000000000000000000000000000000000008152600401610be590612cd0565b60405180910390fd5b60006015600760003373ffffffffffffffffffffffffffffffffffffffff1673ffffffffffffffffffffffffffffffffffffffff1681526020019081526020016000205481548110610c4357610c42612cf0565b5b9060005260206000209060030201604051806060016040529081600082015481526020016001820154815260200160028201548152505090508060400151821015610cc3576040517f08c379a0000000000000000000000000000000000000000000000000000000008152600401610cba90612d6b565b60405180910390fd5b600760003373ffffffffffffffffffffffffffffffffffffffff1673ffffffffffffffffffffffffffffffffffffffff1681526020019081526020016000206000815480929190610d1390612dba565b91905055506000610d466064610d38600d54856020015161200990919063ffffffff16565b61201f90919063ffffffff16565b9050610d953382600460009054906101000a900473ffffffffffffffffffffffffffffffffffffffff1673ffffffffffffffffffffffffffffffffffffffff166120359092919063ffffffff16565b50505060018081905550565b600260015403610de6576040517f08c379a0000000000000000000000000000000000000000000000000000000008152600401610ddd90612afa565b60405180910390fd5b6002600181905550600960009054906101000a900460ff1615610e3e576040517f08c379a0000000000000000000000000000000000000000000000000000000008152600401610e3590612b66565b60405180910390fd5b600860003373ffffffffffffffffffffffffffffffffffffffff1673ffffffffffffffffffffffffffffffffffffffff16815260200190815260200160002060009054906101000a900460ff1615610ecb576040517f08c379a0000000000000000000000000000000000000000000000000000000008152600401610ec290612bd2565b60405180910390fd5b6013544211158015610edf57506012544210155b610f1e576040517f08c379a0000000000000000000000000000000000000000000000000000000008152600401610f1590612e4e565b60405180910390fd5b600e54600f5410610f64576040517f08c379a0000000000000000000000000000000000000000000000000000000008152600401610f5b90612eba565b60405180910390fd5b600560003373ffffffffffffffffffffffffffffffffffffffff1673ffffffffffffffffffffffffffffffffffffffff16815260200190815260200160002060009054906101000a900460ff16610ff0576040517f08c379a0000000000000000000000000000000000000000000000000000000008152600401610fe790612f26565b60405180910390fd5b600660003373ffffffffffffffffffffffffffffffffffffffff1673ffffffffffffffffffffffffffffffffffffffff16815260200190815260200160002060009054906101000a900460ff161561107d576040517f08c379a000000000000000000000000000000000000000000000000000000000815260040161107490612f92565b60405180910390fd5b600a54600260009054906101000a900473ffffffffffffffffffffffffffffffffffffffff1673ffffffffffffffffffffffffffffffffffffffff166370a08231336040518263ffffffff1660e01b81526004016110db91906127a0565b602060405180830381865afa1580156110f8573d6000803e3d6000fd5b505050506040513d601f19601f8201168201806040525081019061111c9190612a05565b101561115d576040517f08c379a000000000000000000000000000000000000000000000000000000000815260040161115490612ffe565b60405180910390fd5b600b54600360009054906101000a900473ffffffffffffffffffffffffffffffffffffffff1673ffffffffffffffffffffffffffffffffffffffff166370a08231336040518263ffffffff1660e01b81526004016111bb91906127a0565b602060405180830381865afa1580156111d8573d6000803e3d6000fd5b505050506040513d601f19601f820116820180604052508101906111fc9190612a05565b101561123d576040517f08c379a00000000000000000000000000000000000000000000000000000000081526004016112349061306a565b60405180910390fd5b600260009054906101000a900473ffffffffffffffffffffffffffffffffffffffff1673ffffffffffffffffffffffffffffffffffffffff166323b872dd3330600a546040518463ffffffff1660e01b815260040161129e9392919061308a565b6020604051808303816000875af11580156112bd573d6000803e3d6000fd5b505050506040513d601f19601f820116820180604052508101906112e19190612a70565b50600360009054906101000a900473ffffffffffffffffffffffffffffffffffffffff1673ffffffffffffffffffffffffffffffffffffffff166323b872dd3330600b546040518463ffffffff1660e01b81526004016113439392919061308a565b6020604051808303816000875af1158015611362573d6000803e3d6000fd5b505050506040513d601f19601f820116820180604052508101906113869190612a70565b506001600660003373ffffffffffffffffffffffffffffffffffffffff1673ffffffffffffffffffffffffffffffffffffffff16815260200190815260200160002060006101000a81548160ff021916908315150217905550600f60008154809291906113f290612dba565b919050555060018081905550565b600e5481565b600260009054906101000a900473ffffffffffffffffffffffffffffffffffffffff1681565b600460009054906101000a900473ffffffffffffffffffffffffffffffffffffffff1681565b600a5481565b611460611f8b565b8385106114a2576040517f08c379a00000000000000000000000000000000000000000000000000000000081526004016114999061310d565b60405180910390fd5b84601081905550836011819055508260128190555081601381905550806014819055505050505050565b600d5481565b6114da611f8b565b85600c8190555082600a8190555081600b8190555080600d8190555084600e8190555083600f81905550505050505050565b611514611f8b565b80600860008473ffffffffffffffffffffffffffffffffffffffff1673ffffffffffffffffffffffffffffffffffffffff16815260200190815260200160002060006101000a81548160ff0219169083151502179055505050565b611577611f8b565b61158160006120bb565b565b60076020528060005260406000206000915090505481565b60066020528060005260406000206000915054906101000a900460ff1681565b600260015403611600576040517f08c379a00000000000000000000000000000000000000000000000000000000081526004016115f790612afa565b60405180910390fd5b6002600181905550600960009054906101000a900460ff1615611658576040517f08c379a000000000000000000000000000000000000000000000000000000000815260040161164f90612b66565b60405180910390fd5b600860003373ffffffffffffffffffffffffffffffffffffffff1673ffffffffffffffffffffffffffffffffffffffff16815260200190815260200160002060009054906101000a900460ff16156116e5576040517f08c379a00000000000000000000000000000000000000000000000000000000081526004016116dc90612bd2565b60405180910390fd5b60115442111580156116f957506010544210155b611738576040517f08c379a000000000000000000000000000000000000000000000000000000000815260040161172f90613179565b60405180910390fd5b600560003373ffffffffffffffffffffffffffffffffffffffff1673ffffffffffffffffffffffffffffffffffffffff16815260200190815260200160002060009054906101000a900460ff16156117c5576040517f08c379a00000000000000000000000000000000000000000000000000000000081526004016117bc906131e5565b60405180910390fd5b600c54600260009054906101000a900473ffffffffffffffffffffffffffffffffffffffff1673ffffffffffffffffffffffffffffffffffffffff166370a08231336040518263ffffffff1660e01b815260040161182391906127a0565b602060405180830381865afa158015611840573d6000803e3d6000fd5b505050506040513d601f19601f820116820180604052508101906118649190612a05565b10156118a5576040517f08c379a000000000000000000000000000000000000000000000000000000000815260040161189c90613277565b60405180910390fd5b600260009054906101000a900473ffffffffffffffffffffffffffffffffffffffff1673ffffffffffffffffffffffffffffffffffffffff166323b872dd3330600c546040518463ffffffff1660e01b81526004016119069392919061308a565b6020604051808303816000875af1158015611925573d6000803e3d6000fd5b505050506040513d601f19601f820116820180604052508101906119499190612a70565b506001600560003373ffffffffffffffffffffffffffffffffffffffff1673ffffffffffffffffffffffffffffffffffffffff16815260200190815260200160002060006101000a81548160ff02191690831515021790555060018081905550565b60135481565b600b5481565b60008060009054906101000a900473ffffffffffffffffffffffffffffffffffffffff16905090565b60115481565b6119ee611f8b565b60008210158015611a00575060028211155b611a3f576040517f08c379a0000000000000000000000000000000000000000000000000000000008152600401611a3690613309565b60405180910390fd5b60008203611a8d5780600260006101000a81548173ffffffffffffffffffffffffffffffffffffffff021916908373ffffffffffffffffffffffffffffffffffffffff160217905550611b27565b60018203611adb5780600360006101000a81548173ffffffffffffffffffffffffffffffffffffffff021916908373ffffffffffffffffffffffffffffffffffffffff160217905550611b26565b60028203611b255780600460006101000a81548173ffffffffffffffffffffffffffffffffffffffff021916908373ffffffffffffffffffffffffffffffffffffffff1602179055505b5b5b5050565b600c5481565b60158181548110611b4157600080fd5b90600052602060002090600302016000915090508060000154908060010154908060020154905083565b60105481565b611b79611f8b565b60156000611b879190612404565b60005b84849050811015611c4d57611b9d612428565b81816000018181525050838383818110611bba57611bb9612cf0565b5b90506020020135816020018181525050858583818110611bdd57611bdc612cf0565b5b9050602002013581604001818152505060158190806001815401808255809150506001900390600052602060002090600302016000909190919091506000820151816000015560208201518160010155604082015181600201555050508080611c4590612dba565b915050611b8a565b5050505050565b60145481565b611c62611f8b565b80600960006101000a81548160ff02191690831515021790555050565b600f5481565b60056020528060005260406000206000915054906101000a900460ff1681565b60125481565b600360009054906101000a900473ffffffffffffffffffffffffffffffffffffffff1681565b611cd9611f8b565b60008203611d3357611d2e3382600260009054906101000a900473ffffffffffffffffffffffffffffffffffffffff1673ffffffffffffffffffffffffffffffffffffffff166120359092919063ffffffff16565b611ed1565b60018203611d8d57611d883382600360009054906101000a900473ffffffffffffffffffffffffffffffffffffffff1673ffffffffffffffffffffffffffffffffffffffff166120359092919063ffffffff16565b611ed0565b60028203611de757611de23382600460009054906101000a900473ffffffffffffffffffffffffffffffffffffffff1673ffffffffffffffffffffffffffffffffffffffff166120359092919063ffffffff16565b611ecf565b611e343382600260009054906101000a900473ffffffffffffffffffffffffffffffffffffffff1673ffffffffffffffffffffffffffffffffffffffff166120359092919063ffffffff16565b611e813382600360009054906101000a900473ffffffffffffffffffffffffffffffffffffffff1673ffffffffffffffffffffffffffffffffffffffff166120359092919063ffffffff16565b611ece3382600460009054906101000a900473ffffffffffffffffffffffffffffffffffffffff1673ffffffffffffffffffffffffffffffffffffffff166120359092919063ffffffff16565b5b5b5b5050565b611edd611f8b565b600073ffffffffffffffffffffffffffffffffffffffff168173ffffffffffffffffffffffffffffffffffffffff1603611f4c576040517f08c379a0000000000000000000000000000000000000000000000000000000008152600401611f439061339b565b60405180910390fd5b611f55816120bb565b50565b60086020528060005260406000206000915054906101000a900460ff1681565b600960009054906101000a900460ff1681565b611f9361217f565b73ffffffffffffffffffffffffffffffffffffffff16611fb16119b7565b73ffffffffffffffffffffffffffffffffffffffff1614612007576040517f08c379a0000000000000000000000000000000000000000000000000000000008152600401611ffe90613407565b60405180910390fd5b565b600081836120179190613427565b905092915050565b6000818361202d9190613498565b905092915050565b6120b68363a9059cbb60e01b8484604051602401612054929190612a32565b604051602081830303815290604052907bffffffffffffffffffffffffffffffffffffffffffffffffffffffff19166020820180517bffffffffffffffffffffffffffffffffffffffffffffffffffffffff8381831617835250505050612187565b505050565b60008060009054906101000a900473ffffffffffffffffffffffffffffffffffffffff169050816000806101000a81548173ffffffffffffffffffffffffffffffffffffffff021916908373ffffffffffffffffffffffffffffffffffffffff1602179055508173ffffffffffffffffffffffffffffffffffffffff168173ffffffffffffffffffffffffffffffffffffffff167f8be0079c531659141344cd1fd0a4f28419497f9722a3daafe3b4186f6b6457e060405160405180910390a35050565b600033905090565b60006121e9826040518060400160405280602081526020017f5361666545524332303a206c6f772d6c6576656c2063616c6c206661696c65648152508573ffffffffffffffffffffffffffffffffffffffff1661224e9092919063ffffffff16565b905060008151111561224957808060200190518101906122099190612a70565b612248576040517f08c379a000000000000000000000000000000000000000000000000000000000815260040161223f9061353b565b60405180910390fd5b5b505050565b606061225d8484600085612266565b90509392505050565b6060824710156122ab576040517f08c379a00000000000000000000000000000000000000000000000000000000081526004016122a2906135cd565b60405180910390fd5b6122b48561237a565b6122f3576040517f08c379a00000000000000000000000000000000000000000000000000000000081526004016122ea90613639565b60405180910390fd5b6000808673ffffffffffffffffffffffffffffffffffffffff16858760405161231c91906136ca565b60006040518083038185875af1925050503d8060008114612359576040519150601f19603f3d011682016040523d82523d6000602084013e61235e565b606091505b509150915061236e82828661239d565b92505050949350505050565b6000808273ffffffffffffffffffffffffffffffffffffffff163b119050919050565b606083156123ad578290506123fd565b6000835111156123c05782518084602001fd5b816040517f08c379a00000000000000000000000000000000000000000000000000000000081526004016123f49190613736565b60405180910390fd5b9392505050565b50805460008255600302906000526020600020908101906124259190612449565b50565b60405180606001604052806000815260200160008152602001600081525090565b5b8082111561247457600080820160009055600182016000905560028201600090555060030161244a565b5090565b6000819050919050565b61248b81612478565b82525050565b60006020820190506124a66000830184612482565b92915050565b600073ffffffffffffffffffffffffffffffffffffffff82169050919050565b6000819050919050565b60006124f16124ec6124e7846124ac565b6124cc565b6124ac565b9050919050565b6000612503826124d6565b9050919050565b6000612515826124f8565b9050919050565b6125258161250a565b82525050565b6000602082019050612540600083018461251c565b92915050565b600080fd5b600080fd5b61255981612478565b811461256457600080fd5b50565b60008135905061257681612550565b92915050565b600080600080600060a0868803121561259857612597612546565b5b60006125a688828901612567565b95505060206125b788828901612567565b94505060406125c888828901612567565b93505060606125d988828901612567565b92505060806125ea88828901612567565b9150509295509295909350565b60008060008060008060c0878903121561261457612613612546565b5b600061262289828a01612567565b965050602061263389828a01612567565b955050604061264489828a01612567565b945050606061265589828a01612567565b935050608061266689828a01612567565b92505060a061267789828a01612567565b9150509295509295509295565b600061268f826124ac565b9050919050565b61269f81612684565b81146126aa57600080fd5b50565b6000813590506126bc81612696565b92915050565b60008115159050919050565b6126d7816126c2565b81146126e257600080fd5b50565b6000813590506126f4816126ce565b92915050565b6000806040838503121561271157612710612546565b5b600061271f858286016126ad565b9250506020612730858286016126e5565b9150509250929050565b6000602082840312156127505761274f612546565b5b600061275e848285016126ad565b91505092915050565b612770816126c2565b82525050565b600060208201905061278b6000830184612767565b92915050565b61279a81612684565b82525050565b60006020820190506127b56000830184612791565b92915050565b60006127c682612684565b9050919050565b6127d6816127bb565b81146127e157600080fd5b50565b6000813590506127f3816127cd565b92915050565b600080604083850312156128105761280f612546565b5b600061281e85828601612567565b925050602061282f858286016127e4565b9150509250929050565b60006020828403121561284f5761284e612546565b5b600061285d84828501612567565b91505092915050565b600060608201905061287b6000830186612482565b6128886020830185612482565b6128956040830184612482565b949350505050565b600080fd5b600080fd5b600080fd5b60008083601f8401126128c2576128c161289d565b5b8235905067ffffffffffffffff8111156128df576128de6128a2565b5b6020830191508360208202830111156128fb576128fa6128a7565b5b9250929050565b6000806000806040858703121561291c5761291b612546565b5b600085013567ffffffffffffffff81111561293a5761293961254b565b5b612946878288016128ac565b9450945050602085013567ffffffffffffffff8111156129695761296861254b565b5b612975878288016128ac565b925092505092959194509250565b60006020828403121561299957612998612546565b5b60006129a7848285016126e5565b91505092915050565b600080604083850312156129c7576129c6612546565b5b60006129d585828601612567565b92505060206129e685828601612567565b9150509250929050565b6000815190506129ff81612550565b92915050565b600060208284031215612a1b57612a1a612546565b5b6000612a29848285016129f0565b91505092915050565b6000604082019050612a476000830185612791565b612a546020830184612482565b9392505050565b600081519050612a6a816126ce565b92915050565b600060208284031215612a8657612a85612546565b5b6000612a9484828501612a5b565b91505092915050565b600082825260208201905092915050565b7f5265656e7472616e637947756172643a207265656e7472616e742063616c6c00600082015250565b6000612ae4601f83612a9d565b9150612aef82612aae565b602082019050919050565b60006020820190508181036000830152612b1381612ad7565b9050919050565b7f536d61727420636f6e7472616374206973207061757365640000000000000000600082015250565b6000612b50601883612a9d565b9150612b5b82612b1a565b602082019050919050565b60006020820190508181036000830152612b7f81612b43565b9050919050565b7f596f7520617265206f6e20626c61636b6c697374000000000000000000000000600082015250565b6000612bbc601483612a9d565b9150612bc782612b86565b602082019050919050565b60006020820190508181036000830152612beb81612baf565b9050919050565b7f596f7520686176656e277420626f7567687420736c6f74000000000000000000600082015250565b6000612c28601783612a9d565b9150612c3382612bf2565b602082019050919050565b60006020820190508181036000830152612c5781612c1b565b9050919050565b7f596f75206861766520636c61696d656420616c6c206f6620796f757220746f6b60008201527f656e730000000000000000000000000000000000000000000000000000000000602082015250565b6000612cba602383612a9d565b9150612cc582612c5e565b604082019050919050565b60006020820190508181036000830152612ce981612cad565b9050919050565b7f4e487b7100000000000000000000000000000000000000000000000000000000600052603260045260246000fd5b7f436c61696d2074696d65206973206e6f74207374617274656400000000000000600082015250565b6000612d55601983612a9d565b9150612d6082612d1f565b602082019050919050565b60006020820190508181036000830152612d8481612d48565b9050919050565b7f4e487b7100000000000000000000000000000000000000000000000000000000600052601160045260246000fd5b6000612dc582612478565b91507fffffffffffffffffffffffffffffffffffffffffffffffffffffffffffffffff8203612df757612df6612d8b565b5b600182019050919050565b7f496e76616c69642062757920736c6f742074696d650000000000000000000000600082015250565b6000612e38601583612a9d565b9150612e4382612e02565b602082019050919050565b60006020820190508181036000830152612e6781612e2b565b9050919050565b7f4f7574206f6620736c6f74730000000000000000000000000000000000000000600082015250565b6000612ea4600c83612a9d565b9150612eaf82612e6e565b602082019050919050565b60006020820190508181036000830152612ed381612e97565b9050919050565b7f596f7520686176656e2774207374616b65640000000000000000000000000000600082015250565b6000612f10601283612a9d565b9150612f1b82612eda565b602082019050919050565b60006020820190508181036000830152612f3f81612f03565b9050919050565b7f596f7520616c726561647920626f7567687420736c6f74000000000000000000600082015250565b6000612f7c601783612a9d565b9150612f8782612f46565b602082019050919050565b60006020820190508181036000830152612fab81612f6f565b9050919050565b7f596f7520646f6e2774206861766520656e6f7567682042414d49000000000000600082015250565b6000612fe8601a83612a9d565b9150612ff382612fb2565b602082019050919050565b6000602082019050818103600083015261301781612fdb565b9050919050565b7f596f7520646f6e2774206861766520656e6f7567682042555344000000000000600082015250565b6000613054601a83612a9d565b915061305f8261301e565b602082019050919050565b6000602082019050818103600083015261308381613047565b9050919050565b600060608201905061309f6000830186612791565b6130ac6020830185612791565b6130b96040830184612482565b949350505050565b7f496e76616c6964207374616b696e672074696d6520696e707574000000000000600082015250565b60006130f7601a83612a9d565b9150613102826130c1565b602082019050919050565b60006020820190508181036000830152613126816130ea565b9050919050565b7f496e76616c6964207374616b696e672074696d65000000000000000000000000600082015250565b6000613163601483612a9d565b915061316e8261312d565b602082019050919050565b6000602082019050818103600083015261319281613156565b9050919050565b7f596f7520616c7265616479207374616b65640000000000000000000000000000600082015250565b60006131cf601283612a9d565b91506131da82613199565b602082019050919050565b600060208201905081810360008301526131fe816131c2565b9050919050565b7f596f7572206163636f756e7420646f65736e2774206861766520656e6f75676860008201527f2042616d6920746f6b656e20746f207374616b65000000000000000000000000602082015250565b6000613261603483612a9d565b915061326c82613205565b604082019050919050565b6000602082019050818103600083015261329081613254565b9050919050565b7f496e707574203020666f722042616d692c203120666f7220425553442c20322060008201527f666f72204865736d616e00000000000000000000000000000000000000000000602082015250565b60006132f3602a83612a9d565b91506132fe82613297565b604082019050919050565b60006020820190508181036000830152613322816132e6565b9050919050565b7f4f776e61626c653a206e6577206f776e657220697320746865207a65726f206160008201527f6464726573730000000000000000000000000000000000000000000000000000602082015250565b6000613385602683612a9d565b915061339082613329565b604082019050919050565b600060208201905081810360008301526133b481613378565b9050919050565b7f4f776e61626c653a2063616c6c6572206973206e6f7420746865206f776e6572600082015250565b60006133f1602083612a9d565b91506133fc826133bb565b602082019050919050565b60006020820190508181036000830152613420816133e4565b9050919050565b600061343282612478565b915061343d83612478565b925082820261344b81612478565b9150828204841483151761346257613461612d8b565b5b5092915050565b7f4e487b7100000000000000000000000000000000000000000000000000000000600052601260045260246000fd5b60006134a382612478565b91506134ae83612478565b9250826134be576134bd613469565b5b828204905092915050565b7f5361666545524332303a204552433230206f7065726174696f6e20646964206e60008201527f6f74207375636365656400000000000000000000000000000000000000000000602082015250565b6000613525602a83612a9d565b9150613530826134c9565b604082019050919050565b6000602082019050818103600083015261355481613518565b9050919050565b7f416464726573733a20696e73756666696369656e742062616c616e636520666f60008201527f722063616c6c0000000000000000000000000000000000000000000000000000602082015250565b60006135b7602683612a9d565b91506135c28261355b565b604082019050919050565b600060208201905081810360008301526135e6816135aa565b9050919050565b7f416464726573733a2063616c6c20746f206e6f6e2d636f6e7472616374000000600082015250565b6000613623601d83612a9d565b915061362e826135ed565b602082019050919050565b6000602082019050818103600083015261365281613616565b9050919050565b600081519050919050565b600081905092915050565b60005b8381101561368d578082015181840152602081019050613672565b60008484015250505050565b60006136a482613659565b6136ae8185613664565b93506136be81856020860161366f565b80840191505092915050565b60006136d68284613699565b915081905092915050565b600081519050919050565b6000601f19601f8301169050919050565b6000613708826136e1565b6137128185612a9d565b935061372281856020860161366f565b61372b816136ec565b840191505092915050565b6000602082019050818103600083015261375081846136fd565b90509291505056fea2646970667358221220f4e3f5d56c4003d2fb86f2993838eb8575920f94610a0aa4f058636196a16b4564736f6c63430008110033",
  "linkReferences": {},
  "deployedLinkReferences": {}
}