{
  "_format": "hh-sol-artifact-1",
  "contractName": "Pool2",
  "sourceName": "Contracts/Pool2.sol",
  "abi": [
    {
      "inputs": [
        {
          "internalType": "contract ERC20",
          "name": "_bamiTokenAddress",
          "type": "address"
        },
        {
          "internalType": "contract ERC20",
          "name": "_BUSDTokenAddress",
          "type": "address"
        },
        {
          "internalType": "contract ERC20",
          "name": "_hesmanTokenAddress",
          "type": "address"
        }
      ],
      "stateMutability": "nonpayable",
      "type": "constructor"
    },
    {
      "anonymous": false,
      "inputs": [
        {
          "indexed": true,
          "internalType": "address",
          "name": "previousOwner",
          "type": "address"
        },
        {
          "indexed": true,
          "internalType": "address",
          "name": "newOwner",
          "type": "address"
        }
      ],
      "name": "OwnershipTransferred",
      "type": "event"
    },
    {
      "inputs": [],
      "name": "BUSDToBuySlot",
      "outputs": [
        {
          "internalType": "uint256",
          "name": "",
          "type": "uint256"
        }
      ],
      "stateMutability": "view",
      "type": "function"
    },
    {
      "inputs": [],
      "name": "BUSDTokenAddress",
      "outputs": [
        {
          "internalType": "contract ERC20",
          "name": "",
          "type": "address"
        }
      ],
      "stateMutability": "view",
      "type": "function"
    },
    {
      "inputs": [],
      "name": "BamiToBuySlot",
      "outputs": [
        {
          "internalType": "uint256",
          "name": "",
          "type": "uint256"
        }
      ],
      "stateMutability": "view",
      "type": "function"
    },
    {
      "inputs": [
        {
          "internalType": "uint256",
          "name": "",
          "type": "uint256"
        }
      ],
      "name": "ClaimStageList",
      "outputs": [
        {
          "internalType": "uint256",
          "name": "claimIndex",
          "type": "uint256"
        },
        {
          "internalType": "uint256",
          "name": "claimPercent",
          "type": "uint256"
        },
        {
          "internalType": "uint256",
          "name": "claimTimestamp",
          "type": "uint256"
        }
      ],
      "stateMutability": "view",
      "type": "function"
    },
    {
      "inputs": [],
      "name": "EmergencyWithdrawAllToken",
      "outputs": [],
      "stateMutability": "nonpayable",
      "type": "function"
    },
    {
      "inputs": [],
      "name": "bamiTokenAddress",
      "outputs": [
        {
          "internalType": "contract ERC20",
          "name": "",
          "type": "address"
        }
      ],
      "stateMutability": "view",
      "type": "function"
    },
    {
      "inputs": [
        {
          "internalType": "address",
          "name": "",
          "type": "address"
        }
      ],
      "name": "blacklist",
      "outputs": [
        {
          "internalType": "bool",
          "name": "",
          "type": "bool"
        }
      ],
      "stateMutability": "view",
      "type": "function"
    },
    {
      "inputs": [],
      "name": "buySlot",
      "outputs": [],
      "stateMutability": "nonpayable",
      "type": "function"
    },
    {
      "inputs": [],
      "name": "buySlotTimeEnd",
      "outputs": [
        {
          "internalType": "uint256",
          "name": "",
          "type": "uint256"
        }
      ],
      "stateMutability": "view",
      "type": "function"
    },
    {
      "inputs": [],
      "name": "buySlotTimeStart",
      "outputs": [
        {
          "internalType": "uint256",
          "name": "",
          "type": "uint256"
        }
      ],
      "stateMutability": "view",
      "type": "function"
    },
    {
      "inputs": [
        {
          "internalType": "uint256",
          "name": "_options",
          "type": "uint256"
        },
        {
          "internalType": "contract ERC20",
          "name": "_tokenAddress",
          "type": "address"
        }
      ],
      "name": "changeTokenAddress",
      "outputs": [],
      "stateMutability": "nonpayable",
      "type": "function"
    },
    {
      "inputs": [],
      "name": "claimHesman",
      "outputs": [],
      "stateMutability": "nonpayable",
      "type": "function"
    },
    {
      "inputs": [
        {
          "internalType": "uint256",
          "name": "_stakePrice",
          "type": "uint256"
        },
        {
          "internalType": "uint256",
          "name": "_totalSlots",
          "type": "uint256"
        },
        {
          "internalType": "uint256",
          "name": "_slotHasBeenBought",
          "type": "uint256"
        },
        {
          "internalType": "uint256",
          "name": "_BamiToBuySlot",
          "type": "uint256"
        },
        {
          "internalType": "uint256",
          "name": "_BUSDToBuySlot",
          "type": "uint256"
        },
        {
          "internalType": "uint256",
          "name": "_hesmanClaimPerSlot",
          "type": "uint256"
        }
      ],
      "name": "configPriceAndSlot",
      "outputs": [],
      "stateMutability": "nonpayable",
      "type": "function"
    },
    {
      "inputs": [
        {
          "internalType": "uint256",
          "name": "_stakingTimeStart",
          "type": "uint256"
        },
        {
          "internalType": "uint256",
          "name": "_stakingTimeEnd",
          "type": "uint256"
        },
        {
          "internalType": "uint256",
          "name": "_buySlotTimeStart",
          "type": "uint256"
        },
        {
          "internalType": "uint256",
          "name": "_buySlotTimeEnd",
          "type": "uint256"
        }
      ],
      "name": "configTimer",
      "outputs": [],
      "stateMutability": "nonpayable",
      "type": "function"
    },
    {
      "inputs": [],
      "name": "hesmanClaimPerSlot",
      "outputs": [
        {
          "internalType": "uint256",
          "name": "",
          "type": "uint256"
        }
      ],
      "stateMutability": "view",
      "type": "function"
    },
    {
      "inputs": [],
      "name": "hesmanTokenAddress",
      "outputs": [
        {
          "internalType": "contract ERC20",
          "name": "",
          "type": "address"
        }
      ],
      "stateMutability": "view",
      "type": "function"
    },
    {
      "inputs": [],
      "name": "isPause",
      "outputs": [
        {
          "internalType": "bool",
          "name": "",
          "type": "bool"
        }
      ],
      "stateMutability": "view",
      "type": "function"
    },
    {
      "inputs": [
        {
          "internalType": "address",
          "name": "",
          "type": "address"
        }
      ],
      "name": "nextStageIndex",
      "outputs": [
        {
          "internalType": "uint256",
          "name": "",
          "type": "uint256"
        }
      ],
      "stateMutability": "view",
      "type": "function"
    },
    {
      "inputs": [],
      "name": "owner",
      "outputs": [
        {
          "internalType": "address",
          "name": "",
          "type": "address"
        }
      ],
      "stateMutability": "view",
      "type": "function"
    },
    {
      "inputs": [
        {
          "internalType": "uint256",
          "name": "_options",
          "type": "uint256"
        },
        {
          "internalType": "uint256",
          "name": "_amount",
          "type": "uint256"
        }
      ],
      "name": "ownerWithdrawToken",
      "outputs": [],
      "stateMutability": "nonpayable",
      "type": "function"
    },
    {
      "inputs": [],
      "name": "renounceOwnership",
      "outputs": [],
      "stateMutability": "nonpayable",
      "type": "function"
    },
    {
      "inputs": [
        {
          "internalType": "address",
          "name": "_address",
          "type": "address"
        },
        {
          "internalType": "bool",
          "name": "_isBlackList",
          "type": "bool"
        }
      ],
      "name": "setBlackList",
      "outputs": [],
      "stateMutability": "nonpayable",
      "type": "function"
    },
    {
      "inputs": [
        {
          "internalType": "uint256[]",
          "name": "_claimTimestamp",
          "type": "uint256[]"
        },
        {
          "internalType": "uint256[]",
          "name": "_claimPercent",
          "type": "uint256[]"
        }
      ],
      "name": "setClaimStage",
      "outputs": [],
      "stateMutability": "nonpayable",
      "type": "function"
    },
    {
      "inputs": [
        {
          "internalType": "bool",
          "name": "_pause",
          "type": "bool"
        }
      ],
      "name": "setPause",
      "outputs": [],
      "stateMutability": "nonpayable",
      "type": "function"
    },
    {
      "inputs": [],
      "name": "slotHasBeenBought",
      "outputs": [
        {
          "internalType": "uint256",
          "name": "",
          "type": "uint256"
        }
      ],
      "stateMutability": "view",
      "type": "function"
    },
    {
      "inputs": [],
      "name": "stakeBamiToken",
      "outputs": [],
      "stateMutability": "nonpayable",
      "type": "function"
    },
    {
      "inputs": [],
      "name": "stakePrice",
      "outputs": [
        {
          "internalType": "uint256",
          "name": "",
          "type": "uint256"
        }
      ],
      "stateMutability": "view",
      "type": "function"
    },
    {
      "inputs": [],
      "name": "stakingTimeEnd",
      "outputs": [
        {
          "internalType": "uint256",
          "name": "",
          "type": "uint256"
        }
      ],
      "stateMutability": "view",
      "type": "function"
    },
    {
      "inputs": [],
      "name": "stakingTimeStart",
      "outputs": [
        {
          "internalType": "uint256",
          "name": "",
          "type": "uint256"
        }
      ],
      "stateMutability": "view",
      "type": "function"
    },
    {
      "inputs": [],
      "name": "totalSlots",
      "outputs": [
        {
          "internalType": "uint256",
          "name": "",
          "type": "uint256"
        }
      ],
      "stateMutability": "view",
      "type": "function"
    },
    {
      "inputs": [
        {
          "internalType": "address",
          "name": "newOwner",
          "type": "address"
        }
      ],
      "name": "transferOwnership",
      "outputs": [],
      "stateMutability": "nonpayable",
      "type": "function"
    },
    {
      "inputs": [
        {
          "internalType": "address",
          "name": "",
          "type": "address"
        }
      ],
      "name": "userAlreadyStake",
      "outputs": [
        {
          "internalType": "bool",
          "name": "",
          "type": "bool"
        }
      ],
      "stateMutability": "view",
      "type": "function"
    },
    {
      "inputs": [
        {
          "internalType": "address",
          "name": "",
          "type": "address"
        }
      ],
      "name": "userHasBoughtSlot",
      "outputs": [
        {
          "internalType": "bool",
          "name": "",
          "type": "bool"
        }
      ],
      "stateMutability": "view",
      "type": "function"
    }
  ],
  "bytecode": "0x60806040523480156200001157600080fd5b5060405162003b9f38038062003b9f83398181016040528101906200003791906200036d565b620000576200004b6200013c60201b60201c565b6200014460201b60201c565b6001808190555082600260006101000a81548173ffffffffffffffffffffffffffffffffffffffff021916908373ffffffffffffffffffffffffffffffffffffffff16021790555081600360006101000a81548173ffffffffffffffffffffffffffffffffffffffff021916908373ffffffffffffffffffffffffffffffffffffffff16021790555080600460006101000a81548173ffffffffffffffffffffffffffffffffffffffff021916908373ffffffffffffffffffffffffffffffffffffffff1602179055506200013360016200020860201b60201c565b5050506200044c565b600033905090565b60008060009054906101000a900473ffffffffffffffffffffffffffffffffffffffff169050816000806101000a81548173ffffffffffffffffffffffffffffffffffffffff021916908373ffffffffffffffffffffffffffffffffffffffff1602179055508173ffffffffffffffffffffffffffffffffffffffff168173ffffffffffffffffffffffffffffffffffffffff167f8be0079c531659141344cd1fd0a4f28419497f9722a3daafe3b4186f6b6457e060405160405180910390a35050565b620002186200023560201b60201c565b80600960006101000a81548160ff02191690831515021790555050565b620002456200013c60201b60201c565b73ffffffffffffffffffffffffffffffffffffffff166200026b620002c660201b60201c565b73ffffffffffffffffffffffffffffffffffffffff1614620002c4576040517f08c379a0000000000000000000000000000000000000000000000000000000008152600401620002bb906200042a565b60405180910390fd5b565b60008060009054906101000a900473ffffffffffffffffffffffffffffffffffffffff16905090565b600080fd5b600073ffffffffffffffffffffffffffffffffffffffff82169050919050565b60006200032182620002f4565b9050919050565b6000620003358262000314565b9050919050565b620003478162000328565b81146200035357600080fd5b50565b60008151905062000367816200033c565b92915050565b600080600060608486031215620003895762000388620002ef565b5b6000620003998682870162000356565b9350506020620003ac8682870162000356565b9250506040620003bf8682870162000356565b9150509250925092565b600082825260208201905092915050565b7f4f776e61626c653a2063616c6c6572206973206e6f7420746865206f776e6572600082015250565b600062000412602083620003c9565b91506200041f82620003da565b602082019050919050565b60006020820190508181036000830152620004458162000403565b9050919050565b613743806200045c6000396000f3fe608060405234801561001057600080fd5b50600436106101fb5760003560e01c80638666b8441161011a578063bedb86fb116100ad578063ea903c9e1161007c578063ea903c9e14610522578063ecc5fc2714610540578063f2fde38b1461055c578063f9f92be414610578578063ff0938a7146105a8576101fb565b8063bedb86fb1461049a578063c42816ae146104b6578063ca6527be146104d4578063e102682b14610504576101fb565b8063a023cf69116100e9578063a023cf6914610410578063a104dc631461042e578063a89b66c714610460578063b55a13bc1461047e576101fb565b80638666b8441461039a5780638da5cb5b146103b85780639b627a47146103d65780639cb9a19a146103f4576101fb565b80635deeadd211610192578063767c9e1a11610161578063767c9e1a1461032657806381022cf81461035657806382bcb4f61461036057806385d1f8d91461037e576101fb565b80635deeadd2146102b457806368092bd9146102d0578063715018a6146102ec57806371c7532e146102f6576101fb565b806336541c8e116101ce57806336541c8e1461023c5780634bfb54331461025a5780634e2ae27e146102785780635bde226f14610296576101fb565b80631e82433f14610200578063269b63461461020a5780632cb3d08514610214578063326519061461021e575b600080fd5b6102086105c6565b005b610212610984565b005b61021c610d78565b005b6102266113d7565b604051610233919061245a565b60405180910390f35b6102446113dd565b60405161025191906124f4565b60405180910390f35b610262611403565b60405161026f91906124f4565b60405180910390f35b610280611429565b60405161028d919061245a565b60405180910390f35b61029e61142f565b6040516102ab919061245a565b60405180910390f35b6102ce60048036038101906102c99190612545565b611435565b005b6102ea60048036038101906102e59190612648565b61146f565b005b6102f46114d2565b005b610310600480360381019061030b9190612688565b6114e6565b60405161031d919061245a565b60405180910390f35b610340600480360381019061033b9190612688565b6114fe565b60405161034d91906126c4565b60405180910390f35b61035e61151e565b005b61036861190e565b604051610375919061245a565b60405180910390f35b610398600480360381019061039391906126df565b611914565b005b6103a2611980565b6040516103af919061245a565b60405180910390f35b6103c0611986565b6040516103cd9190612755565b60405180910390f35b6103de6119af565b6040516103eb919061245a565b60405180910390f35b61040e600480360381019061040991906127ae565b6119b5565b005b610418611afa565b604051610425919061245a565b60405180910390f35b610448600480360381019061044391906127ee565b611b00565b6040516104579392919061281b565b60405180910390f35b610468611b3a565b604051610475919061245a565b60405180910390f35b610498600480360381019061049391906128b7565b611b40565b005b6104b460048036038101906104af9190612938565b611c23565b005b6104be611c48565b6040516104cb919061245a565b60405180910390f35b6104ee60048036038101906104e99190612688565b611c4e565b6040516104fb91906126c4565b60405180910390f35b61050c611c6e565b604051610519919061245a565b60405180910390f35b61052a611c74565b60405161053791906124f4565b60405180910390f35b61055a60048036038101906105559190612965565b611c9a565b005b61057660048036038101906105719190612688565b611e9e565b005b610592600480360381019061058d9190612688565b611f21565b60405161059f91906126c4565b60405180910390f35b6105b0611f41565b6040516105bd91906126c4565b60405180910390f35b6105ce611f54565b600260009054906101000a900473ffffffffffffffffffffffffffffffffffffffff1673ffffffffffffffffffffffffffffffffffffffff1663a9059cbb33600260009054906101000a900473ffffffffffffffffffffffffffffffffffffffff1673ffffffffffffffffffffffffffffffffffffffff166370a08231306040518263ffffffff1660e01b81526004016106689190612755565b602060405180830381865afa158015610685573d6000803e3d6000fd5b505050506040513d601f19601f820116820180604052508101906106a991906129ba565b6040518363ffffffff1660e01b81526004016106c69291906129e7565b6020604051808303816000875af11580156106e5573d6000803e3d6000fd5b505050506040513d601f19601f820116820180604052508101906107099190612a25565b50600360009054906101000a900473ffffffffffffffffffffffffffffffffffffffff1673ffffffffffffffffffffffffffffffffffffffff1663a9059cbb33600360009054906101000a900473ffffffffffffffffffffffffffffffffffffffff1673ffffffffffffffffffffffffffffffffffffffff166370a08231306040518263ffffffff1660e01b81526004016107a49190612755565b602060405180830381865afa1580156107c1573d6000803e3d6000fd5b505050506040513d601f19601f820116820180604052508101906107e591906129ba565b6040518363ffffffff1660e01b81526004016108029291906129e7565b6020604051808303816000875af1158015610821573d6000803e3d6000fd5b505050506040513d601f19601f820116820180604052508101906108459190612a25565b50600460009054906101000a900473ffffffffffffffffffffffffffffffffffffffff1673ffffffffffffffffffffffffffffffffffffffff1663a9059cbb33600460009054906101000a900473ffffffffffffffffffffffffffffffffffffffff1673ffffffffffffffffffffffffffffffffffffffff166370a08231306040518263ffffffff1660e01b81526004016108e09190612755565b602060405180830381865afa1580156108fd573d6000803e3d6000fd5b505050506040513d601f19601f8201168201806040525081019061092191906129ba565b6040518363ffffffff1660e01b815260040161093e9291906129e7565b6020604051808303816000875af115801561095d573d6000803e3d6000fd5b505050506040513d601f19601f820116820180604052508101906109819190612a25565b50565b6002600154036109c9576040517f08c379a00000000000000000000000000000000000000000000000000000000081526004016109c090612aaf565b60405180910390fd5b6002600181905550600960009054906101000a900460ff1615610a21576040517f08c379a0000000000000000000000000000000000000000000000000000000008152600401610a1890612b1b565b60405180910390fd5b600860003373ffffffffffffffffffffffffffffffffffffffff1673ffffffffffffffffffffffffffffffffffffffff16815260200190815260200160002060009054906101000a900460ff1615610aae576040517f08c379a0000000000000000000000000000000000000000000000000000000008152600401610aa590612b87565b60405180910390fd5b600660003373ffffffffffffffffffffffffffffffffffffffff1673ffffffffffffffffffffffffffffffffffffffff16815260200190815260200160002060009054906101000a900460ff16610b3a576040517f08c379a0000000000000000000000000000000000000000000000000000000008152600401610b3190612bf3565b60405180910390fd5b6000429050601480549050600760003373ffffffffffffffffffffffffffffffffffffffff1673ffffffffffffffffffffffffffffffffffffffff1681526020019081526020016000205410610bc5576040517f08c379a0000000000000000000000000000000000000000000000000000000008152600401610bbc90612c85565b60405180910390fd5b60006014600760003373ffffffffffffffffffffffffffffffffffffffff1673ffffffffffffffffffffffffffffffffffffffff1681526020019081526020016000205481548110610c1a57610c19612ca5565b5b9060005260206000209060030201604051806060016040529081600082015481526020016001820154815260200160028201548152505090508060400151821015610c9a576040517f08c379a0000000000000000000000000000000000000000000000000000000008152600401610c9190612d20565b60405180910390fd5b600760003373ffffffffffffffffffffffffffffffffffffffff1673ffffffffffffffffffffffffffffffffffffffff1681526020019081526020016000206000815480929190610cea90612d6f565b91905055506000610d1d6064610d0f600d548560200151611fd290919063ffffffff16565b611fe890919063ffffffff16565b9050610d6c3382600460009054906101000a900473ffffffffffffffffffffffffffffffffffffffff1673ffffffffffffffffffffffffffffffffffffffff16611ffe9092919063ffffffff16565b50505060018081905550565b600260015403610dbd576040517f08c379a0000000000000000000000000000000000000000000000000000000008152600401610db490612aaf565b60405180910390fd5b6002600181905550600960009054906101000a900460ff1615610e15576040517f08c379a0000000000000000000000000000000000000000000000000000000008152600401610e0c90612b1b565b60405180910390fd5b600860003373ffffffffffffffffffffffffffffffffffffffff1673ffffffffffffffffffffffffffffffffffffffff16815260200190815260200160002060009054906101000a900460ff1615610ea2576040517f08c379a0000000000000000000000000000000000000000000000000000000008152600401610e9990612b87565b60405180910390fd5b6013544211158015610eb657506012544210155b610ef5576040517f08c379a0000000000000000000000000000000000000000000000000000000008152600401610eec90612e03565b60405180910390fd5b600e54600f5410610f3b576040517f08c379a0000000000000000000000000000000000000000000000000000000008152600401610f3290612e6f565b60405180910390fd5b600560003373ffffffffffffffffffffffffffffffffffffffff1673ffffffffffffffffffffffffffffffffffffffff16815260200190815260200160002060009054906101000a900460ff16610fc7576040517f08c379a0000000000000000000000000000000000000000000000000000000008152600401610fbe90612edb565b60405180910390fd5b600660003373ffffffffffffffffffffffffffffffffffffffff1673ffffffffffffffffffffffffffffffffffffffff16815260200190815260200160002060009054906101000a900460ff1615611054576040517f08c379a000000000000000000000000000000000000000000000000000000000815260040161104b90612f47565b60405180910390fd5b600a54600260009054906101000a900473ffffffffffffffffffffffffffffffffffffffff1673ffffffffffffffffffffffffffffffffffffffff166370a08231336040518263ffffffff1660e01b81526004016110b29190612755565b602060405180830381865afa1580156110cf573d6000803e3d6000fd5b505050506040513d601f19601f820116820180604052508101906110f391906129ba565b1015611134576040517f08c379a000000000000000000000000000000000000000000000000000000000815260040161112b90612fb3565b60405180910390fd5b600b54600360009054906101000a900473ffffffffffffffffffffffffffffffffffffffff1673ffffffffffffffffffffffffffffffffffffffff166370a08231336040518263ffffffff1660e01b81526004016111929190612755565b602060405180830381865afa1580156111af573d6000803e3d6000fd5b505050506040513d601f19601f820116820180604052508101906111d391906129ba565b1015611214576040517f08c379a000000000000000000000000000000000000000000000000000000000815260040161120b9061301f565b60405180910390fd5b600260009054906101000a900473ffffffffffffffffffffffffffffffffffffffff1673ffffffffffffffffffffffffffffffffffffffff166323b872dd3330600a546040518463ffffffff1660e01b81526004016112759392919061303f565b6020604051808303816000875af1158015611294573d6000803e3d6000fd5b505050506040513d601f19601f820116820180604052508101906112b89190612a25565b50600360009054906101000a900473ffffffffffffffffffffffffffffffffffffffff1673ffffffffffffffffffffffffffffffffffffffff166323b872dd3330600b546040518463ffffffff1660e01b815260040161131a9392919061303f565b6020604051808303816000875af1158015611339573d6000803e3d6000fd5b505050506040513d601f19601f8201168201806040525081019061135d9190612a25565b506001600660003373ffffffffffffffffffffffffffffffffffffffff1673ffffffffffffffffffffffffffffffffffffffff16815260200190815260200160002060006101000a81548160ff021916908315150217905550600f60008154809291906113c990612d6f565b919050555060018081905550565b600e5481565b600260009054906101000a900473ffffffffffffffffffffffffffffffffffffffff1681565b600460009054906101000a900473ffffffffffffffffffffffffffffffffffffffff1681565b600a5481565b600d5481565b61143d611f54565b85600c8190555082600a8190555081600b8190555080600d8190555084600e8190555083600f81905550505050505050565b611477611f54565b80600860008473ffffffffffffffffffffffffffffffffffffffff1673ffffffffffffffffffffffffffffffffffffffff16815260200190815260200160002060006101000a81548160ff0219169083151502179055505050565b6114da611f54565b6114e46000612084565b565b60076020528060005260406000206000915090505481565b60066020528060005260406000206000915054906101000a900460ff1681565b600260015403611563576040517f08c379a000000000000000000000000000000000000000000000000000000000815260040161155a90612aaf565b60405180910390fd5b6002600181905550600960009054906101000a900460ff16156115bb576040517f08c379a00000000000000000000000000000000000000000000000000000000081526004016115b290612b1b565b60405180910390fd5b600860003373ffffffffffffffffffffffffffffffffffffffff1673ffffffffffffffffffffffffffffffffffffffff16815260200190815260200160002060009054906101000a900460ff1615611648576040517f08c379a000000000000000000000000000000000000000000000000000000000815260040161163f90612b87565b60405180910390fd5b601154421115801561165c57506010544210155b61169b576040517f08c379a0000000000000000000000000000000000000000000000000000000008152600401611692906130c2565b60405180910390fd5b600560003373ffffffffffffffffffffffffffffffffffffffff1673ffffffffffffffffffffffffffffffffffffffff16815260200190815260200160002060009054906101000a900460ff1615611728576040517f08c379a000000000000000000000000000000000000000000000000000000000815260040161171f9061312e565b60405180910390fd5b600c54600260009054906101000a900473ffffffffffffffffffffffffffffffffffffffff1673ffffffffffffffffffffffffffffffffffffffff166370a08231336040518263ffffffff1660e01b81526004016117869190612755565b602060405180830381865afa1580156117a3573d6000803e3d6000fd5b505050506040513d601f19601f820116820180604052508101906117c791906129ba565b1015611808576040517f08c379a00000000000000000000000000000000000000000000000000000000081526004016117ff906131c0565b60405180910390fd5b600260009054906101000a900473ffffffffffffffffffffffffffffffffffffffff1673ffffffffffffffffffffffffffffffffffffffff166323b872dd3330600c546040518463ffffffff1660e01b81526004016118699392919061303f565b6020604051808303816000875af1158015611888573d6000803e3d6000fd5b505050506040513d601f19601f820116820180604052508101906118ac9190612a25565b506001600560003373ffffffffffffffffffffffffffffffffffffffff1673ffffffffffffffffffffffffffffffffffffffff16815260200190815260200160002060006101000a81548160ff02191690831515021790555060018081905550565b60135481565b61191c611f54565b82841061195e576040517f08c379a00000000000000000000000000000000000000000000000000000000081526004016119559061322c565b60405180910390fd5b8360108190555082601181905550816012819055508060138190555050505050565b600b5481565b60008060009054906101000a900473ffffffffffffffffffffffffffffffffffffffff16905090565b60115481565b6119bd611f54565b600082101580156119cf575060028211155b611a0e576040517f08c379a0000000000000000000000000000000000000000000000000000000008152600401611a05906132be565b60405180910390fd5b60008203611a5c5780600260006101000a81548173ffffffffffffffffffffffffffffffffffffffff021916908373ffffffffffffffffffffffffffffffffffffffff160217905550611af6565b60018203611aaa5780600360006101000a81548173ffffffffffffffffffffffffffffffffffffffff021916908373ffffffffffffffffffffffffffffffffffffffff160217905550611af5565b60028203611af45780600460006101000a81548173ffffffffffffffffffffffffffffffffffffffff021916908373ffffffffffffffffffffffffffffffffffffffff1602179055505b5b5b5050565b600c5481565b60148181548110611b1057600080fd5b90600052602060002090600302016000915090508060000154908060010154908060020154905083565b60105481565b611b48611f54565b60146000611b5691906123cd565b60005b84849050811015611c1c57611b6c6123f1565b81816000018181525050838383818110611b8957611b88612ca5565b5b90506020020135816020018181525050858583818110611bac57611bab612ca5565b5b9050602002013581604001818152505060148190806001815401808255809150506001900390600052602060002090600302016000909190919091506000820151816000015560208201518160010155604082015181600201555050508080611c1490612d6f565b915050611b59565b5050505050565b611c2b611f54565b80600960006101000a81548160ff02191690831515021790555050565b600f5481565b60056020528060005260406000206000915054906101000a900460ff1681565b60125481565b600360009054906101000a900473ffffffffffffffffffffffffffffffffffffffff1681565b611ca2611f54565b60008203611cfc57611cf73382600260009054906101000a900473ffffffffffffffffffffffffffffffffffffffff1673ffffffffffffffffffffffffffffffffffffffff16611ffe9092919063ffffffff16565b611e9a565b60018203611d5657611d513382600360009054906101000a900473ffffffffffffffffffffffffffffffffffffffff1673ffffffffffffffffffffffffffffffffffffffff16611ffe9092919063ffffffff16565b611e99565b60028203611db057611dab3382600460009054906101000a900473ffffffffffffffffffffffffffffffffffffffff1673ffffffffffffffffffffffffffffffffffffffff16611ffe9092919063ffffffff16565b611e98565b611dfd3382600260009054906101000a900473ffffffffffffffffffffffffffffffffffffffff1673ffffffffffffffffffffffffffffffffffffffff16611ffe9092919063ffffffff16565b611e4a3382600360009054906101000a900473ffffffffffffffffffffffffffffffffffffffff1673ffffffffffffffffffffffffffffffffffffffff16611ffe9092919063ffffffff16565b611e973382600460009054906101000a900473ffffffffffffffffffffffffffffffffffffffff1673ffffffffffffffffffffffffffffffffffffffff16611ffe9092919063ffffffff16565b5b5b5b5050565b611ea6611f54565b600073ffffffffffffffffffffffffffffffffffffffff168173ffffffffffffffffffffffffffffffffffffffff1603611f15576040517f08c379a0000000000000000000000000000000000000000000000000000000008152600401611f0c90613350565b60405180910390fd5b611f1e81612084565b50565b60086020528060005260406000206000915054906101000a900460ff1681565b600960009054906101000a900460ff1681565b611f5c612148565b73ffffffffffffffffffffffffffffffffffffffff16611f7a611986565b73ffffffffffffffffffffffffffffffffffffffff1614611fd0576040517f08c379a0000000000000000000000000000000000000000000000000000000008152600401611fc7906133bc565b60405180910390fd5b565b60008183611fe091906133dc565b905092915050565b60008183611ff6919061344d565b905092915050565b61207f8363a9059cbb60e01b848460405160240161201d9291906129e7565b604051602081830303815290604052907bffffffffffffffffffffffffffffffffffffffffffffffffffffffff19166020820180517bffffffffffffffffffffffffffffffffffffffffffffffffffffffff8381831617835250505050612150565b505050565b60008060009054906101000a900473ffffffffffffffffffffffffffffffffffffffff169050816000806101000a81548173ffffffffffffffffffffffffffffffffffffffff021916908373ffffffffffffffffffffffffffffffffffffffff1602179055508173ffffffffffffffffffffffffffffffffffffffff168173ffffffffffffffffffffffffffffffffffffffff167f8be0079c531659141344cd1fd0a4f28419497f9722a3daafe3b4186f6b6457e060405160405180910390a35050565b600033905090565b60006121b2826040518060400160405280602081526020017f5361666545524332303a206c6f772d6c6576656c2063616c6c206661696c65648152508573ffffffffffffffffffffffffffffffffffffffff166122179092919063ffffffff16565b905060008151111561221257808060200190518101906121d29190612a25565b612211576040517f08c379a0000000000000000000000000000000000000000000000000000000008152600401612208906134f0565b60405180910390fd5b5b505050565b6060612226848460008561222f565b90509392505050565b606082471015612274576040517f08c379a000000000000000000000000000000000000000000000000000000000815260040161226b90613582565b60405180910390fd5b61227d85612343565b6122bc576040517f08c379a00000000000000000000000000000000000000000000000000000000081526004016122b3906135ee565b60405180910390fd5b6000808673ffffffffffffffffffffffffffffffffffffffff1685876040516122e5919061367f565b60006040518083038185875af1925050503d8060008114612322576040519150601f19603f3d011682016040523d82523d6000602084013e612327565b606091505b5091509150612337828286612366565b92505050949350505050565b6000808273ffffffffffffffffffffffffffffffffffffffff163b119050919050565b60608315612376578290506123c6565b6000835111156123895782518084602001fd5b816040517f08c379a00000000000000000000000000000000000000000000000000000000081526004016123bd91906136eb565b60405180910390fd5b9392505050565b50805460008255600302906000526020600020908101906123ee9190612412565b50565b60405180606001604052806000815260200160008152602001600081525090565b5b8082111561243d576000808201600090556001820160009055600282016000905550600301612413565b5090565b6000819050919050565b61245481612441565b82525050565b600060208201905061246f600083018461244b565b92915050565b600073ffffffffffffffffffffffffffffffffffffffff82169050919050565b6000819050919050565b60006124ba6124b56124b084612475565b612495565b612475565b9050919050565b60006124cc8261249f565b9050919050565b60006124de826124c1565b9050919050565b6124ee816124d3565b82525050565b600060208201905061250960008301846124e5565b92915050565b600080fd5b600080fd5b61252281612441565b811461252d57600080fd5b50565b60008135905061253f81612519565b92915050565b60008060008060008060c087890312156125625761256161250f565b5b600061257089828a01612530565b965050602061258189828a01612530565b955050604061259289828a01612530565b94505060606125a389828a01612530565b93505060806125b489828a01612530565b92505060a06125c589828a01612530565b9150509295509295509295565b60006125dd82612475565b9050919050565b6125ed816125d2565b81146125f857600080fd5b50565b60008135905061260a816125e4565b92915050565b60008115159050919050565b61262581612610565b811461263057600080fd5b50565b6000813590506126428161261c565b92915050565b6000806040838503121561265f5761265e61250f565b5b600061266d858286016125fb565b925050602061267e85828601612633565b9150509250929050565b60006020828403121561269e5761269d61250f565b5b60006126ac848285016125fb565b91505092915050565b6126be81612610565b82525050565b60006020820190506126d960008301846126b5565b92915050565b600080600080608085870312156126f9576126f861250f565b5b600061270787828801612530565b945050602061271887828801612530565b935050604061272987828801612530565b925050606061273a87828801612530565b91505092959194509250565b61274f816125d2565b82525050565b600060208201905061276a6000830184612746565b92915050565b600061277b826125d2565b9050919050565b61278b81612770565b811461279657600080fd5b50565b6000813590506127a881612782565b92915050565b600080604083850312156127c5576127c461250f565b5b60006127d385828601612530565b92505060206127e485828601612799565b9150509250929050565b6000602082840312156128045761280361250f565b5b600061281284828501612530565b91505092915050565b6000606082019050612830600083018661244b565b61283d602083018561244b565b61284a604083018461244b565b949350505050565b600080fd5b600080fd5b600080fd5b60008083601f84011261287757612876612852565b5b8235905067ffffffffffffffff81111561289457612893612857565b5b6020830191508360208202830111156128b0576128af61285c565b5b9250929050565b600080600080604085870312156128d1576128d061250f565b5b600085013567ffffffffffffffff8111156128ef576128ee612514565b5b6128fb87828801612861565b9450945050602085013567ffffffffffffffff81111561291e5761291d612514565b5b61292a87828801612861565b925092505092959194509250565b60006020828403121561294e5761294d61250f565b5b600061295c84828501612633565b91505092915050565b6000806040838503121561297c5761297b61250f565b5b600061298a85828601612530565b925050602061299b85828601612530565b9150509250929050565b6000815190506129b481612519565b92915050565b6000602082840312156129d0576129cf61250f565b5b60006129de848285016129a5565b91505092915050565b60006040820190506129fc6000830185612746565b612a09602083018461244b565b9392505050565b600081519050612a1f8161261c565b92915050565b600060208284031215612a3b57612a3a61250f565b5b6000612a4984828501612a10565b91505092915050565b600082825260208201905092915050565b7f5265656e7472616e637947756172643a207265656e7472616e742063616c6c00600082015250565b6000612a99601f83612a52565b9150612aa482612a63565b602082019050919050565b60006020820190508181036000830152612ac881612a8c565b9050919050565b7f536d61727420636f6e7472616374206973207061757365640000000000000000600082015250565b6000612b05601883612a52565b9150612b1082612acf565b602082019050919050565b60006020820190508181036000830152612b3481612af8565b9050919050565b7f596f7520617265206f6e20626c61636b6c697374000000000000000000000000600082015250565b6000612b71601483612a52565b9150612b7c82612b3b565b602082019050919050565b60006020820190508181036000830152612ba081612b64565b9050919050565b7f596f7520686176656e277420626f7567687420736c6f74000000000000000000600082015250565b6000612bdd601783612a52565b9150612be882612ba7565b602082019050919050565b60006020820190508181036000830152612c0c81612bd0565b9050919050565b7f596f75206861766520636c61696d656420616c6c206f6620796f757220746f6b60008201527f656e730000000000000000000000000000000000000000000000000000000000602082015250565b6000612c6f602383612a52565b9150612c7a82612c13565b604082019050919050565b60006020820190508181036000830152612c9e81612c62565b9050919050565b7f4e487b7100000000000000000000000000000000000000000000000000000000600052603260045260246000fd5b7f436c61696d2074696d65206973206e6f74207374617274656400000000000000600082015250565b6000612d0a601983612a52565b9150612d1582612cd4565b602082019050919050565b60006020820190508181036000830152612d3981612cfd565b9050919050565b7f4e487b7100000000000000000000000000000000000000000000000000000000600052601160045260246000fd5b6000612d7a82612441565b91507fffffffffffffffffffffffffffffffffffffffffffffffffffffffffffffffff8203612dac57612dab612d40565b5b600182019050919050565b7f496e76616c69642062757920736c6f742074696d650000000000000000000000600082015250565b6000612ded601583612a52565b9150612df882612db7565b602082019050919050565b60006020820190508181036000830152612e1c81612de0565b9050919050565b7f4f7574206f6620736c6f74730000000000000000000000000000000000000000600082015250565b6000612e59600c83612a52565b9150612e6482612e23565b602082019050919050565b60006020820190508181036000830152612e8881612e4c565b9050919050565b7f596f7520686176656e2774207374616b65640000000000000000000000000000600082015250565b6000612ec5601283612a52565b9150612ed082612e8f565b602082019050919050565b60006020820190508181036000830152612ef481612eb8565b9050919050565b7f596f7520616c726561647920626f7567687420736c6f74000000000000000000600082015250565b6000612f31601783612a52565b9150612f3c82612efb565b602082019050919050565b60006020820190508181036000830152612f6081612f24565b9050919050565b7f596f7520646f6e2774206861766520656e6f7567682042414d49000000000000600082015250565b6000612f9d601a83612a52565b9150612fa882612f67565b602082019050919050565b60006020820190508181036000830152612fcc81612f90565b9050919050565b7f596f7520646f6e2774206861766520656e6f7567682042555344000000000000600082015250565b6000613009601a83612a52565b915061301482612fd3565b602082019050919050565b6000602082019050818103600083015261303881612ffc565b9050919050565b60006060820190506130546000830186612746565b6130616020830185612746565b61306e604083018461244b565b949350505050565b7f496e76616c6964207374616b696e672074696d65000000000000000000000000600082015250565b60006130ac601483612a52565b91506130b782613076565b602082019050919050565b600060208201905081810360008301526130db8161309f565b9050919050565b7f596f7520616c7265616479207374616b65640000000000000000000000000000600082015250565b6000613118601283612a52565b9150613123826130e2565b602082019050919050565b600060208201905081810360008301526131478161310b565b9050919050565b7f596f7572206163636f756e7420646f65736e2774206861766520656e6f75676860008201527f2042616d6920746f6b656e20746f207374616b65000000000000000000000000602082015250565b60006131aa603483612a52565b91506131b58261314e565b604082019050919050565b600060208201905081810360008301526131d98161319d565b9050919050565b7f496e76616c6964207374616b696e672074696d6520696e707574000000000000600082015250565b6000613216601a83612a52565b9150613221826131e0565b602082019050919050565b6000602082019050818103600083015261324581613209565b9050919050565b7f496e707574203020666f722042616d692c203120666f7220425553442c20322060008201527f666f72204865736d616e00000000000000000000000000000000000000000000602082015250565b60006132a8602a83612a52565b91506132b38261324c565b604082019050919050565b600060208201905081810360008301526132d78161329b565b9050919050565b7f4f776e61626c653a206e6577206f776e657220697320746865207a65726f206160008201527f6464726573730000000000000000000000000000000000000000000000000000602082015250565b600061333a602683612a52565b9150613345826132de565b604082019050919050565b600060208201905081810360008301526133698161332d565b9050919050565b7f4f776e61626c653a2063616c6c6572206973206e6f7420746865206f776e6572600082015250565b60006133a6602083612a52565b91506133b182613370565b602082019050919050565b600060208201905081810360008301526133d581613399565b9050919050565b60006133e782612441565b91506133f283612441565b925082820261340081612441565b9150828204841483151761341757613416612d40565b5b5092915050565b7f4e487b7100000000000000000000000000000000000000000000000000000000600052601260045260246000fd5b600061345882612441565b915061346383612441565b9250826134735761347261341e565b5b828204905092915050565b7f5361666545524332303a204552433230206f7065726174696f6e20646964206e60008201527f6f74207375636365656400000000000000000000000000000000000000000000602082015250565b60006134da602a83612a52565b91506134e58261347e565b604082019050919050565b60006020820190508181036000830152613509816134cd565b9050919050565b7f416464726573733a20696e73756666696369656e742062616c616e636520666f60008201527f722063616c6c0000000000000000000000000000000000000000000000000000602082015250565b600061356c602683612a52565b915061357782613510565b604082019050919050565b6000602082019050818103600083015261359b8161355f565b9050919050565b7f416464726573733a2063616c6c20746f206e6f6e2d636f6e7472616374000000600082015250565b60006135d8601d83612a52565b91506135e3826135a2565b602082019050919050565b60006020820190508181036000830152613607816135cb565b9050919050565b600081519050919050565b600081905092915050565b60005b83811015613642578082015181840152602081019050613627565b60008484015250505050565b60006136598261360e565b6136638185613619565b9350613673818560208601613624565b80840191505092915050565b600061368b828461364e565b915081905092915050565b600081519050919050565b6000601f19601f8301169050919050565b60006136bd82613696565b6136c78185612a52565b93506136d7818560208601613624565b6136e0816136a1565b840191505092915050565b6000602082019050818103600083015261370581846136b2565b90509291505056fea264697066735822122065864c11e23f102fbcc7fdb1c0e1b93f0e638cc22c82b467681891d188503c1164736f6c63430008110033",
  "linkReferences": {},
  "deployedLinkReferences": {}
}